:020000040000FA
:100000000C9436000C9440000C9440000C9440007A
:100010000C9440000C9440000C9440000C94400060
:100020000C9440000C9440000C9440000C94400050
:100030000C9440000C9440000C9440000C94400040
:100040000C9440000C9440000C9440000C94400030
:100050000C9440000C9440000C9440000C94400020
:100060000C9440000C9440000C94400011241FBEDE
:10007000CFEFD4E0DEBFCDBF0E9442000C946E00F3
:100080000C940000259AF0E0E0E0C0E08491C80FF5
:100090003196E11520E4F207C9F710E000E0C8014D
:1000A0000E946600C80F0F5F1F4F011532E0130753
:1000B000B1F7CEBB80E283B99FE72AE136E09150E9
:1000C00020403040E1F700C00000F5CFF999FECFA5
:1000D00092BD81BDF89A992780B50895F894FFCF15
:1000E000278824AAA7DB57F7C046DAB367E6FD8264
:1000F0001FAB7E0C37B3D79804070F77839A0FFD99
:100100001419249116EDD592BF4856D8B7120E0E89
:100110006A4E2DB64AAAB9E036D600A9F2B89F4673
:10012000BC7B6882DA7E254293C150253F308542F0
:10013000E93F34D153A1CCA70ED681B8B020797E47
:10014000B71940E04D6EECA73DCE9F3E1ACC91F71B
:100150006EBFA4BB84EAD4FA9C94AB63441B7C3A84
:100160003D1D69F3CD7355BF3E10381EE18B3091B4
:100170005198DC751937A3134B3A9E019BF695B540
:10018000C67E6B93216EF684EE6221B0FB34A2EF43
:100190002127801219CE5B5DEE7275BE7013842E1E
:1001A0007D0BF092F2983F23B792F93DB19FBFBE0D
:1001B000A16B422ABC54ADC4056DADA288BB673F9C
:1001C0003AE31B1CA9207B0B5BF4D37B92A815445C
:1001D00054F2D99552289F8B979E34F0441B51417D
:1001E000208266A8ABA091C9ADBFA41E0EC2BE7688
:1001F0000278E7555964F027D515B4C4486741A182
:1002000031E410B90CAF4365F6C23860AFCE32911D
:10021000E9321F8F9E7EB35EAD3CAAFD193593D1A6
:100220005102DF59683A05505C575C65BDD8DA5910
:10023000F297422CE3234B8A62B82A88FB159C5D17
:10024000B940AE05BA7BD39124740015535A527944
:10025000EA6AD7261E6507676B4FF13135F9B66537
:10026000D53022EFCFB101923F6C3915EE6BAADF8A
:10027000F2FE6A9CAA3BC46ABBA67D9998004B7AA1
:100280005415A77DE3F63295E0C08598D4E5EC934C
:100290007B3AC64283759BECAECEA21F0F045A2355
:1002A00091045DBA65F6B237393BB1AE329DD901E2
:1002B00027004EF5B3D90E12FED752A4D9213A87A2
:1002C000117B6E751EA0265C25ACABCCA5A2765228
:1002D0009D55CF0F88745CEF095150783E382556F4
:1002E000D6230FA04826B205CADC6CB3883E1B207B
:1002F0000119325FC80C96D40DB50E2FD5008B2294
:100300003354B75481ED93ECCB68D996597474AFDC
:1003100050CE300414780D2CA711AAEDF17DCEBA81
:1003200085CB3D71F722D4BD8A792E8A1166783645
:100330006A3AF92437697964610A1ED532A448B64D
:10034000DFFE0AF87DAB693382A6B6243109D87C7A
:100350003D6418E6AAB9AE5A8175A5E7F5C5E5432F
:100360003D79F47585BEDB53CD8EE891F5459E242D
:100370008384FC953E684A08D20B35F43E4EC9BBD7
:1003800069102EB0B2B44C912FF4D17EE575844C37
:1003900038BFC86A69802C461D9B111331AE139D6E
:1003A000ED431148D8B0CEC578A507DE21205E43C5
:1003B00073674389E9C1295E3B2CAB45609D921C64
:1003C0001E7A758C949B23E70941DCBA3A3A95BFB3
:1003D00074451E08315E93713058E168C9B77937AA
:1003E0006A607211B0E6594C942F902D0036F5C614
:1003F000A4E41E5C4CD0711598BB09A6A5BF77C8B4
:1004000015712FA4C3609A56EFB8488705EC916A1E
:1004100088978F9C8AB571D8CC527A7E2D686DBC36
:1004200077D0525BF62D8841536528512576944E3E
:1004300078A4D32043DC3508F710B8E45B1AE84C05
:1004400088D60E395DE9CF4653F296739628BBA342
:10045000AC9C9ADD170A946EE9A77D0159BB9905FA
:100460006BC724551A22BB37B74BD637F12DF8A5E9
:100470008D133FC3F27BDACB4DC3094D506FAFD51F
:10048000A0A16116F94A67ACF5831EF9E5335DDC7E
:100490008B07501D14D5D15D3A426754A25F31D10C
:1004A0004E19B150B87489F9AF97B99CBB0F8E53F0
:1004B000CC068546F1A98A17646BB47E5A339E73C5
:1004C00010D7CB5EF6F7EB86720FC6204406209756
:1004D00083B96A750437BFF7EBA352E00B051EF131
:1004E000D610AD561ED4067ABC4C795B87A3117327
:1004F000510C476AF07427A3D32E3FCCCCF15DABEF
:100500005BBF7D05E442DB19C59BB826A48148008A
:10051000CF65DDEB98203FF4D3D774160E9219E126
:10052000B860AC2204E455200A86EAA489C10F2AE7
:10053000D1877761ED1AD2245FB9ABA2BACC1F6C18
:10054000286234833378CAADB2C01BF118672172B8
:10055000577A6FAA50197AF2104AAF53057D645842
:100560008707319F412FBD5DAFDFABFD536C8D0D14
:100570009C85BDF293CB32EF25358542B8D51CFC66
:10058000F7450D8BCF76833BE5131A21650954D1CE
:100590000158E2D37D8539908019C7292DA73D27C1
:1005A00073441296585A28D53D69E83966D8A7A5EC
:1005B000F9F515736A1E61D5020CF3F1625DC13F56
:1005C000D756A9BBAA9446E5EAF25C4F4D8F8B1C27
:1005D00010514195F9D8ECCB15CF9DE61535C529BD
:1005E00050FADE07885C5CFA83EF2929DC9DC3DAC8
:1005F000282F6D9A1E97921E22C3D72214E8DC463C
:10060000AB37EC513188D94A29B13EC13D49584BED
:10061000D0D68A951F3C545660D9131CD30381F061
:100620003AB0B6C0DE336CDEA3187F597C0ACDB772
:1006300007AEE36543C9D9D1AB7F071EA9BA6FCB1B
:10064000967402C0385A31A7BD5360EDB345A71860
:10065000D1B4808C1E581D460E701BF9E34F77B93C
:10066000B52DA6076CBC0609CBBAD8FB903ED323A8
:100670002E923780291BCCC46CF37DAAA85E94010E
:10068000EEB890DEB1D70B2E50B32043F623D1370E
:1006900014E73AE055ACADDE607BDE17BA11C00856
:1006A000741B1AACAC463F700CA2BB431F7E205F8C
:1006B0004DF82B898B21D38BCFACF5EAAA3F35803F
:1006C00066199B00D1E92267AA2DD62F00352E711D
:1006D000C21EF3DA0EC4D898B867518E9742CD2364
:1006E000CB2092F240F2FE1BB748A4F950B9C5499D
:1006F00061138B78958B67EF4C0B0B06ED92B70E61
:100700000F3D40A8EAE75C8890EC3AB64486149B1B
:100710006C4F82AAABEAF17DB0072B26ECBA874B6F
:1007200016E022B0AF54052F1BE4F7F2A10FBB3740
:10073000DF288349297678DBB24AA287EBA4A3A4F9
:10074000C63D8910B084CAC70BF056952927C0262C
:100750007A54646EC452FCE61CA6F23ECA6ED82CD3
:10076000D290DB693929C3884BF896D30B2C9A17A2
:10077000E6DF36593B8A744D856A83B5E59E0F9551
:1007800065D5AB7EB057FA801053925A35D0675C6E
:10079000852955259D55E8A55B8E5F4A96B75A2455
:1007A000664EEDBA4F153E3EA9CAF206C17A258FB4
:1007B000DEA28C6D5421A909CABAF7BC36AE820EEE
:1007C0000EEE8680D728371FE75B99A7E5DE08790C
:1007D00056924DB9B745F3D1D0C7285BCDA3389019
:1007E00087B26BE11494EC88854BFC2CA0F42FDCD1
:1007F000729AF60B8885B833F19A0B9F0DCF39C7E3
:10080000B920A711840051C177CC4D2AEF15BEF550
:100810004340FB872ED014D8296F83486FF90CB55D
:10082000AD8C4C92FACBE0B17762A82A6E7594FC3D
:10083000E20C49500510D95E035DF0659900571A26
:10084000475E3D4AF709F2BD39D1F51DF66922210F
:10085000FC84CD7F2CCD1914E3AB948857E56987D0
:10086000B081F22B51B48400970DEA66D0FDC73AEF
:100870001D8B22F9D15DC5B7DCD023720BB59D026B
:100880001821927DBE6008D1960C51F6ED8CCBFB01
:10089000873CCF008B63FEA2730A7B66599F1C4C7A
:1008A0003704FDA8EA88307AEC2E5F91A0D30EE4DD
:1008B0001099696E3A8C001EB29E2E70523C954182
:1008C000EB9B303320A0AEEA34AAC7D383F4762062
:1008D000BD2E2CF951670CCE31249A3AE7184E40C0
:1008E00074C449DD76E0409AD5485D97CE2B72728C
:1008F0005D0C062EE0A2F09B063FDC25FE8B4CB57E
:100900001AB65D7ED845E5807361BE0E4D2646461B
:1009100063BF0F8FA6A4044523B9CF9CAC80651993
:10092000A32B3082BF3060000D540492C159AAA19C
:10093000B4D25563525DF1385739B67F0E09B3D53D
:1009400077F26C012E2890E84BB2A38BEA35FAD7E8
:1009500083058700299C15C52B2E40C3FCD583AE8B
:10096000B035B095891A5BADE0251D7D0FF8311FBC
:1009700016731A2DB0EEDC4BD9DB048885381D7F49
:10098000FA39ACC6205AD07ADF9E7344EE09A184AE
:100990005A799EE95705509B19DC00E44B1C7051B5
:1009A000CD9B64D126F0ADE95C3A97F2050C883115
:1009B0000F4F764FD3D37611E0B8C74B4F18FED305
:1009C0009594A25068EE5CD49FA9BEFE18BF3D7FEF
:1009D0000CF7821FAE5ECE404C582F4945C9FCE84B
:1009E000B82E59A63029F9C0694E68F0E9B9DE0180
:1009F00046D7973C800B05B7215669B85A5667759C
:100A000027E4545984178BCD59F4C3A123E75E50D2
:100A10007D4E410C4E21BBB6B61BD158A17AC4B253
:100A20003A5EF1556CDB05480D73EAFCA24A0FD51E
:100A3000E6B764EEA95D3FE2ECEC0E275C9B065343
:100A40005F8E9692C6BC4DF36A2457CDADF205EA8F
:100A5000906428E8748F6DAE3B70F03C0517B2329D
:100A600086061554A490D8F1661FCA49D15B3E9EF4
:100A70007E23E6F5126B655CB0F7381FA518BDFD47
:100A8000A8D2D2AF3346D21F2FACE4E2599937D463
:100A900076C824304700D2A478197DE3F3A72FD776
:100AA00051F55F00B28EBCD175658CF4E768AC92ED
:100AB000D3484A54317073EF5D6E792F97E7D45C59
:100AC000A1C5CC009765029B45FDEFC380D7F6B367
:100AD000BD1F378A27D245DA53ADB1C022762365D0
:100AE0004CB2086CA12D91CBBBF6F4B9DA4AA05CEC
:100AF0004924E0D2BE1F4586B3CD09F49199DAF8B6
:100B0000604ED7558FECB380C450CFAD4D63C490C9
:100B10004C618C83E783399B082E7F9CD26A49B253
:100B2000DD8FD66B2B1A5402B6CDF9E462E85DFC7A
:100B3000A33246F778C20C66C2347D84DBA536F357
:100B4000DC2C32A2D5CD1953006264808F4BAEDA13
:100B5000FA970054D54BE9C2D02851319208973703
:100B60008E183EBD36E0884AC0C7390F9A5D01FD38
:100B7000D660DE1C2A9AE187AB5B510C6D3CA51553
:100B80002FD38D239C1F757A9061EE81F300BA9B61
:100B900022D42A68089CFE932F0F003C47E59F9CB7
:100BA00018D6FB99E1F6F99EFD921914AEDBB31F3E
:100BB00073B01E808E56CEADEBC0DC2AF34ED72C20
:100BC00029B5EA5BA3CBE0801649AD5939C12CB5F4
:100BD000EAFD10F259C15273ACB0C953690B4CB065
:100BE0009EEFF9D3D1E101D7AE876484F42F8F153E
:100BF0000172AB75AF47A53B653468CE57EB295DF5
:100C0000C6DBA36ACC97C4BBE354470B3CAC2EEDC8
:100C1000ADEC53A9BA89B48260602B3401A398AAC1
:100C2000B01AA6D862BCBB99CA2DE736C2BACA8927
:100C3000F144894235BD6E62445CA94C864BECE7B9
:100C40006231293A5D8AE77A3CCFC616002DF7CA91
:100C50003D29A2F620D2810536DE0404F10B6CEBAF
:100C6000F85D973E5CD5322042029C40591ACF195C
:100C7000982990CA0116AED48890579612E9A143DC
:100C80007A838339F4A468D1744C59CCEC62E1784E
:100C90002D11A7D52034D3CA440FF7CE679A3C7ED6
:100CA000B0EBDF66DBD9506C56E59B0AC50B6A9743
:100CB000E3092EE1A26F868E15A1AB50EC5AF7170F
:100CC000F3EC4DB157ED0ECED17D2B0EDA6204F46C
:100CD0008E80BFA62E6980972E7D037BF5703574BC
:100CE000AEAD6A572A28DB15C247EFB446E272E27E
:100CF000A02A72E703FEC822C03900C0146653124E
:100D0000E0B566D95FE666B3042BA288876BD95C31
:100D1000A365927139B3C1A61EE5086996072A5EDC
:100D200024F3B0715A6B0B05CA8707F863379F909D
:100D3000F04A7CB4DF9F8F34E5F0B3EB302FC3FA79
:100D4000659677BD937AC1AF133E9B6D3D6AA8ACA3
:100D500003B0BB01B041D82341C8781B160F0DE882
:100D6000659EB1FEEB0468A3423CF744B5117EF1E9
:100D7000C8AEC0963900A75D3219F246E84120C8D6
:100D80007F3B84E88AB2D7AA6C5F85062CA6530005
:100D9000F1355DF11ACFA59A02C989056C9EE291E1
:100DA000E839311B3E71F3BC8206CA000E084B7451
:100DB000B2C990DE9D0CE52E5CD0C745AAAC278950
:100DC00034B34C4CF9F9384B9F33C7DF95B9F0D1A8
:100DD0009AA531B7D0C33956BC05C16CA0BDD1CFDF
:100DE0002ED8F8BE14A62D2610583C439FEB14664F
:100DF000940A109B0FABF5E6ED1B5C56860EE49C47
:100E00000CEA193906DC6A7D844363FDBED22F0AE1
:100E100012B0B9BC719511B545BA1AC188205EEF00
:100E2000511C3EC87C82AB95762DEAD495F41763AD
:100E30001C02781A5A31781D4BC0196F9410C9DE04
:100E4000A86D964FDFF6D65D345B9B6E682916035E
:100E50002E5674239878DC778B43AB67459626949F
:100E6000D1EDDC9E21FD2EBF83E958F8B0A6C01F4E
:100E7000707F77DAE125A4998E41BFA3B2C913CF61
:100E8000DFA88BB8A5B30F8927E239E09CE9488F2A
:100E9000C46305BD54F25AB3FD4F4F03DA67DAB1AC
:100EA0008817191264E6F7285B0D2789B43A37CD05
:100EB00024D82B2018F36301C2837E0AB79222EE56
:100EC000B0729E13A23D5124045B81ED8454AAA10B
:100ED00068BAD8166EC1B2F800C5B4B3F5B8C95B2C
:100EE0006ACD564BF739E15CD15956FD17D5905C68
:100EF00093F5F41F7364ADC689BCEE1B4EA6710852
:100F000017597FF1A588BB5D7ED265AFE37A0503F3
:100F100001DA127E7775FDC1C6BE94CED46FA441AE
:100F2000CCF035F0E7FBBA58C281F2BA680FB06571
:100F30008E6128ED135B2740DECFE39667E533FE35
:100F4000CE1B60A1F29ADBA64C965965934C8BD0D0
:100F500019800167E953965FFED3B72D2FAA97F941
:100F60008467C4A836A9CAAE426ECC077CF6CEF917
:100F7000A62C628179F39689458D0DC5C26C153A10
:100F800052A51F24CB424C59544A67019121663126
:100F9000853EADBC6AA0C6507C1583E434D5ACABAD
:100FA000E632114CC38F78A109D035C3FD499FDECD
:100FB00072C93822EE529B46A9DAC677EF1D05B4F6
:100FC000603723585977637E1B9F22DBDDAD5D4878
:100FD000E0ABDA2BA09AED8F90FCC421B1A4A03233
:100FE000E9E5DBA3B3B0CA7C8342238642BE2181FC
:100FF000FD8A716E7F5F759E789295B716AF7A897C
:10100000748C0CEB6F927FCBCAB5A74AEA03EF034F
:101010007F19E4E9FB7A4ED08BFD3A3CECF55FADED
:10102000C75E1CDD54F7B71F40499043EC032854BA
:10103000024C1CF1A3A169945707F97EE51E0C31FF
:10104000E6015F80269A4EE4A2B28B721285EDAE65
:1010500033DB44F9BB440C432CAC2987F75FA28FE8
:10106000C0BD2E231EA160C37193C3D2B37E42556F
:10107000B12CAD5C20DEFB5DDF21201F9D5A8B2F44
:1010800007AD1405D435E475609AACBBAB416CEA8E
:10109000926DB249155C30970F9E0FAE93602E464D
:1010A000208E970AA8874B690A26D3E94254686CB8
:1010B000686ABA5A6EA3B54F8768F207EB36777B3A
:1010C0000EA81B0E79D5FDB2B267D8A832E65CC374
:1010D000A8E6713BF0E69EC8D4F0C48A6200AF5225
:1010E000B16B3458995CB88C7DB5855B33B81D8E77
:1010F000F9185C7A077BF147C42FA6A91E59781608
:101100006DBE4394A49CDABDA9D46D89007A08B061
:1011100018B72940A9EDE553D007962F485F923EB6
:10112000410E7E035603ECF109F276FC3E25E924DC
:1011300070C9D23EF89546ED32C70555EED45F55DD
:10114000DA1ACA20228BD33C2FEEA8E537E6B90085
:10115000A23E13AE661BE400EA6EB3E121C3B1E91F
:10116000A008ABA7AACC4F7092167B7A5E37708D21
:1011700012E14E896D86BF3B12D6DEA87E4FBBA919
:10118000C90F563DE7BCFEA01600AF147B5513A750
:1011900056AA0A6B63A83E296D19B22332A1E8BB97
:1011A00083651F57B76225E2A30305355CBBDF32B9
:1011B000DAB1E78B3DE11080F3F4F92742DB6F24CD
:1011C00049CA25E11350CEE9EE8DA62F97A898C005
:1011D00038EC3558CFB936F14ADC7A8A9AF5D3DC47
:1011E000A550D9D9985B780A1E8FBA6FE4F5E078DC
:1011F0004EA56838F8F8FD22F0E971B04BC493CFE2
:101200003F7BA450B9A31E272390B6466977CA2E08
:1012100093F61F45900E074E5FA2113D4A3B025DBB
:10122000679436C8985F5851A9EF8EDAC3D835D382
:10123000C4F2886854A094C4604BDF697FEAD5C4C7
:10124000D0DCBF5AF528E59B56E6E4BCAA901D30D9
:10125000EE2074CA6299817193824EBBC3D4C125BA
:101260009BB95ADA478E11DAFB63995AA03F9ECA9E
:10127000F9F9A691A5B42F5A1F1E068DBF173E631C
:1012800062C00E3D160CBAB2D4578889D1423BCF0A
:101290007C37B938002FD9CA2CBC349F41CE0C08FA
:1012A000E23E1C25F1317A0053EF485FFAB9931AF8
:1012B000DAA0490E34E6FBFCDF3CDAE7318E9949CF
:1012C000CBD8B1D345F96A91D984F78925E8DC00F8
:1012D000CBB0F6F45D5F8D2C52E307D348CAF979A1
:1012E00049F8CDC51712044DA1A3A8CBA3F6EF90E2
:1012F000D0A24F87C144957B8F6268CD0F21DCA8B7
:101300007E8539CCC61B81FDEBDF8586A390DD6E23
:10131000FECE9B1C2E92252A4508E8AA3D510D8C35
:101320006673CB1384D8D516D1666D0D2D61F4ACE0
:10133000A5B7EDDFE3BB09EAB25033E765105FD331
:101340005062610B002FD0338081EB9301EA03B22E
:1013500057784DA56701DA2D7EC1A0E2278AF235C4
:10136000460B6951A095D58F22302EC10FB3A460D2
:101370008D5EA26CA8868F53BEC71CA290751C20E0
:10138000D928C7DED08D00EF9858CDEC2D687209B2
:1013900095AC23FE7AD46CBE59410964D10B8BB154
:1013A00025890801B654410E62A93AB72AD17817A7
:1013B000E0251E20A132A6E9CB9AC5BC7B6224742D
:1013C0002A41E4AE4FC12EF88AC65E0F264F7CC676
:1013D00009BDF4B6178FC275863CD1F04E31CAED07
:1013E0001F304CAE9ECFB8269E93F30F45C1416788
:1013F00053E0CCE949E5E798091CC0CF653407E321
:101400007BBF548E068BB4C902F026B477113CA082
:10141000A4C3B089630C4500C8A889FEC286507A6F
:101420003647D967DEBAE4E0DCB4FB6D616351A3F3
:10143000FEC7F0C1048C878EFBF22D269F32C72297
:10144000EA3F1100FB6E22EB17F3A3D314BD6FE14B
:101450002AF55BC9B6E7D09AE08B28BF7C22D2720E
:1014600083AFD84DB1A4E0CB85286A4E9133D61E08
:10147000FED65BF20B9A8967183F6F77F7EB953CC6
:101480006D5FB61E1263A6DD5083831B38E5006ACC
:1014900067F01289EC5FA5576F7D63EAA29FE10AAE
:1014A000FA81A269509E8B9C9B964335F3B33CC452
:1014B000D0BA5C375F3424AFB8D87086C975A8DE5F
:1014C000A56EB1B21464EEB004FB8817A5E36649BB
:1014D000478335D39C95933002BCE6A18B4521858B
:1014E000F3241FF211A1C260771D69CB74E5BB9193
:1014F000B5BCA1BABB5785598BB9FDEE514842A482
:101500004D7B203D3FC3B3921FB7453A0995CF535A
:10151000F5A312CB5935C9F2C79C1FAD922DAFF47C
:10152000C376CFA263DB9E75D96169645F89F79842
:1015300058323CF68ECCD7B34F271B51071357A612
:10154000E9F5C8FB89278A9A01301BE81BDB57F9AC
:1015500031C27B54B382803DFEB6BE599DB7A163B4
:1015600021220A1B1134CB40521D875873008290F0
:10157000D3FC6AAB5B338BB747E3F242411BFD32CE
:10158000B084D0F0FC74E37E19008CCB7A0812EAA8
:101590005870BE51628850AF9641EA647AD720E015
:1015A000DE916EC7375C6FD5E66E5BC19AF674D27A
:1015B000DAA615A29855661D057E70E7FEEBB78B7F
:1015C000A50B213378A31BD8B384967D3498D31A06
:1015D0003C3772A3462CCC03B92BC9DFCD3A7B4CE8
:1015E0007F14E2DAD67CD8D552CC84511A5B7E4B7C
:1015F0006A840246629379B383E8D74B06AAD88FF0
:101600006FA872327F013C00BA5D731C2DCB0BD1E9
:101610003A0282757A1AF9EEE4D24DB433F5A0415C
:1016200041A1EE510B758111499B999DB82F472E11
:1016300090E18D7C4A8F32C07DF1EC729B9583DF07
:10164000E7910054BD0B009A7C96D99E9BA23E5513
:101650007C178CD71C3EF78F1D88793F7548F8188A
:10166000747504854EF4B02BDE5E05CDC62D0808DA
:10167000AD060BA4432C4379764A2E19CBD67A506B
:101680005C7D4D33E3FE63048A021E870B5E2042BD
:10169000905D0CE5D46ED074D835793C10A9AEAA13
:1016A000513676AD6D584CCC9AB207AEE6522F2229
:1016B000A90997AF2F9312006F8DBAC2683A01A2A1
:1016C0002FE01C599CEC5144F6BCD061CC3585F31D
:1016D00040A5C925591A17606F4C681D8FC5DA5887
:1016E000BE7F7F1EDB481BE5D26C43CFECA90EE228
:1016F00014A209599D1B8496919B102BC7B0A51E5F
:10170000517D193062453431BB69E3E6E216691A4E
:10171000C3518DF886F39C33D48EC2FA69DC00FE87
:101720002EEAF469E483E8802F6BCCE7BDD0CEA32A
:10173000C0620121AA9B837884A326932AC9D76417
:10174000B35775929FDB2D308DB4C9490CE9983E93
:10175000A765395E5D3F0041C8F234C2896E06BBA1
:10176000EC320E9D9C46F004D22D9201F1919570C1
:1017700093FE5EE5D96380E8D6F73EC54B25582435
:101780002BC687E50E99F974B3F012D6836C6139D4
:10179000AB2B5FB1F7C98B821ED9D2F325EB9A9A96
:1017A0008169E4CB99741932C67FF24E378C87C1B8
:1017B00052BB57C00792EEB7BED392212AB8355A12
:1017C00018D6891DD6DC136451F4D1565881A5EC86
:1017D0004851664AB74ED2A280CEF4DC298E87717A
:1017E00032C0548FDA189A7E945410E9D2BC4FD884
:1017F0007BC7618B2A740F77E0D999000BEAC3721B
:1018000018B63869A9C71969C5C1890CAB147E33EC
:101810009565580CBB8AF0711E7B1230D8D82B0509
:101820008D65BD900EF4860D06CC6B18457B749FBC
:1018300082DF7F00E92563AA5AF108AB2F5AAB3348
:1018400040CEFBE6261B329543A1047AF071E2A458
:10185000661C7C32F8A44BF5C6F2F147FC4409340F
:101860009BC468F333324D13004DA683B8B9A77CEF
:10187000BC600E300860067A3CC1723D3DC8B60DB2
:1018800076E1EC40F3DD29003F75A4607D4F1696AC
:10189000A3B820065F6069C33E00DCEF1C0723D4B9
:1018A0000B003B7BCABA330B13353CBC0AEBF192FD
:1018B000F27B3685603F7CEA8E67B4A31C25AB3D86
:1018C000F938514EEED9E0B34670AE2266ABA19D19
:1018D0006F29F0B5525C63D37F1EE635C945A5F983
:1018E00037007840238A74333F4BF046C86DA58D8E
:1018F0002037DC34706C0B553A252E00DF1C620B50
:10190000E36E60507B42B608C405AE4351F6F56302
:10191000001B43834F0BC223C73D2E706B260E1A4C
:1019200059EDDA3EF30D47F8E5DCFE04C1D69E24FE
:101930001C083F4628C07614AA93D9FD3E0B5B00D5
:10194000E134E334397B43A79333F11E60B76A2552
:10195000FC0D2F0912DE1DE92AE92A564093E00FFB
:10196000394CAE57B0099CD046B5ADC7E481C19E95
:10197000EB2484F1E49DA2AB70104A639C6FC15EBE
:1019800067EA61A61D397D50606FD856A95E698AE5
:10199000CF62B59F1D7E95CF600FC6F85AB076AA6C
:1019A000BDFB5CEEFA77A321EA5D296B76300F5C14
:1019B0004DE08A889BF83C9536395CD5FD94183CFF
:1019C00091BF3253BFFAF9E375D07BA913941BEE94
:1019D000F7594BEB771D2CF70EEFE0FB28942345CE
:1019E000DED81A3DD70E6363A408A78CAAFA43BCBD
:1019F00074485C9386247CFD864F8C802E738823EC
:101A00006FC5BE2E2910EF5E304A0018AC047CF67C
:101A100080335631321F8B2F7F8F8D7B5A69759D96
:101A200039D39D5BFEAEB112910A1EF97800E358DE
:101A3000291210C886927264EF704EA80E925A2432
:101A4000E71004C6233D98AC7CE92A5607918CFB2D
:101A500099BF4CF4040E035A92E64D208B8026E287
:101A6000EC45AF1A03772D3B96D6DC65C50F27DE14
:101A70003C4A2F875D9BDC504252AD636AB7D4A8C5
:101A8000CAF2E7647FDE7EFB36F2B5E64CFEE4A0E8
:101A90001E8976B85BC3D356F2D5D7412DA21B5809
:101AA000DD8705CA9B4AED971282B927D4E5AB269C
:101AB000C27EFE7B419BEE543909CB1828B93936DA
:101AC0001EFC974553BD720E364CB65A363A2967FE
:101AD000EA87EA955A1C869C2C59F2E5F72B1DE6FD
:101AE000D0765F22D39C9BD110A77EDBA1390E69F3
:101AF0008A76A2079F961BD3971293EC33D1B79B9C
:101B0000518DAEA6EA0F73262F02542CCBA4EF30D2
:101B1000CF62139AA2AD25B1EDD6D5A23C82007654
:101B20001BA30168918E7AB529B4503C4E4AE5B2A8
:101B30009F675C2B40F434635DB054B83A111DB11B
:101B4000269C2417B2D2509B8BBE365E0DE5D52C59
:101B500078C4BF391A3C198629601F770400CAF877
:101B600055DCCD4F0DB3F006F6DB8063A2C0410A11
:101B7000D33C6FF21098930393656207FD4ADB5ED6
:101B80001C055DEE2E774070AC276266E69A111454
:101B90004FB565F7475D960B22D3045FB6FE8521EE
:101BA00043521D5A75D8097255E998ECCEBA623382
:101BB000163B855EE5F7166167AA683AC17633671A
:101BC0000042B2C1C13F1861348FC4138EAD0716F5
:101BD00031C0DC7675F843D214D933F1D60EFDE866
:101BE00061A40ED4A647D09FA16472E0B6618FB005
:101BF000214386DC5F7E54CB23CB4B2C31879B87E4
:101C0000D2F74F5EE697B34BE8F0E10497821E23CC
:101C100035457B00F57025D0B74EF331C3CFF46561
:101C2000E86F5CC07D786951C6F57E7C87E049B974
:101C3000391B87BA267DE65084CC0306D7C8194BDA
:101C4000F94093475D2C1189F41CFE3A5B1506A1FF
:101C5000A44E126F65F6AE2BD3E586B4F4A0B57230
:101C6000F372CE998E2F5790BA8424126B1CB8C988
:101C7000ACC30B1EC23D1163168AC64221026FFB24
:101C800078589A25707171359EFB00906F5E5E608A
:101C9000452A1FACE99BF57CC0406124AAE7A72137
:101CA0002783ACBFF092B52F2B97799E6B07103C22
:101CB00084F518BAC80868AB62529B7D295DFB9415
:101CC000BE67D1CFD7065F33CD1311CF76E654E090
:101CD000797FAC07A4353767CFF3DF92746AC2E42B
:101CE00003D11377D28D4EAB1666F9033CD7DBD602
:101CF0007155EEEE6DACD97B4E733E99EEABA23AC8
:101D0000B23CAFBBCF77840CAB2B1F19642E286875
:101D1000D3B03C7B93F43F733F25A4873DF66757D0
:101D2000CD8B2E6C1B5CA53EB2BCD18D0F88502D87
:101D3000775D72A84A277EEC2F5B7CF7CC9818DB86
:101D400043F76C2059F9F9ABA9E71A693E7E810483
:101D50008A40CC0007B75F34465CFDEB1B95578A81
:101D60001B1442E8C8654BA0C792CDC714BE135AD6
:101D70004754C06F1E589CDFDC407FCCD27F732756
:101D800036113B239360B3609D664C7D331B677EA9
:101D900035BDF46A4E3330BC12DFDD6032C4C0FEA4
:101DA000A4A5C8DC28C24F0F5FC976E0B2E48866FC
:101DB000BF37F11F57C719E33EF16B552C92B13E67
:101DC00085628A35A6BC19576BB27DAE4079E44274
:101DD0001FB81C153A5A4C1BFB7733DEB14D95E00A
:101DE0005930CAAF2A3101F70688ACB8BA99D51D67
:101DF0001F5612C268406B1F174E18144672EF6AC6
:101E0000B6FAA392A2C3C44987588DD75F08810848
:101E1000151923F8A254EA06DAC5EA52F10A8CD25F
:101E200097E41D6F5BD6C4BC75608871B7890D5A85
:101E30007F8B42B58B5B14D26D091F13E9860C7D35
:101E4000C8C64E0A542943845FA82BB15BE30CF843
:101E5000EC8982384F0114C0EACFD7A266364374AA
:101E6000AA9D6782D6C53EA8E49E1FA29B6C7562A0
:101E70006B88FA0A62477AFB76AFC7E3E1BDBB3DE8
:101E8000408C6C274AE5E48E4F489EBAF5380A9894
:101E900050C9412EDB81A4D18ADC42FC7F7BDC88E7
:101EA00082C501B721C1EA549FAC1AE4E3237DE463
:101EB000EFEC998818A02A2DBFDDF918F8229F822F
:101EC00018034E8DCC54FB69EFE7C0EB1F29C852B5
:101ED0005D02A205CE3C82844B42230125C7A6EEBB
:101EE000C972E46AB190EBADA1BE3A25979DBBC023
:101EF00008C65E326D23C56672EACB3F661FD236D6
:101F000003CA714462A1F8D4186B3A312C6F03C232
:101F1000005071F2728DFA77652A4CBBBCA1C9BD25
:101F20007D9F7735FB9D263706E9AA61108106194A
:101F3000E0A90FFDBE658E24918D04F24A9A36A465
:101F40002D5CD58AF10B3A1DA85A1B90F57CC69ED4
:101F5000889F4AC6A114FE2E848D10472C4A5687AE
:101F6000B38B5911D7F394719D43AC375F9FD8B5AC
:101F7000CD6D61E97B5445AAA43CF6944F0BADFDB1
:101F8000C3CC7A654F0F0187DD12903C5CCDA0BCBD
:101F90007751FD37DF9E53536C7C2E6F61C8A4715F
:101FA00016C8CBAA5645A2C0B820D38ABD674BCB72
:101FB000379BFBE0E7805116C176DA6FFD2094F085
:101FC000F30A95B689A9A7BE313B6510CE4C4D6D7D
:101FD0007DF023FC8432BD7A8A26276D55611EBFB1
:101FE000D615B46B26C02EB313E5B02696E3249025
:101FF0006BD31746B6D762D51A4A8BA1588F87F490
:102000004ABFA910145EE6ACE4D7C86C7511280D60
:102010007C2649A62C44BF4A7FB7CF286556E3EEFD
:102020000092403F5B6293707C91CCDFA96581CACE
:10203000AD679600A6298345A34BBA96B09B92EE56
:10204000C8D3601C630EFE6610BE4870C6C7C04D84
:10205000DB5151ADC32C40B6FD4A3C872699AD42B9
:1020600047383E807DAD203C39405E830925891488
:102070006890183210C06C48C54BB00528CE06B821
:10208000D0B0BA70469F9ECE1C94D770743225355E
:10209000528D41CEE3FAC40C565FBEB457AAAD9F31
:1020A000D19C16DB1798C9C4D4E039E110B22809D5
:1020B00025FAB71A9B2FABDAF094E2404D00A7A0A7
:1020C0003A0023530B27785C0C3C6886E8EF31CF4D
:1020D000BE7C991B3AECE889599FC4A774E0782F1D
:1020E000A806C78C45D2A5D848356FF0E7F1DC4289
:1020F00044CFAF9387951EB3E6B2E5721A6406A883
:102100004787D8678BF6623FAD624E7840A241A701
:1021100003D6BCE9DDD117BD8CC5765593D6774D76
:102120002E1C9705006E5EA13359C791D00589FB1F
:102130000BDCC39614A43A99C287017B9CAA7A0A45
:1021400062556742D51363920E0C22FB206E2A8AD9
:1021500070AC38867AE323DA87CB364B23149B4B5B
:10216000261BA81D71BDBB5EF03234117FE67E9840
:102170002AEFFD04774C3E766C44A172D60289D5D5
:10218000643FFB5D7660EACD6AC3C880188483B87B
:1021900083D3D4099CDA0763EA9A1614EA929BC99E
:1021A0003E9D6A4929F41D8FBEC70C5777EF4D2815
:1021B0002FB28F7F24D254737A86B2B93891E068F7
:1021C000354BB06F33DC3006422B38E146037A637F
:1021D0000E2E84A15BB05DCD50FC3C80B7D4F6D10F
:1021E000D78BE983A1BD2341A57800C7615A683622
:1021F000758CF553DBA483D4344B173D2680447F84
:10220000872C09002EA58A3AD19306D60A08E31135
:10221000D74093F1EDF8F964ADE70B8D37DFB6F8F1
:102220005B58E0906D502C1F6600416A75170933AA
:1022300092ED2EF14C2A59A439C69433FE17353C41
:102240001947F984CC18F04FF7FB0E6096DC17EDB8
:10225000EAA195EB19D962B62B88D5171CB12434A5
:10226000F7DDDAE2CE3F9CBF725506CF93BE335600
:102270000454B3D87EC4EA2E407C601BBB1515B154
:10228000DE0D91FD21FD8AD7781EF72DFDCAC34CC6
:102290008B4F477AA1DA57D3F6DDB0ED8CBE61657E
:1022A000CCFB851F54D7E5E1C23EF654B0304B4617
:1022B000E779F3101A13827D747746E0DFC06F6C04
:1022C00089256B999E78C2DDC154FE939959014EC0
:1022D0002071ABCE9CEFF2EFD8C0DF5EE6249625EE
:1022E000378CC838B66210C62F532727701DDE36CC
:1022F0000967AC815F245F822A770E9CD771FEB795
:10230000AD5B895C05CB60B108AB8124A4BE319183
:10231000288AAFE44CEC46574A7EC27A8C60285E2D
:10232000A77F528DB8912E8D88F4996391169FC026
:10233000EF3E40397FCDB63837952FE72D00F219A3
:10234000D7396D9DAF289F48289333762E3B0D8655
:10235000690FB3AD1BB5B377E8DC3626FBFBFE4C4B
:10236000EFAE921EFC23CAC322D757D53099E0EFB7
:102370004974F44285246FCD4D28411B630C0C3AFF
:102380009EE419376757460409757B8AFA99A9B5FF
:10239000C2049D8F8F268F39003D612B9F4A6D0FA0
:1023A0000ED8CC3E3A9EEE1EB09697E4F555E1AAC3
:1023B0009CE50ADD1E25F0AD006278BFD9B3ED259E
:1023C000347B5AD4351F827E26DBA99329C3DC25B2
:1023D0001907F8B7453E9F596149E589824038178A
:1023E000A73BFB05C0A9E8C3DCA84B3770A877A0C2
:1023F0004C74CB22E85EA88745690BD2EBCE928461
:102400001BA893BE972BFCCF656FE8E1572D27EEF5
:10241000A20ADE7112E6B7D15080F67B168559D537
:10242000102F5C90ADCE3D5AB0998F80D46951DAAF
:10243000997A5E202D386B456A00E9408A4A542318
:102440002EB994A849BFA0B0DC0FABA7B19C7174A2
:10245000F6B1ADBDCEA55B50B98B33CA73BBA33407
:102460004E0075D3F210959CADAD4771226FFB6A9B
:10247000F579A876F9A35434C57B03FB521BB8B693
:102480001A94697279C8F5E58597C6D44A0D5C43FC
:10249000EABDCB86302FE4423BCDF5F5A4813A80EE
:1024A00088A8505B8053579B2A793676B5F4A047AD
:1024B000098D612283929BE91D0DA53D704CE0E9D9
:1024C0009E82C905F1E3D597DCEF057B87DCCF451C
:1024D000CABD089834CFCAC7F78CA7BF05957F1629
:1024E000F83E77D9012A48E2A7656AD862ECD2FEA5
:1024F0005EFEDE7EEAD560DA45463E738AECEC4F3E
:1025000098E9533E4B337F215C1D00E91A8AD73985
:1025100027A7817279DFABAF85764E6A18B15C77F9
:10252000E6D7B638E5BF8237D35EB16BCB8D60D4CA
:10253000D28188418FBDFE5979AF8497A1C486E3CB
:10254000F4528948DC8F334F4CD263BAEA4E57E9D4
:1025500026EAA7F763B9E7787EEC0694423AC4C648
:10256000CBDC010615FD923B68B4CE68499CE2D5F0
:102570001CE41DADD041CAD508E99DD94B5DA2B57B
:102580001F0BDA844869EFDECA5146360FB00E6180
:102590005C964C048D1A20F50E537B019DE668A7CE
:1025A0008751AA4C642BC4B2D5EEF636DCBB9AAF89
:1025B0001855E0DD90E01C5C0804EF661F1C0698CF
:1025C00080F3E9F3B8691E77D479C405A407A48C15
:1025D000A62BB6B0D4CB517F8F10BFBDFC436DD9B5
:1025E000FD22340D07A2CB2DD863FBA3F3F88F0790
:1025F000ED9815D1EEB71FB816D4D46E373DFA8BCF
:10260000D89C15F81200A6DF0C951076E34FF1DA8E
:1026100034FEBADC0A3991E756A29CD6EAADED9FAA
:102620006B793CD9904FF558DAA4EFE2E762339228
:1026300036BE83794277100F43389666DF2E406BA3
:10264000EAB5DFCEF457313F71B86780B919AA7285
:1026500032259A287BCB163A472F83B266BDFC20E1
:102660009CB98DABB7E929F6173BA0E99D87130B01
:10267000167160C379CA9D23B5237333B35468F7C9
:10268000F77FDAA4D1F2F9554F09A83E3494AF6F21
:102690001585453638A67F6F318D3849C916C0AAD1
:1026A000AF6A83E694F99E095613CB2C1F712D1A3D
:1026B000EF41E4375844DA0C965F41D9BC20547C92
:1026C0009B48AA13A6C9DAE4B727B704FCA8F3709D
:1026D000DCE73AD0E765B27B74CE8AAC7C93E36FDB
:1026E0006A6DB92A45F033A76D48CE499D287BC055
:1026F0006706EEFA2C3A117E149BA86B406A01F82B
:10270000AEB07F7A6D5C4ACF0DE4642D0770E0F3C4
:1027100090F84157DB4FF70BFA00DCC2214A599C75
:10272000690D08B226C7C5529C8B3515FC9A19ADA8
:10273000F444D999B0F5CEE1F405D77150091604E7
:10274000D2F8C2C6E2EB6700140393AA47163B7F98
:10275000D8CEDE8CF155BDDF16846B3604C99E637E
:10276000CA872042909CEBED97655380E88594D40E
:10277000F556FB3659881A62D297BCCF0D10344EED
:102780004E1E0B193E665234D4A07D8DD24ABED661
:1027900056909153933BB15E56E4E294743B749F20
:1027A0002E0C807BAD2A6412C8A2FA02FC017A804A
:1027B0009885FB7687EB5D6B005ED8F2C0C626116C
:1027C00076407BFEA7EC9476734776C10162326057
:1027D000220B970926C63221E8D79437F980434F58
:1027E000824E1A3FC788A8A754E02058B34DEAA3E9
:1027F000EFB1FB6724D1A07C8C1D72264910BCD29E
:102800005B4C0683AA46F4F8C3F928CEA49AAB6AB7
:1028100019AB255AB37CF3FD5181A1F7065B7718FC
:102820008CAC22C0C5B58E7447667E48BFAF626C63
:102830003A7FE99EC55CFEB930CC9AA2434088D06D
:10284000FBE0286184E5B9C4EAD9DF0431459F1E65
:1028500098E61D2FFD022087532AC2ADEF4FEEB43C
:102860003190CF79F0B0F8C2D12F463CF53CE60963
:10287000AE28411EB24A7DC08B176E2CBF2FC56497
:1028800086690004BE89E206673B7768DD7D74884F
:10289000C04ADE9439D6D49C4726842BDDD4957A61
:1028A0004C21499601950AAA91858F132C0010EBB3
:1028B000B7257DA297C4C53F668E8E61F463B4B41C
:1028C000911152A8873FA6EFA88684A79920E163BB
:1028D000AF55A3C2D8DDDFC096540561E2889DA143
:1028E000020D7FCD42BB3F2659831C2F38F28FC289
:1028F0005E4776BF9F71AA1F6583B868B34F217189
:102900009326F47947D002D48B40DFF3452DBAC724
:102910001B1AF69728C4CCB3B0A77F98EA087DF5B8
:102920003BB089B378312FF0F60AB6489B8E870FFB
:102930003B447083777F680743B1DE4AD5C063C0EC
:102940002951AC325149D2E16AD3008B1B8DC42787
:102950009620185B34BFB65C8C8F827A63FD976BD0
:10296000237FC12FC902C26B8DCDD6D31918EB05B9
:10297000095100E64E8B5B1E042CF2310B9370184C
:102980004F49A1D1F80DEE4A0506D0AD53504DE7A1
:10299000DA814C7DF594890CE1E96B257BEF4C9253
:1029A000DC37CB4C508371E07FD610CD1F04DE0D99
:1029B000078D6D2E4DC927A61B37574BB3342330D7
:1029C000E22DD87B6309718E01B3CA1B4FF1EEC7AC
:1029D000E0161CCBC93E232436D1F00B9DA996CF1F
:1029E0003F4D0F4B51EE3603E02360B714ABCE974B
:1029F000FD0092AFCC2FD96A9354164F5BBED357CC
:102A00005243A5D2FC96A2668AB0DBF5DBF9BCDCAA
:102A1000AA3923627BB8CD7D7BFA1B734C3065A746
:102A20009BC758AB16ECF2E551385F7386AFCEF317
:102A3000919831F731327C0BF37A25404F99838599
:102A400031A6F03BEC4C6336B9322064E84AFB987F
:102A50005C0ADBD8D4D8EFAB579D0185C8A33640BC
:102A60000694EB2FD350FA917E54F63D283FF90798
:102A70008B5B5C64A320946D16FCD602A9118CE3D9
:102A8000B650663811960506B594268E188BD40577
:102A9000056912368E83D6C86625B5B6C715455961
:102AA000B68F14BA469C9D5AE2B92E81BA2B8E611C
:102AB00011125CB0803E3C24EC601D8727B946EDC6
:102AC0003DE562BD052ACA53020EB16688165E4E08
:102AD000F3C1E4C44463511391A979A58CE6D2DB18
:102AE0002FEC95EA9B91DCECC042787F00F504AFB7
:102AF0009BF6C36287AF65EDD0C2E0D2BC55CC3047
:102B000065A08512827569D4A304545CCD20E59933
:102B100000A75CD0CA6F65A3E000FD31BF38C5C215
:102B2000FAF56EA3330D176D6C0CD5B6027D0B1A3A
:102B3000642565DCD5C4487ABABA1C24920D06F81F
:102B40007DD30A74D4975C526D1228FCC605136BB2
:102B500086A76C0D5C1F98AC64732D24872A6808C7
:102B6000CEFEC078A42700CF3A115D5AC6A3CE7E10
:102B7000C8DB28B1203677854EE23F2F674592D2D9
:102B80003B22E6F6AB43973E0D2CC525D4929273BB
:102B9000C7E7E7BC819BD53ADDD1512F71F3496678
:102BA000C7F9A726DF7B6226BAEA30A9341372EF91
:102BB000306AED18CD2089EA7D40F359E000D7A4B2
:102BC000A0A1788C77D829DBCBE2EF8E2131E4E726
:102BD000700519F7C961F1D26A196BE166651730A2
:102BE0002BB534B276B76C95993ADE3F0F3DD4F0F1
:102BF0004D8C86A8ACD7B10AD816789DDCE8D9B43C
:102C000080A73B951955C974BD9631A819147B5EF0
:102C1000C2E180B251B8535519BFC66E3983F673FD
:102C2000C0F6508D16033C7E8CE0B69EB9415D77B0
:102C300095351B49E42336D46BE3AB9F8984E3F6D7
:102C4000967F8EB4FAAC5D8ADCE96589CD5A457110
:102C5000461B338FBF964C23B2F39673747394C79D
:102C6000987E4F4CC1E84F9CFC4CCA844B64FC9648
:102C7000FE94A23FD255B4DAA68633F1F91D876ED1
:102C80007FEE8B32E9002DFC5AA5D7051B14563E6A
:102C90009B116E476B011BA3664EE378569000BEF6
:102CA000CD38CB47920C728CB66D236734E69F22E9
:102CB0005A42A27ABDAA7E2B5B08BAA996F12E00D1
:102CC000E25E3AE7238F183242C7B0814C750F4E4F
:102CD0002D588D440BF6C257CE45C3F6537AF400F7
:102CE0001049A01FC7930EB3D9757999D55B9CD9AC
:102CF000FC391A8B8F443A39D57D32435BBD8356FC
:102D00004DC666819B0B29E8954ED61E19CAF681E1
:102D1000DF77D7C9F6525CE104DD9FFDEB1A14B4EE
:102D20009040956BAF274FA3E77AB51C94AC8A58B7
:102D3000C814F1A9DBBB1CA357A30F005249FC0D1B
:102D40005BE2C4E81E8744368E3035CE2F38718A58
:102D5000D11FE31BFAB7A918E74F203BE7D27F81C9
:102D60007EA6AD1045E0079530F7A7F194DD4257F8
:102D700077C7C0BF00546E56449B24A384C57E0110
:102D800077F10F5CF32F9ED9D0CA2DC0BBDD81DA5D
:102D900083D26615C0561919CD96E8F89E10CA4020
:102DA0004FA0CDC27D083B1D8BF61CE7EE1F7606BB
:102DB0005C6D2DA8649C291D7DF17E12FE8CE97A44
:102DC000E2AFF42BDF93D6F54B4A9762615895CF6B
:102DD0002BD34BD8F826E0A39E98B7F7969B5EFCC2
:102DE000BA84609BE0B643909BE03A734BFDFA9740
:102DF000D86F022C31667E0E880A454A2EA3967E35
:102E0000626634F29D954B0EF6E763656F13F4131B
:102E1000ECBD7BE1D0E23F69A0363A422CDDA1E176
:102E20003C63737855CF82EE566E0B894CCF092CDC
:102E30005720484BA7733C33611469E08FF8C16D8C
:102E400002164B889BB0F94A9A6759AABE24504B88
:102E50002D04CD8F0B56B1300BDB35009162AA5398
:102E60009CCD014FA3AA7B2FAD49DEDD25DDD462C9
:102E700034F27AF90881B2DD8A24917C94A4F910A5
:102E8000E0D2A8C763022B221D2218AB4C0D7C0A8E
:102E9000976B1146668EF970782D15570A3458B322
:102EA0004B33C5CA733CE2D2D2151E0036B990949A
:102EB000DB54F33A83D1043EA75AD84CDF52A4B175
:102EC000772FCA810B0A45D36F56D6BA9F93020C4F
:102ED000F57B56A2E7CAED9E8C00AF1F606506D851
:102EE000C8E76DB77058A6312FAD3665273F53AC94
:102EF0002C0EE227BA379D3B1C4CD0D8E409149E17
:102F00007AB509E67DD5C3347D35D250B6F581C793
:102F100085855011E60DB122BED2517709DC98E5C6
:102F2000E50A4D76E95D31BBCB55F5FD83F4A10D86
:102F30001E483E78199CC4628CD47AF11F21A02FC0
:102F4000A6507679CCE48BC5E59D8B15F2A932A904
:102F5000F675AA169FC5009E6A5A084DA28664158A
:102F6000B8582898C6136177F86F4340CF1652724D
:102F70001F4A36A533707E89F5600619F9B3B84F3C
:102F80000CAFD40512F39C0322BAC8EE71AD9F9C1E
:102F9000692A021BA30994963DBFA66015F7B35595
:102FA000B0B6E873E71C090B0E185CCAAB5F8096DD
:102FB0007296D3186106A4EF40E55BE5DACD12D630
:102FC0008D0DFCE9C79AA7451F49A5DD49645A5DE7
:102FD000B296A076CCCE9EF5A19A9E5B83941253B6
:102FE000264805174E69BABEF02057F3597E5B8616
:102FF0008A0700F1695DA3B95C5A765A65C33FFA46
:10300000A3CB541BD733C2FB66F6137146EAF08B91
:10301000D6F8A8EA094ED19CA957F8A2DFD058D01B
:1030200011AA8D58911A702321EDF4B91912D41BED
:103030002C7398BC7116F7AFA39A0068875081274C
:1030400073FEC9DB24DBEB2AFB5C4423845465C498
:10305000F48E3B538E2242F8F6775D2F7D2789AAA6
:103060002F262E5645260C64F50C345FE213928A07
:10307000DFB9B6AF3B3200AAA76A6B427308ACBC9B
:103080009E33EEB32E73230D4CC3A029FADE3465B4
:1030900096793E54D740999078E095DF07CB4B3B2B
:1030A000AB09AE2BEBE969496EBD99E5D7B7A31122
:1030B00011023258167E4108BBEDF1DA2A28E1C729
:1030C000CD9A4FEBCE0FB28742E57804E9608B20B2
:1030D00064261BFCF68A3162E5DE56559F6EA432EB
:1030E0008C8B9810D3B45D9F900FE9B7846E53D941
:1030F000791E199BAF0CA52CB39C82F26EE43E6145
:103100006BD969057C40D010329403A6E848E51ECF
:10311000963A131783DC85D80556B70DFD3B4495C9
:10312000B59C4457E12E48839A7CCB5C5E96D7636E
:10313000D4E161FA1FC5D01F3516936F17C623D18E
:1031400095F258D50E3F6F1C585A8A9155093D92F9
:10315000AEFACB4B89A922508AA1B31E99882BDFE6
:1031600055DADC33FDBB5E2FF04EBF4069404A8F1D
:10317000AA64D4B229224C4092E1C78E4A13F71FA9
:10318000894E17313992C9DB2320EB13EA428403BD
:103190002C3187DA58A9929049C54031EF0FFE7063
:1031A0007A6F13F7EA49BC9CC012CEEB215C2D0963
:1031B000DD109ECF4847C5C6B28FADEC25F9605CE7
:1031C000BE7236F4509B21C6EC0CEDCFB0592D3BAE
:1031D000D0B1D4E1428573498029370084F0704929
:1031E000C6336850C77EBAA3201938A9EAEBD6B413
:1031F000017B5197E37A0CF953CD52B7F0101D754E
:10320000234E60B6C34C00B4B04E0F053152E2E815
:10321000BF20AAF08E1F46BC6C5755AD11522472C8
:10322000732FD1441A41C8D26443C3CF2483283EAC
:1032300019CE326D6036871B95C13BB0CFC6FD14E9
:1032400029970A80FB5840E95DBEB3523A4B7A6930
:1032500008BA23A905F914D4788141BB96ECCF1D97
:1032600008CE22D949A438D25C17F88DE2EDF1BF1F
:103270009714F80956449E70FEBB1705455796DD16
:103280009EB185C2423B5060EC487FA47FDB70EE6C
:10329000765EA766FEBC60D2DE60718D4D0F17B6FC
:1032A000C5D57322970A131EAEA4BF3326DFE942A9
:1032B000CE5156D3DC2B9EA1C089FD4853493FE235
:1032C000FA146AAF2F54DD150F4164F794D047DB31
:1032D000AE762CCB7F3E9CD2B58BC9206A30A56ED2
:1032E0002A2A8E9A32E9D67448C78E079488CAE390
:1032F00097305ABF56B03165CA08C4D3823B5E9935
:1033000021966BDBF79FF7BD4021C9F2224CDE0C02
:1033100027060DAAADF3A56F3C8C11C1F239F00060
:10332000DA95C67B5CDF8812C598F1DA75F6DAA407
:10333000AAEBDD5B20D34FD8F310CA3609875E2E87
:103340002A42A7377A1A6DC401E62B1F18627ADF6A
:1033500037608E6FA9931FC9EE68F02B10A6F33269
:10336000BF816D2511190450C80EA98687BBE8904E
:1033700040900C6F3C448CA3D5546E185822AD3F3E
:10338000463FCBB28AE43FCCC745F7BE7038320423
:10339000220C97CD9C4F82A7F098D8431EEED3FE07
:1033A0008F29A71A1DACCCF62F39EE3C56061C808F
:1033B00030C21361971AE1348B86AB5CAF2F687013
:1033C000DB9F7F774509596ED50A7607DB56035F89
:1033D00094EB8C06FA82B2E5BDCD0EBFDD7264F6C9
:1033E000CD0CFB534AD88180B9FB162545282C55B6
:1033F0004F808FCBB515FA37718BE34F53F91DAD65
:10340000AA9E0EFE127B500D557C3DC80E8F6D039B
:10341000899A4FE250E2BC9DA769B9E421A33E8F8F
:103420006D87F16D003AE1E735EB4F8C06BEDBAD01
:10343000CC1BB7D534C2D293886525C536B3796421
:103440009E08FD13FD0522BEB4F6E6E5AB3CE5A8FB
:1034500078631BA397A887730787D582A781A638AF
:10346000E380DFFA4390BAA530E68718331F592569
:103470009052CB20BF7B27416B1F52E0D69F604804
:10348000BE1FB77F590EEF66B9B9C2672710CFFAD2
:1034900000C740263D962D03B662F6DF28FD33BCFB
:1034A000D7A10D5581B167180179B584DC18B6BB79
:1034B0000956458ED81CD86AD78941F3EF8041EE72
:1034C0009D692F42177842CE07A65F9FEC261C3FCE
:1034D0009C4E344A218919C0DF974901AF36C12675
:1034E000C2945EDC0848F94BCAA2BE929E34964252
:1034F000A31892804EF9DF5F1C7ED35CCEE2C3E15D
:10350000F0FA0A418BB320D91951AD97B0DB0B4CBF
:10351000A9D6581836B0631CDC0F9154AEC48992FA
:10352000D6CE1A0BA13C50C01BA3EA4E5A43D0C5BD
:103530009CC3CE7B66051E241531B6E2250FDEAA9C
:10354000257532B3A617F8517D399517EEF7C37379
:103550008216C24DA454B7C9B5DDDAB6515B584BDB
:103560003D880F8B09E658926DCA9D86E943DEA916
:103570001840DA0E2AC86C44D40990A5CF124CFB2F
:10358000AE6C782C3E00564A3A8D99B1A94600435C
:103590003302983BA8014C67A23DB87C549A06427E
:1035A0003E897BB2F7D1297D249FF82A9D913DF574
:1035B000606731F67D2968CF38BE61C17248B5A613
:1035C000B462772D510DFC99FD830072A80E9FC443
:1035D000C1210AEB183A7566DD40094DCFF21EDEB7
:1035E0007248C2C10A940D0F6991078DD42A3BFC21
:1035F000E172FD1B8E5F87D96C75F6416DCE6CC98B
:103600006CED21E8D90683DF1F5DA3982B9F4EFC4C
:103610004D6D3A5367FE5AAC639CAEC07CBE6B2FB7
:103620009D8ABAC57B43F044FA9304BB6CC300A7E0
:10363000026AC7F59632A386B5A72CAC3654069914
:10364000A55AE7A38B808BB0F024B0942D8850420C
:103650008C38B219C5EF47A17748DDD25BD1C5EBF5
:10366000A152E29B2E9C5F77B3426CF97360DF6AD4
:10367000349AE593F5F856050CDC4912CB613D56BA
:10368000E83ACB872F16C5CD8808C82AED0E4D73B2
:103690009AD89FCC0F3F5DD00A48518086075E952F
:1036A000A0E85A924A2C282E8830160E184006D5CB
:1036B00002EAAF580391A6CBCA675E8D933FA86B11
:1036C000E4C493CABAE1C2B6119C035529D070DA9A
:1036D000C6302DC5233E68C1E1E7FBF93B3A9906A8
:1036E000D5F050371076E9C91CD16111B855D7F41F
:1036F000273161E31EF547B4E42E0B400D19CD646C
:1037000096A5B0F26A7F7B8578869230E4967C2A13
:103710001550EF463172E28724AB85AAE5B896547E
:103720008785DD2D5F2BD1D3E8047B672E603100C8
:103730009FD438CE39A9049C637A2410EAB016428B
:103740002E2FDF809A2F214681442DF46EDAD25736
:1037500070CB18FD7F3A437E149F8A8D27AD77C5C5
:10376000A580941504B7AF3EB79B9EC871CD3803B2
:10377000ACC293C4D3F2566503955927CA68CBDA15
:103780001EAF53BF57AC71D9377AF4B8A641AB5BC3
:10379000C65CEA0347E765691EF21A8052388A9FC1
:1037A000F033E9670C0133F8CEC622C4DFCA3D51BD
:1037B000F4F016712967B3A2597C38D6FE0959ED89
:1037C000B0D6C99ED0AC9A27773A17AA9B3B9DDE0C
:1037D0007286A05A13410B464C88126CAA2BDE8DC0
:1037E0007DE9A54ACE497134566F450AE8CEBF93AC
:1037F000233B9CA0F04EE9B638141C48F35AB53769
:10380000F643A0B344C37AF564A6891403ABC1E8B8
:103810008BBEE2C82B800000D2E60E6ABA7A5BCE7D
:103820003CDD79CC073095BFA67EC1000BBE4FC8EA
:10383000A7AA6A8B2849E50E7473149A06C8726D9C
:103840007AA9D3873C24B0859B94A14EA2534DF412
:10385000CB5BFD32BE81F36A1080E0B964C7912D65
:103860004CB102A189427AC26E8C6E98010C49E477
:10387000DDA27B7822B5A7CC00B1D71E0C2C4F1A45
:1038800021170FF6783B438AB686EE2A49AD527A65
:10389000337BD0E1E27D8C04C8EAD6E6314A5AF3A4
:1038A00019182D4DDD3CF9C6B6F12A4436925D63F8
:1038B000653B6C675A03408D8ED31B07BC80D3B920
:1038C00046E072C7FD93398FEE0E24FD09B01C53FC
:1038D000A7B05CACB19F9DD1650571616C8EAC3EAB
:1038E00050FCB82B2A32EC86F9EB5EA86A0A9F9E40
:1038F000DA19AD0A9775B55F22F5D1B9D8E49A9374
:103900000A90283491741AF1346BD53DAD6F7EA0C6
:10391000FAED96A57E925DC582DF91E0CA05BC985E
:10392000976CE77F4FB8124D5E18DC9C0285F1253D
:103930005FCBD8CDD33BB3F9D285F00B106E9D5839
:103940007FC9DE06252688A32ED6A935074D937498
:10395000BEB6994960F43F25ADCBE98BD6A4FD36C0
:1039600034720ADB993C4E49CA5E0A4C21E1057A61
:10397000874280445359E134FDF7610CFD66967629
:10398000D7E3D24430DC4C0D590DB46727B32DBCBE
:10399000E880AC8B0B160CB5836DC48B6A7BCC298D
:1039A000BD38AB655185DE877EB9460CC91EE08403
:1039B0004EA1C9EC61BD916C0A6B64E09B478387A3
:1039C000E65BFB560D1CC685F149BDFDC75AA6EA4C
:1039D00057B29A1F08C3E128051840C4CFDE1CFE69
:1039E000D9710FF778C491FCA19DDF358EEA39C6F5
:1039F0007928D5C6FB1A46221603FC6DAA7878F101
:103A0000F059898A35789E1D948143B2880469559E
:103A1000A22743E59265A92048E691D117ACAAC137
:103A2000A508B1D196627A8E4EAEAB0584F96C25AD
:103A30001A1CA6E3B9E64BFB63E93464DC6FA98288
:103A40003E43F0CD5D5FA5C6840024DBAD4F5F7BB8
:103A5000EFF5708098875579089BA188FD3F413B21
:103A60005A8F0621FEDDAFF3722FE86EE346B5866E
:103A7000D0E77B62FD78985696B17F78E24341B4F7
:103A800092C604ACD80F3947F9F5517C0583F74E3F
:103A9000B5AEC4A314167F9531E30E48E5C96A5E3E
:103AA0002C31D1EF43057169C3DBC51F710A27AA09
:103AB000544E11D8E85D29B708403C8676BF428E47
:103AC0003936E439CEE75AC707EE82F9FB2CED1EF2
:103AD00033DC1D8F2598ADE5A3AB08053EDF00F76D
:103AE0008DDC8FBB2A11E2D639B8DAC7F5E35E4A1E
:103AF000EEA65E7F629C152D07697A7D02B6366957
:103B0000BABE80CFF8B9E7392303B341DD2D87E290
:103B10007DCB7096A6ADD470501FFB6337A1B5AFB7
:103B20001D926D55C65F74F0DA0AF859ACC3DF7A9E
:103B30009F278486CF44543A37E6F0907AEC2C43A2
:103B400068A2358204DFA2775C235936456B82B0C8
:103B50008C0865DF118DD1960E784FDC226C000643
:103B6000F547DF5C30DBB80B344C175A190F7CA1DA
:103B7000F3F20171A11E204012B90FC8B816024A13
:103B8000E1E61E378DE9931D0AD510B8987F571AC4
:103B900089C80168292FDC22E2E21445949F4780FE
:103BA0004DCB7DA95AAD64DDD313782E3926850718
:103BB0009874C735A2DF74968DDD83BA5AECC6E1DE
:103BC000430AC6229BA0D8FB9281AE749A2F4B4920
:103BD000C3C483F4B984C6128CB73270CC7E2A7EFB
:103BE00096593A1B060F5DE08E0F34FC3A00C2FD79
:103BF00097791FD6E7CBD4DBBFADC786E0302CFD6D
:103C000067D653D42DDA3EDB0634E06E0057E58EDE
:103C100099B1510A9AAF592BB21DEBF3F3598F7A30
:103C2000D9CD5E0AB3F7E6A78F4F7035A1BBC4B6F6
:103C3000F5240BFD0A9BB69EA18AA52F078910507B
:103C4000418871D316575F62C9D9B2BBBB20E56802
:103C5000E2B2E33CFEFEDBFC4F778A2ED53B187ABE
:103C600027D64888BA5EECCC84B3F6A1AAE74271A5
:103C7000DE513F40C61B3C980855CDA7CFD7A23395
:103C8000B8DDDB8E360F452A14BD1B9FC7DC07113C
:103C900097A62D9E407BFE573A1BC070644E36316E
:103CA000781C6DD7B1016E119D406EF70CA6D547FB
:103CB000631C1BC2D7974E461C2D7DA8DAFADDAFD8
:103CC0004190F2C80E72C733846E047F0C09200E37
:103CD000A4483E5B063EE5D5B5994AD3EA7A620030
:103CE000D3B5B66144269D1A4C55093C14C32D68C2
:103CF00045D3BA82593DA40052494FA95FC72D8CC4
:103D0000D173ED24CBE387A7DE794558B1FDF44D9F
:103D10009B58CFDC7C94428604F4B043CB3890149B
:103D200035FE5853C06B16DF42E9C67A6EFC297522
:103D3000F7F97265F670FE8F6422C96BEA49710764
:103D4000FE0AFCCCAA55E054C075ACB505983037D6
:103D500098690ED012A114245AF96110342D0A0763
:103D600068242B0272E097073850432AB7127DFC73
:103D7000E76F08286F70B3A0785B6D968D248E77FF
:103D80007EF795F643ADBB6430A06932607786F765
:103D90008C9DA89DA7FB084732272101F9F36D9858
:103DA000E0E00822C95802A069CD931115E7DE436F
:103DB0000D3A8AF101E97E3DA0D0391466F7F9DDAC
:103DC0001B701D411C6DDCE6A2DCBE6DE348992F23
:103DD000DA095FC3BAA3002EB7B56DDDE8DEC836D9
:103DE00021A70A57065E9572D07BB0EF0933D6F053
:103DF000CCCD5B5C461B00E721984367F786701DBE
:103E00007EFC2DD7389F4B031E33E2DD04C2637C5A
:103E1000671CA7138364A3DD2F2FC3CCDC003E7186
:103E200056F61FEDB60C06B2E3F7C96B2792C2ED4A
:103E30001A6B07E41EA4B010B3C59D32A1FEF04278
:103E4000BA9318F87C14BF56DFBE9E114ED61841A7
:103E5000C629D65501F4835F90196EFA42866F2AFF
:103E6000BD29454E1672076E7BD90072AF2C3745BF
:103E70005FE76B145B0DCE91685ABC4D1EB316A460
:103E8000DF45E9D5DAA9E903F244D4E8A36452F99D
:103E9000731798979DD18E946E4F845DC9939A3F06
:103EA0008DD556858FA6937A61C6B3DB5D42B54B3F
:103EB00038DCB633B1E1E42D790011AB09AF5ADF3C
:103EC0002F5EA2945514C4302229B654EB611734E6
:103ED0008FA334AED298AA7FC8EF5C19337B37FB2F
:103EE0009219C99672854CBDA1A42D803EC1DD8E6C
:103EF000B70DFE05DB8B80C9E14E71E0FA08C859A9
:103F00008F9B4E0708915B041557B3855795397100
:103F1000A3E82AB76702CAA74E85B4BE85AFA1C081
:103F2000DBCC2A8317EF7EBE0C6499ABAC8FAD9AC5
:103F300010CF766592B893B496613B9C15CB7D5FAC
:103F400000CB3A697AF5864F51AE7B50E72392E079
:103F5000D74598F7F207CD3FA8674B9932EB9145CB
:103F6000859F59527744565E18DB00438F25D25304
:103F70000E9FDA47D6E1574C9C06378F59E94D34EE
:103F8000BC61F8F3AFF2D3B840C7954E41BF1AF306
:103F900011E9D1F71D068325390DA615260689E0FE
:103FA000951044C93778D8328BE31BCDCF50EA7CCB
:103FB000240514A6CAFD8667E0B356E72BB6FCF0CD
:103FC000B86253C281D7D9F41ADCBCCEF73961E1AB
:103FD000B862706E87F24B2433236A92BEBE6226AB
:103FE000345329D29784769AADC0AC12103A78F740
:103FF0002FA09BDBAD6A899FBAF756B097837D2FC0
:02000004008179
:1000000021282F363D444B525960676E757C838A98
:1000100091989FA6ADB4BBC2C9D0D7DEE5ECF3FA88
:10002000020910171E252C333A41484F565D646B68
:10003000727980878E959CA3AAB1B8BFC6CDD4DB58
:10004000E2E9F0F7FE060D141B222930373E454C3D
:10005000535A61686F767D848B9299A0A7AEB5BC28
:10006000C3CAD1D8DFE6EDF4FB030A11181F262D11
:10007000343B424950575E656C737A81888F969DF8
:10008000A4ABB2B9C0C7CED5DCE3EAF1F800070EE5
:10009000151C232A31383F464D545B626970777EC8
:1000A000858C939AA1A8AFB6BDC4CBD2D9E0E7EEB8
:1000B000F5FC040B121920272E353C434A51585F9A
:1000C000666D747B828990979EA5ACB3BAC1C8CF88
:1000D000D6DDE4EBF2F901080F161D242B3239406E
:1000E000474E555C636A71787F868D949BA2A9B058
:1000F000B7BEC5CCD3DAE1E8EFF6FD050C131A2143
:10010000282F363D444B525960676E757C838A9127
:10011000989FA6ADB4BBC2C9D0D7DEE5ECF3FA0216
:100120000910171E252C333A41484F565D646B72F7
:100130007980878E959CA3AAB1B8BFC6CDD4DBE2E7
:10014000E9F0F7FE060D141B222930373E454C53CB
:100150005A61686F767D848B9299A0A7AEB5BCC3B7
:10016000CAD1D8DFE6EDF4FB030A11181F262D349F
:100170003B424950575E656C737A81888F969DA487
:10018000ABB2B9C0C7CED5DCE3EAF1F800070E1573
:100190001C232A31383F464D545B626970777E8557
:1001A0008C939AA1A8AFB6BDC4CBD2D9E0E7EEF547
:1001B000FC040B121920272E353C434A51585F6628
:1001C0006D747B828990979EA5ACB3BAC1C8CFD617
:1001D000DDE4EBF2F901080F161D242B32394047FC
:1001E0004E555C636A71787F868D949BA2A9B0B7E7
:1001F000BEC5CCD3DAE1E8EFF6FD050C131A2128D1
:02000004008278
:03000000E2DEFD40
:02000004008377
:01000000EF10
:00000001FF
