:100000000C9448180C9452180C9452180C945218D2
:100010000C9452180C9452180C9452180C945218B8
:100020000C9452180C9452180C9452180C945218A8
:100030000C9452180C9452180C9452180C94521898
:100040000C9452180C9452180C9452180C94521888
:100050000C9452180C9452180C9452180C94521878
:100060000C9452180C9452180C9452180C94521868
:100070000C9452180C9452180C9452180C94521858
:100080000C9452180C9452180C9452180C94521848
:100090009B3C31EBD88849C693F2D8879153CF78EF
:1000A000917656F1493BDBE84662CD6296EF652BCF
:1000B00034C572AFD8A2B1F9ADC1C9140340107BE9
:1000C000045A1E2D30A65492F1E1065BEECD1129A3
:1000D000D07BE888126B80ECBEA8B052B8F77329C9
:1000E000EBAE821A8ABCF228F2AC0FD467B2542F5E
:1000F000A2B9B7AAF5518A5C1B8365D98F7B2D7293
:10010000CE3767B6354866480216ED1BE005532E1C
:100110006FF669A748F1A0C52A9C8AD7B7DDCC71D4
:1001200042049C2931B63F2F6945932603053626A4
:10013000D8876CEA205D574904B2FDFA62CD2B6482
:1001400054EA05E3D4399F2BDCC10D7A09D4CC15D0
:1001500093979650661FFD151A42299F2089DE3D10
:10016000FB0866A164200140328C4351AFB01F17D9
:1001700044EF446BDE2748450C798B6F673076DAA5
:1001800047C631D1E728942D05538D2E358768FC5D
:10019000300701F1426AE24E47C34386F9CC359DF0
:1001A000CB9058725FB67AAAF562D3BDA440BD0663
:1001B000EAE5D0CF16603CD8DA6E8F4D8DB9322586
:1001C000E45042C9E3B000A7D1722C68CC925DEB39
:1001D00027ABCE1B1F1D871E7738816F93209ACDCA
:1001E0005C47F7FE43D69ABADBF9D4DD9D49306A05
:1001F00014A3866E6383DD98AE8E52DC1F6F8285FA
:10020000CE828DB4D001BB087D5F257832FF4B0FC5
:100210002A716EEFF70DE1CED228FB572E5B4260BC
:100220006410E9C15304E44999B91A1EF0373BC67A
:10023000AEDBA473F61D95C557895A2378BCFBA580
:100240002382D31B3A705B871D0FA05973A60098B9
:10025000EC1BFC58668A6EE9D1496495EB45585B06
:10026000BCF7533A0D6CDCAB9754B418F9F558F160
:1002700037A5DFDFF6707B36FD859C1DB6A691693C
:10028000BED35ADB09AC9D2D33B1D104E4350DAE9C
:10029000C6619C43D3CD7BACBAA10D13A498B265C3
:1002A00091FD400033F460C90B05B760884107EC4D
:1002B000B1D3379E554F6D60475FD0FC0FAEA6425D
:1002C0007F00C039369D4A2000D23953E91A575C65
:1002D00035460BCFF79B1337C033EFEC5A14A8D237
:1002E00002CB67C79D99542D4B97E808DDA4624F58
:1002F00000BE543C90C88E0DD41BAA917395F88013
:1003000062FF7D683DB96748D270146B0A6C118B2F
:10031000830D4FAF8E6D6CF395749548B0A00E763B
:10032000E1C499B9B609CA2AE811F98008930F6E99
:10033000B8A951818BC4BFF94CB44E90BA7AA6418A
:100340006DE1681D767C3CE6A2238F12528405B5D0
:10035000CA71CC74ED4DB4E0B997CB07BCDC56F054
:10036000AB5BE39CF243790FB9F9DEBF954A17B650
:10037000DAB6D999F09A6719859B7D2DFA07EE8B2D
:1003800016AB040EDC9F67D65049369159BF3F2B00
:10039000A16130F5B7153D1779EC1F76AD422C768B
:1003A0002A9B78BE3AD35CB14E96342BBC3F716425
:1003B0009E46341DCACA798B29F0EE7DEBCEB19EE4
:1003C0009AB42A3DF99B4502CD6319291EE6B2383D
:1003D000F91756708F32F281C0F1BCC1E8B342DB2D
:1003E000BA079E0F50011379CC28A28490F71047CA
:1003F000A498DE079EC22BC886505988CD0EAE8ABF
:10040000CB9152C82B605709E543B8A72DB2CF480E
:10041000BBCE57A9CB4797AE242B436AA0BED032A0
:10042000E43679AEAE1F3656C13133D29A0F83EE21
:10043000B5A5B47D6E5EF356E700D3BD55A78AD748
:10044000D202926647CCAD9DDECC0EB73476BA1997
:1004500066F7E3DD0064CCDD684723BDF63EA4A665
:10046000BD78C2975B0188629371ED53D42999449A
:100470009895D4F54154F85F6C0898BA72A208E9CF
:1004800038E748AD2924144BC2286F1EEA9A84C568
:10049000867F22B00FB8BE84F5A5C8844D75B475AB
:1004A0001F1B504A9CA31400D27E74E58CC85CCB01
:1004B000626836EAB39284E8E5DB07B87AE971F559
:1004C00077BFCA4E3C161B477DD36D8232E22D5456
:1004D000A8B09B353DB627089BCCBB84CAF638DA5A
:1004E000536BBCBBD372963E00B4FDF50CD8C15B18
:1004F0006CBA0EED198314F908895C5798606F9DEA
:1005000028F205C8FA82280FEC8CA0A1C2C353328E
:1005100044371CB82D6E07B83EA11D57CFED7E990C
:100520003DCB7F6F73D8F6FBFE3251FF068A9B648A
:10053000757B4A3AD4CB632296FB0F8ABD366004A2
:10054000127C14A23F7141F9AAC616593EFA3A88A4
:100550000DF96C48FE7E4E2B7F09FC622B983A31D8
:100560007AFCBE559A4BB4FD2861FF69A78600DC72
:1005700087EB3A983A16A74E26E40EE07E3D6E20B1
:10058000168CCEA17CA5811F632CCF498C3DE23611
:10059000B0AA8064125BF60441A3DA26609674D593
:1005A000688121D121B2684170A188B77580CEF6EB
:1005B000A6C265CDE4897FBBF662C8C410D4DB71E6
:1005C0009EA2E6FD587AA519126CDDCBD79603F9E9
:1005D0008AC208775B2C4D9108AAA5BEBE2A15E0F9
:1005E0006750AB2F3E45D4632A9E5D5B00C50E6FFE
:1005F000375A6A7E16C8B9FFA765A6809FEC9B2B69
:10060000DC4551BEFE5A7E9B080D95CB4165C9FF66
:1006100055C12BD909E669F1EB3F18E40D2F43BA18
:100620004595A88456DCF601795EF2BA76BD55345C
:10063000C9870DD21EB13AA81783EEE8A3B37A7822
:100640007BD1CA0C711721CFACB48727D77CE74682
:100650000343DCCD642FF039EDBEAC724353786DAB
:1006600056764E9F2E484FA1B14C6D419C0B367073
:100670009915743111EAC876FA000843A8E0D971D7
:10068000B8254691A3539F082F1E9C159C6A22B043
:10069000FB1AA6B2DB7851C6F04D61D82DB2C16B02
:1006A000061C1B6B1346D299EBD985CBF9D7A13227
:1006B0007427E12047E5A763DF8E48422918C56506
:1006C000DA822E34F096830A1C48532617ED93677E
:1006D000034CFFD84628A682D6CFDA26B2DACABFA4
:1006E000E050C9447C5AFA3DBCDAAAC4230BBDC809
:1006F000E41A1A6130F7B83317C381C3CF12EE5A28
:1007000013EF62E60EAC73C4CC5D51D6D6F441A2B1
:10071000E2B4C139AD455D2D5917F20DC7F30A8C0E
:100720007A778FD9286373BC958B7BE2D55E2234B0
:1007300044F3C500481966E6720D307B4D0A533C00
:10074000F3329E122E2411A0C5B113BFE63EBA6546
:10075000F47DA4921FDB651467041D3633A2DFF914
:1007600003874A4EFCA30AAFCD669770B22459D8CE
:100770006FDFC55F091913E28DFD9CC428D0E8C95D
:10078000BB91F9EC4DC1BAEEE75CCAA5ED76BC06AB
:10079000A8F092DD7EB144CB088CF407EBBEC14CCF
:1007A00097DF7E77048422590E6CE41C46B851858D
:1007B000BBBF59EEA0F9A09807BE40C58138543C94
:1007C0005C12E7DD97461CBE5A471C707D7398F497
:1007D00034F07B0D1B8103AAC67BCE4D9727356273
:1007E000779F37991B629BD2D3A232BE9C2FBDFC50
:1007F00053CDB1AA0671A062B8AD1DF8BE6936C26C
:10080000AE1CDBD6BB071E31FE31054896FE736E6B
:10081000077106139837D3A8A92D9719BA12D94D85
:100820005728DC7B9DDFEB9C8CA7B070D0AA7E7E26
:10083000A05A87C939FD11E232689A61295F684779
:10084000CB4124D49D12C2F2BE6BBB73ABBBEE6135
:10085000C81335ECFBE31F109871BC3A38F07447AD
:100860003F7FC9BD41C26F2A738DB79278F0BEEB4E
:100870001D5FACA6BA5D12D1F6B58FFEF173344A96
:100880003AEBE869D1FDF84B172A4D8B240C4D86C5
:1008900082248369B4EC35425EE889C243A34C19D3
:1008A000B56E94B157AEBDA24AD4677A2DCBBC7257
:1008B000B82293949462B7E94CCA41D8FB3FB08305
:1008C000C127021D46F1E2E01D7DE271AF1C7F6C85
:1008D0007982492866D16B5884E92CFF6FBF53F0A9
:1008E000198D390456C370EE39D4523A6CC1C82AF6
:1008F0007DC7A928780E0AA4D5FAA990646C574040
:100900006F9B70DFCB49F2245340A7A67D84075A22
:100910002C3A935A9EBF9A73774208AF9342C49879
:10092000521C01F442F815A8B33FC697A66B18ED08
:10093000FBD1F622E8955EF5B1448DCB8FBBF0B6C6
:10094000F593FB2DF06E65CFE7E253E0188837C2D0
:100950007CC7F352C98F801EB935D5006FB6875357
:10096000A7D6CD8217E5BE02B0FFFCA4A25D54EC71
:1009700076FBF7EDF3925BE10CEA5CF3774E166BD6
:10098000DE926204620B39DED9893680173C3E6202
:1009900027C5CED73B9016B27B4721EC2A94187B13
:1009A000459B01E579E0A498B287CB80AD874846A6
:1009B000F3B1C737833A38F4223E10954B7327D7EB
:1009C000900C33EE2F5C9B3C044A4EC4CA099164E0
:1009D000A727D6AD88EE2FDEAD3AD223D2AB68641E
:1009E0008E8F49A59B98EBE7F16B8578A53E3792F2
:1009F000DEC5F37D13881A4A4B5025397E758882EF
:100A00007BAE6DDD6DD70AEC149405A168AC82A4B1
:100A10003A53D5D842EA94D57FA540B383F10D4926
:100A200035E88031B8B592AEA0C3B856CCC94219EA
:100A30001B94C407A83A70778ECB2FDD45D84B3373
:100A4000FADD6B75726315C4D5C3D99147120A7567
:100A50000A1F052AE5B58D3A17950D487D01E74235
:100A6000334DF71B160F8A5EDB40EA1968AC79B587
:100A70000F26F26E45B29D8D1EEBAFBE3FF66BB3F7
:100A800078B5951E9B0EC909A727D157DA5E8D59F7
:100A90000A18D468D9738B1825EC4E3CBABE8ABEAE
:100AA0004CA32633817143A43B6B76486AC60C4045
:100AB0001F1A0697FAB6B5DC1275C9FC5CA3D750AD
:100AC000EF46E219189FAB70FBFE1D836288D7DAF0
:100AD000626704BD2A5FD55DD2EF5EC43FFC33FD83
:100AE0001C8ADFC9DEB79C8875C5366E079C1EC69A
:100AF000636630308D2D1E7979ED16434E2D3D35D0
:100B00005B2F36E3AA9F45CBB138D94E1EF51D8920
:100B100057C22680FBC485D5A1F5160F84FC0D3B7A
:100B2000E9FFB3EFE0A575E1AA8F1B3339E83AB7C7
:100B3000F7BFA0C659639324B1F55A2F9709449182
:100B40007D8A297AE59AD4A886A20A4CA40EEC697B
:100B5000E2D5B0829BC520D84D631A25DE4DCFF17A
:100B600037EFF0F2C0EF8E6E888DCCE145411779FA
:100B70005D723D67C43466AE29BA517CECE9697197
:100B800082A5E96478B05272B70F0423B706A33682
:100B90007969C322D9A1DE0F5CD208F7110D15FBCC
:100BA000BADBE683659CD5129D5FD401A87596B229
:100BB000DC66B47F2074C84E02DE0BE755D87C4853
:100BC000ED246D762105E5625408F5C6A1E0EF93AA
:100BD000E55C4D4A3696FC55A75037C72BA4539E6B
:100BE000879E0560FB3925216108280EFA6BE1D24A
:100BF000BDA5920D94DCE5DFD1DD159D71AC4D5F97
:100C0000EBCA0D06CD6C1E3B975EC6D3A35102D92D
:100C1000F76F7D75A6ED8D95CAC6CBDC17FA00C1BE
:100C20005CD7F770ABB1A1F1DE5FB86794DF11A3B9
:100C30003790DA107083EEE9865AF8894417DF7D21
:100C4000B9DD0D835E84219D20B43B6D6D274CDAA8
:100C5000A8305498BD1B524D90C7E7F1B2EFD85B56
:100C6000E031F917DD2F3CA8CF7473FE8905858428
:100C70009301958C5BA4D7EE9886D8047FB52EEBB4
:100C80004ECC1020317CE2F0E22B79BB9672A3A00F
:100C9000B60DF414A13DF51665EA23FA1B16F05EB5
:100CA000F5DA997E8B9E08B191280D88116A8F5DC7
:100CB0002F69969BEDCF284E207C300867FBA7124A
:100CC000411319DC14E54C10C98EC4286C48356DED
:100CD000E93C9DEE1D77179A8E53BED0B23F4CF87B
:100CE000FE4D24F6CCE50ED0FDC5F723D0F0A64A84
:100CF000AFEB716C4DC0488C60F06100FFED63A2FA
:100D0000A2579B5042746409F7027765D984E918A9
:100D10007C9FEF03E65ECDED7491AFB0949862A531
:100D2000FED47117C6770A0C231D961702F20742EC
:100D3000E45BA137F8F3FE4BA81CDA781BCB33D564
:100D40006A8B73E4C6731C1AA45CBF2E3E2CC75179
:100D5000494BC7DFF3DBF6D2C940061B3270B60041
:100D6000C7F028CF3B1D1DF413384FE3CE85746EBA
:100D7000788422A9BD0F912CB91C978EC84B2B35B6
:100D800045F582296D119FE3D85028891FD748CE99
:100D9000C9078CD22F32DA9A22B1B4E965AF33DCBD
:100DA00048A092922D4A07BEF10E6CC954C6038723
:100DB0008ADDE31B387DE03E31844E9A0D971A356B
:100DC000A5227D5C6986CE033B3167F6217F0C89C5
:100DD0002D3DB1D48168AFFE3A3790718DF6D20FB8
:100DE0006EC1CC4220E59DF7F68544259D4626FE42
:100DF000E2E4B83A95F40D917C69E9B05DF7A46D31
:100E0000A980DE87DD2942BB32795A1E9FA29588D0
:100E100062B7D76F49527D34A1BFB28C84AC1A65DA
:100E20009B551AF298615AF0F0BF922139138373DF
:100E30009B8495B83BD969FD62DA6F2DB066196D58
:100E4000C5791A71C103F5822D4B864C998D29A164
:100E50008CE2A2294BCA589DE0F56D4808730A49F7
:100E60001B0278475BB9E1298861465EFD9EEB8FE6
:100E7000BD7C7E0CF2F323A13AF5818CEAAD274CC0
:100E8000F00FE0604F3EF1F22266987844A3CCFC6C
:100E9000FEE025AC27A8A2D37042FA1B590B168F8F
:100EA000B1C3F60916B8C62F8EB9287DC8F268A25C
:100EB0001560724B4F4C97BD9A9DF8BA0FBCFB2042
:100EC0005EDE12D9947C5759C044A30153D242EC40
:100ED000392FED3336692F01D657D501A93593F255
:100EE0004D5F87ABFD40E3089C49D42A45922536E7
:100EF000EE36D5DF8447EAB491BA0814C90C55CF51
:100F00000B78AB488369D027B203857E2E388FAA31
:100F1000559776D04C0E6B6EA529B70F2F55298BA0
:100F20008EAA32661F3A4C3444FF5B6D3D172C127B
:100F30006E76C35703C95373BDD09D6420CAB641B2
:100F40002BB4BE4643FF4E63FD4576636C81903EF5
:100F5000EAF852C1C6FD40E22FD968094923C415F9
:100F6000DE9D6A738E37526BE52B198913B891DFBA
:100F70009F4BC4C3542390375F826752A6C68669CD
:100F8000D24FC14B71A536B14F8B452E75ACEC8558
:100F900073C84C7599CB956A288AA461D77E98D876
:100FA000A5B3C3B43772998072F4691D1F6F0FD651
:100FB000ADD0FB76D947ADB7EA68877CD90E799179
:100FC000D29F231A63D00008F3D17316F397531BF3
:100FD000952981339362190FD473579B2C8463EB4B
:100FE0002130AEA3E6D37D368897C989C13D90B044
:100FF0007FFE0204CA42829AE7A49FB08DB1785066
:101000009B0CBA7E0DC0725549335509A083FF82EF
:10101000744B5638BDF1E184F8D257FD6A00D049CF
:10102000CE39D4210BAB18588A8B3D47C377E75292
:10103000B2526507F58A414114B4FFCA4D8DE78F5E
:10104000A7E0813509A6228E7EFB4AA4BB18EF5C7F
:10105000D4FDCAE2BCF8C93F09E85C5606D59E1D1E
:101060005C0922F99CF8559EAB1C9B5D80972CF483
:10107000C03596236AB259EA981FDC4BA01F3FDFA8
:10108000950C6935A3280392361BEB0B551609986E
:10109000BD9DF3D56107F2D382A7887BA635D3B96E
:1010A000C1E2E6D07B12ADBC449224E02E4384958D
:1010B0003F4C81EC3FE72AA4992DD317B765F2097D
:1010C000164F8B6EAC4C1ACA395F7D524B0C786C44
:1010D000893B08BB960BF783C34CCC0CF5A6BE9F8F
:1010E00052C400639E7C6C09D156BE5F990E54D7E2
:1010F0005654B59001181098FC2931FCE75B4E4E10
:1011000083DE8D204E8ABBA6016FED2DFF45CF9863
:10111000D8E211D53F5A752064F83CDB086E7A8E10
:1011200043017E17B177E267005935E58BFE13283E
:101130000F7EB819AFB4DB9A66D99A466507216B62
:101140000715A93F9153A3FF4BAAF25804EEABC970
:1011500006E52BCC4A32A325E44493145A6D6878F3
:1011600016EB6B457E9314FB7751AB111A4958B7B8
:10117000D9EA6127C0170B5F306A4B1E8D8A7C3815
:10118000C74F9A36C3783EF5A9C6529E7FA0DC8130
:10119000A42881CC717653881D5BC920D233D52514
:1011A00000D431E797D3E0A9D58E4D4476D8E399A2
:1011B0001A3E82789CAC1BAC7C77E56EBFDA025A93
:1011C000E0627B58E8C913E326A977A9D3CB4DD8B1
:1011D0004EDC9B5E36786DCE8318F6F91F779E52F3
:1011E0009886D50BD18B0CF86B5EA1919A194FDBC9
:1011F000F5A65ACF23A5873982F0D6B3AFE62901E9
:10120000EB658B8995A3E58EE0613BB84060912A40
:10121000FB7231C358F293306726167956714390AA
:10122000FECA90852CE53B0CCE26CFA87A686F804D
:101230008BDD60D910711F948AFED00095C41E43C7
:1012400009C59304BCC490B08847E54EEE39A24668
:101250001DAC7A34B8DD65874AC86FF505DF7CD3ED
:10126000BD8557B693ABC231EC8ACE359B584D380D
:101270004331800CD72A278AF2E481525D82DBA8B1
:10128000C057A0B41832D3BFD59D69DA8438E422A0
:101290009ABF45D1D642BC56806D1D09A71D53F497
:1012A000F78525A998114EBDA7D1DB295F0BD4C8BE
:1012B0006CBC6D66CE775F38D2D4543AA62D318897
:1012C0007AAAC3FA5571303C994ADF936F04C8CDAE
:1012D000E90F87CC20D3F6DE28D5FAD7BF7F53217C
:1012E000B22338A4C3E96F9B4E4862938A8DDAD447
:1012F0002D61932D22A02EE812357039507C2A01E1
:10130000C631C0C2D33E358B63BA7B5450FBC8167E
:10131000C3E4DE8975BEEFFF89508CAC83A8BF6A39
:10132000EF678240731BBE9804B0BA08E56D490FA1
:1013300064067DF51AB6F0FEFD575118E1E239A1B9
:1013400085FABB313E40E5D558B2020C62CDFA5465
:10135000559C9814B940FFBA1D9B0238BEA76C7209
:1013600095A68E44FEDA2CF0C396FA220A036BC5CA
:101370006701322285DD6AF94CEE03CCF91DD8F005
:10138000C82CE06CFB062FB7FF271D4FFB526B02EA
:10139000969D5F635103A374FC26F0777DD70856B2
:1013A0005ADFBD0B86EDADF3D5D7B1FB2CFE81978F
:1013B0004F656FBA711C58DD3AF29CC3A5F5C79F03
:1013C000EBA5EB284D8D313449004762E3876F432D
:1013D0001B62352F1A76FAF01CD53C3F340DFACA41
:1013E000E202F0E6224AC7DAA15A8C187E79800A16
:1013F000783F65E8911DD9833087563CAEE2C583BE
:10140000CBFE307EAA10616CE5659DA6FD9926D1C4
:101410006A37955DF620999D3CC45669869923AA42
:101420001133A1AABA91C1671483AD7245B8D1E452
:10143000ADA6C51492E6B1482B4FC0ABEF3E3D0EB2
:1014400065A455A905E953C56F46394EC1FEE91299
:10145000D4065750C65A27362A1FAF65F335058C78
:1014600016227BD8BB53D59E8216A2678ED9C47E26
:101470000C9B57C473247F4CC2A27FA9EAAB0D37E3
:1014800030D7A92A246B884CDB2BD8195D55E97E0F
:10149000F0EB7AA27B6290583E8B13C630BBD083B0
:1014A0002E9C03226E2C8A4BC4C721E7CA7351B409
:1014B00047E491C11CDBEF640BAAA7C9ECE90BA6BA
:1014C000F57D0E1D9DCA98683BED674F2253118034
:1014D00096A86168ADD864F6391936D5FCCF388F37
:1014E000C57CCBC5CAD57A2ED92BE824B9B341EB3C
:1014F0003149BAA8297418D4C42D40314F855732C8
:10150000383777F1D25439178B8606BEE960CDD2D1
:1015100056EE19A91D1441583D08AC9413A4C155A9
:10152000CF5A43443C135E6A36667B05794DF830EA
:10153000F9F67A8665266C29BEF08EEAB77F60538D
:101540007651FF6FDB88570921775B652A1198DB9D
:10155000C4E06B43844BBABDA3E9DCF088045EFBB6
:10156000124114D2BF23B2C317274F0FD472434383
:101570002980548DF886E69E0C7785E92442B7765B
:10158000A0E62EFFDE9CD2CBD11FDE82AF7DA275FE
:101590000C0C539CA5F0AF0FD519931960C6CA8ED9
:1015A0002CBF14302E7A14C3EA05796F97F497C5CF
:1015B0003156BF27967C2FE507483EF4D9907E141C
:1015C0004BACF16CC288CC092A60F7B183ADC3E89B
:1015D00047C9484EA220ADF51825E74FEEEFFBF2C4
:1015E00081D470CCDB944515F47F8491F0C38EF6E2
:1015F000E11E99CA59DC75243EEEFB115B195C2A89
:101600000BF1F42E9262D8FF73FE5AFCCA4EBBE374
:10161000D712B5DEA9DD206D682573DDB8F1F8C9F4
:10162000785F59EC30210BC055B2BB11EB9A6DFDC0
:10163000181211CA93B3CD686D96F0426A675508C7
:10164000B8F7585E27AA1C1FA6B1801E8EFFDA7F4E
:1016500062ADA1B1BC49B406924ACB15937EBC429F
:10166000F824D9B86BC218EA1A748D65E48772B091
:101670008E0A19D43622A03807D8218CA100A710D1
:1016800085047AB0C95112B22E499233449286B081
:1016900017C69BC54B25FD7C3ADFA06D5EA935BF03
:1016A0001E4E9C35D6AEDC990A2BB5A244DF001C39
:1016B00020B694A1214FCBCBA3E38FCC2EB85E46AE
:1016C00018CE6DB5864322CF8A4036CFAAF4349E19
:1016D000C393B06DAAFF9A93391ED3C5F7005A6819
:1016E000CB7849194882E15BDB7FBF3572F971A97C
:1016F000970B961EB590BA67DFCFC3F10B6D7F18BD
:101700002BB5DDAEDB635A36E7D3D6ADD28330C21C
:10171000FB0D5C8153E5688580C17CC249BE2A57B8
:10172000366FBB251AFC8675BF2BA5F24F7E81EE66
:10173000386B777794F026FB7B00575F1BEBC92C47
:10174000FB2B6B9F979DCB8D7003DBB41E3516F47E
:101750002E25501074808ABF98E83DDC5EAC47DDD2
:10176000409975AEFC23FB538DD42118C01BF0F9B2
:101770004BC514B0EC99E52BD88C40D5ADB2E05EEA
:10178000726D6508614D5D1370A0FA2ECBF204F9FD
:10179000B09E6C8BA0A12D34563D00F770BD9BFC14
:1017A0000A0686DF5D3EC631F4F6F78D273EF4204B
:1017B000FBA08A268F4D8B24A915979B030B398498
:1017C00020FEEFE0666A97811EECB8B5848702417F
:1017D00025239C2592357E899AED503249942358D1
:1017E00025C337FD55BA69349ABE5B3A460DB02021
:1017F0002BCB9D5D5FAEF1E8B3B64DB1D89109BA80
:101800009867C2087163EF6CFBE463375446C1E12B
:10181000607BF9FCB690A672FCDEC77250D7F90D5A
:10182000EB6C1B3437EE99BB79B9DC7B2C56273C2B
:1018300076473F878526FE722FF0C25B7E38BAE777
:101840008CA480D970211E7BBA82B21CE1FF00B645
:10185000898A8EA35A81DB8E66E61B9E3B3937F759
:10186000DA7F0856440A196904E24429374FDAE05E
:101870001B3BBB33BAE8BBC2A9BB1A5A01C92A7EBB
:10188000FAC81D8144010C3DAF70B86F8BE7BAA850
:101890005EB28F871A0BB47FB14BAF3ED3D1737357
:1018A0003F166C2C29D72A83B479A71E667CC7F013
:1018B00009BA528697801D7EA70742FB2979545B9F
:1018C00022158708659ECC5B44BF2C0B4C8A9D2754
:1018D0007D475D12D10213E72FB8E4191D27FE32B0
:1018E00030B7C7E9ED4CF9CA15343B0782030A97B4
:1018F0002230974062C84ADADC25077226AA0AC558
:101900002DC4BD1EA30D10C363C1911924C6B1CA55
:101910004B18B32410EDEE4E6A261697F002860897
:10192000F593ED67626B80703F6959A8116EF947B6
:101930001DBEB64A4306C8E468FBBB8AF4F7F3D77A
:10194000A591FA161037D59B9DD53097777852E53B
:10195000508D1FDAD24FB8CC392A6F068CA18A9DE0
:10196000C76F1EF6B5F26CB2581495705031BC4D6D
:1019700015B7E7CC9487F5CD927BF2D8E7AF28A7CF
:10198000C1DD735B6C456CC072ABBADC26D73E8799
:10199000C8836F09D18FE313F7B425F892FFDF8571
:1019A000043331635BE91EBF3BC8F72C890B71E13F
:1019B00016CA2705E235D1BE2BAC8FABD64CA6316B
:1019C0007DA8475C5834BC33FD83C557B1A7488315
:1019D000237CCD8EFF08855AADD85AE3041344F416
:1019E00041CF145ADBAAEFF260D059B0E061CE6A61
:1019F0003E193B85FFDAAFF4830C6465B14E1FF7E7
:101A0000580418B5531E3AE71E171F71FA333CC02D
:101A100091FCA4AAB28D245BF581C49E7B7FC12971
:101A200044B8F0B5F7844AB97E4222D2E2BC4148BC
:101A3000527206E6077D708093708CB46A9F59E9F4
:101A4000ADD31078E769C1EB008B84B3F02ACC9159
:101A5000D71D839BB42A2A565543E6DF9971CC00E3
:101A60002156102A11B547A03F8725BAAA768B0FB9
:101A7000BA55177BF3789079EC04B7D8BE702D0770
:101A8000D71163CB57BA97BDAD86309C3674A6FF8D
:101A90005099E9D92720FE42923807632FFF831C13
:101AA00031FAF922156FD5A6A2773F6330B21F3401
:101AB0005285F866CD6E988F31180B3FAB5FCFF82B
:101AC00000A03D9D568DE006F70ADEFB5A7251AD2F
:101AD0003E62F682AF90CE3FBF7044F7ECD532261F
:101AE0003F6E212820706B84CF6977101F41861DBF
:101AF000A33278210E6311105C8320C191EB1D98F5
:101B0000A0062224F2372ABB62C614D02D20DA8622
:101B100071D33321C148060BD9F381C79ED56F46D7
:101B200058C39772BB7B6F5698C3CB8A777B636829
:101B30004B0D3D79698052FFC2C27DFB0545E4D65D
:101B40005F82FE706252E0375F89707CE6BF30BA18
:101B5000D5584E7A8CFC5C6BAFE72BE41D06EB612D
:101B6000A0B26DE11ABC20673386E255059533803B
:101B70007CD3178D6318E35610ABA977F29CB31E84
:101B800087C9E778E193EDE27D541CA3AB7AA79770
:101B9000BDB53BFA7C7F090E5F043D4B7B023F984D
:101BA00079D6CF526570F105639995F4937E06DD81
:101BB000491E331EA0A761FC57BF2E8B57791529EC
:101BC000FE998BB8716709EED242B337800D096474
:101BD0001737C1C7D434F38177212F657FF3456A66
:101BE00009A21B69D94190507992F37048BC639166
:101BF000A2804901107C468AB56DD2DBCAABC3F71F
:101C00005D50916FB6857E6F53DE0657E6429C7538
:101C100020C167168E27FBBD1C5E7788C5645BE11B
:101C20000D4F8D02A0A544A94868E127C597221C45
:101C3000FA295BEF7A7A95161965137851767BA4A9
:101C400082C05D47E7D99C6DE9170878640495CD9B
:101C500031B2F060D3DEBD4D549D68497A9A4FC5CC
:101C60007E79D2DF9CD69DA962BDB3F87CB52404F1
:101C7000A5F64B3011C3750A69E707EEF3649FD9E7
:101C8000211E8667D3DD5A9B5670970F0012AF58FE
:101C900080B65B25A9767476D3508DA1E3CCD50EA2
:101CA000EB1F11F4DFFD04471E00E4D2E23F402A9F
:101CB000A76B48E7AD90D462B1BDE995A0E2D95CCD
:101CC0007C777D0F8176E34B0056FAFB2ACAE8C881
:101CD000B9A637AF5C56C31400DEF7B65FD7BCD3E6
:101CE000DDE6EB3F7668806D8EC8631289F0146C78
:101CF000E701765E6BDD0B487719406BC31B7C7484
:101D000072F63A8B3D36DE2A32620F839EBBAEA955
:101D1000B16B9A8513D7418BC248485E251422B314
:101D20007951DA4A01853A0F521D4F2268670C3308
:101D30006C4CD58020D57E13FB1226006FE4655ACB
:101D40008D9092C52DA9480FC0DBFE438846A4FBA9
:101D50007C3535FC40FA66B5E1C2A775B981F21150
:101D600007F3CD1E56A5C5E1AA59F38F03CA5FE25A
:101D7000E8D49CC4C71153DF28BFB6E6E6CB0A28D7
:101D80007C364A7E3DDBEAA06FA7A1E67D7F3C5909
:101D9000C2D1CA22D79D54ABBC6BFD4E397837F304
:101DA000275A47B6BE214B89E4E65DD458807E05AC
:101DB0000D76AED44271034DA49D19BF56A7DC8B9E
:101DC000CECCA5091F73F7BF682FA40CD34EA51A5C
:101DD000C8509A3A2CAFE29CE6F4B70D413BC36F72
:101DE000DAC49E249617899DD7D69F3FD5F6A4992D
:101DF0008D7CDE9718597197A0686985526ECA5D0F
:101E0000CCABB782C14437B851BC633D2080185772
:101E1000189414EA0C54F0D50C8D18C7BC1136AECA
:101E20003A69C0EF2C3B93660762E23F65EABE78F1
:101E3000AC66819781142B8B966EDEE77CBA579B3C
:101E4000E89190AC7E2A51A2EE2ECC8AC6E8AC2C4A
:101E5000DC7982CDC089BCE2E5ED7E984DAC633182
:101E600068B58B4DCA29FE008FE3FE7B0848455EAE
:101E70004F6772C16F99CA10EB5817EE112D2C6E77
:101E80004CD5BA743FC7040FEADD530EECDD3F4575
:101E90007C7069FE607F2834A83A5DBD9AA0F35A31
:101EA0001710AFF7D7BBF41159446DFD142D5449E9
:101EB000E394053186841855437A799459250604AC
:101EC00018E8023A53A82ACE3F896C8AAF393736D0
:101ED000A84D07D818412015B0CAF0F5C8F301BFC6
:101EE0007172E68AD76A808984221611A2A7D18DE1
:101EF0005F377F7EB251C27EEA4DE562D001BEFC03
:101F00005A1F3AF72D981212C5AC61F50D94B82CF2
:101F1000F560F0B66A5FB45FEAE9D96573EDE7345E
:101F20006372F7F22938E6543D0009E131B533AE6A
:101F30001D433F37EC8063EBA11C8D3322D5E60DAA
:101F40003F9BA6FA2889FD3E9074B1FCAA19366C15
:101F5000EF1791C646117A7695D1B943FBB780D277
:101F6000FBEDAF6C8E32A4E6DA5C812023F64D8463
:101F7000842AC38A7D752EA892A9946556D85E1BC3
:101F8000A1E5FFE678816953ED001A20BD9F50C09E
:101F9000432555417E1D1E530BBBAC137B69E5B435
:101FA0000A463B0E099F2BF8C385F8253E8EA22AD0
:101FB00052EC4A7A8481242193C0F34BBA2B00CE91
:101FC000F52F19809843F0D0617E97D4722C1BC8EE
:101FD00015B733ACB97A0762FFA0C08DFEBFE35FCF
:101FE00043EE0451FC63F97804F70104D8E12615A7
:101FF0002A3AA30282CAB72AB89D2F495E4BFACC6F
:10200000ADF6C38ACF5615D36B5A6680F1ED450BFA
:10201000109BDCC00EADB8A9D295EB0E05BC66C016
:10202000885FD106A3E0479C6DCCE0FCA83E9B0DE9
:102030005042492B14FA1F2F7664388E9264B28C6A
:102040005BEDA7C1C7A28721A023CF6541390A4014
:10205000FB0605F4A92A6C5D7E167681B3B4601880
:10206000C1A6D96CB3BFC7897BD55614325533A1ED
:10207000E68AB31781A2AE8E063394043C7454F3FF
:102080004C17CEB7A38F5CAF09C3791B3BE6A5A461
:102090009E268217AEA64AF6CAB2624840840CB5A4
:1020A000692CC795CB2E6F296A3BBD574D889B9CE9
:1020B00044B673C72316C8ACB8375AAF3EE2F187AF
:1020C0000D299ECFB7B75D7F3D18B4086DDA3AE3AE
:1020D000B5C6AD667A83975D515DDB46DB12D52FC1
:1020E00065118DB35784E64E02DB1E6442B5B1EB39
:1020F00079010605789B5DA96B8F1D113F45ABAE3D
:10210000E36E81517421ED93BF29E8131ECAE9DC07
:1021100045908BCE390467B0D64ACB6E4E9FD4BA69
:10212000FA93DC415CAC9B082FB82E7EAC98FFED97
:10213000F85D78C95889AC89DE90BFE941584D12E5
:10214000F66C155AB9689A147778FEE49685F0C350
:10215000698BD04919B12F56000DD8F372EB4B1A89
:102160009D32FC3E9E801732CAC4E8F6C9605121F8
:10217000F4498909436A7B6E2FF55A5EBDB9521F37
:10218000DEEF48E033F866D4327FD8C4EBC5FE25D5
:10219000BBB950AD0F92972D6D88186B0D99411EEC
:1021A000C58A36D71E278E34A0EC8BECD3BFF8B28D
:1021B000A9014DB7BE0CA220FBC78C172650E732F1
:1021C000A4C4556F6208DA0DF1C21D1FEC7B78CAFA
:1021D0008DB1138BB408E0DB58B14EC68C8B71D82F
:1021E0009B578B3C46CCFAFE3D669AD091B4B35DCA
:1021F0001FA0F3D95500D17D73FDA9FF64AE24EE75
:1022000036DFF91260A8C638E37E2D47B9FDBDC69A
:102210000549B2B372E75CC526A268299501B3DA15
:1022200028C1AE044BE62C2BF98FCB632C8007BD65
:10223000543DFAB826884BD4D80747A5264FE94F16
:10224000E06FD4898A1BFA27D0A69217DA0D011302
:102250001D37CDBEC3FE67B377388AAC5904D91297
:10226000D7FD6E910361D49E711E44102AAEEB918E
:10227000E9828515F678EBC4D7904D1FBDEFAA4AC9
:10228000FBAAD0D4695C30E2A7B352F0DB93944749
:10229000E9BB2F02CAE47DD15C311D4F818E510311
:1022A00013CA55F6A02C6CBF485AC6E347FCF9FA8E
:1022B00012244C3A17ABFB7CD0F7B11314C94F353D
:1022C000C86AC968E70A94909A707DF9132B79E37C
:1022D00042CCAC092AEBC99E3DC4A0736C67C8F61A
:1022E0001E8BBBC051A7119D648C89504BE4DE2529
:1022F0007786CD8F552C092B08D8928F476A3DE9F8
:10230000C5FFAA1FA093E0A1F64AD7F533EEEB79FB
:102310000B751DC1760BAB5A3ED84E095EA23A5DD5
:1023200029F19ABC59632C1BFACB69D27FF69873BA
:10233000F22543DBD9B2036B3B545A93D6E0CD3C34
:10234000F3F2BD56EB7686DE84997B145726CAD607
:10235000D02B7957BB6FD8ADDB5B9BD5B3ED8A4CE7
:10236000217320B0022AB0E25BDA31FD767B0CC526
:102370005E78EFCDA460A0C06B43B2D5E166A6EA5B
:102380001C7DC944424848A9EC1D9407D5C6E9A064
:102390000B339FDCA5916A0DCC4C4632445685BF69
:1023A00044F695BF257EF02F7B00D9F7711B7493FF
:1023B0009002E84845C1B0B52402BC25EF0244A212
:1023C00075974281A56F9C857EDA0970C76FEAB464
:1023D0005A4959DDEA306F2BE5226A6899BCEF4B08
:1023E0007AC41CF7F42BDBB39C31A0600A2A10934B
:1023F00043D62A9539D1BC7A77AA892952C631D5D4
:1024000092ECCE690B65AD980280F24E0D2CCB108C
:102410009406381603EEF3D5827D44D220302FEA9D
:10242000A132CD93CC68E174125688062BA02A62A3
:1024300017C759979015232C5913F72633AE60947C
:10244000D2D314A37AF19A5DAF340D0EEDE0292CAE
:102450003CFCC893D3DBCA4E17461B82F079FD4B78
:10246000D60A6AD5C258D5A8A8644E9574CB15C5AE
:1024700029C4B30AE74C540F9D162E26EF16B9D681
:10248000614640DF62CB433EC5C85679DD546A6180
:10249000742724E4FB48D80F71B7666A47529E8EB2
:1024A000B5902FDCF9B08903F1746FC4DA5FD3BB48
:1024B0002146059983F97525AF19A3D42313A13BB0
:1024C00080F5CEB44AF876136AA61F91AD65711AED
:1024D000EAC5682518C48ED77EA2699BBAC148C7D1
:1024E0006F16BAE93CC9E442ACBC631CC4A3283FE4
:1024F000F9914E6E9C172BFF220193E76A2526FD6A
:102500001A7153333C6B3C19FB0DA40D7C88F23ED1
:102510004E11A1AEF2AEADB400E27975E06999B5A5
:10252000A54211B74A4A78D2663A7675DDC4C96BBE
:10253000C9122E33F83F75C85121F9430559B5AA80
:102540008DEB904717090B5AC7B5FC89562DBE4F26
:10255000A0C652E4A546994FE53642DC530F1C82D3
:10256000516E69E03338F3169DDC750D72173C7AB5
:102570007D695AF5FD846C91B3779C763F6B9D4ADB
:1025800087B09C4A43A43D85FCFDCC76CDBBAF19FA
:1025900030A5BD32C113C09217BBE64425392EDDEC
:1025A000094D31F55696A7F6A14CC9A94FAEBDDC31
:1025B000F1A6CEE0F0AF8351E83CDEAB7A75CA708D
:1025C00054AD03FBB64A9B5E2E5712FC6D5C6293C2
:1025D0005D92B61F552DBC5BC2823468BF0CE619F4
:1025E0002A429EB8DB0D5A6D54E234EB3121880348
:1025F0002E642D4BC775C8727C7B609213D86F0216
:10260000A92A2856603F5D394094625CADE50920F7
:10261000FBA12D5A8E6C5526BF5776B4AC7C733215
:102620007D6AA5CD67533E98DE610EBE04013CE491
:102630008EDC6E22A6166841D40F1A8561D1733ADA
:10264000DA022C57C0BD6B4C372205F2A312F2E719
:10265000A40AEA0F9940E0DDE6D6D460AEEDE2824E
:10266000B0D4AC347FF2AF70D301DDF0549B8BCD8E
:10267000338B6E8EC759CE76EC32FBADB842B72C99
:10268000AD379F4EE65D567FF52372B97650A72091
:1026900009BB69CB0D6683F98B41D685D4C9386EE9
:1026A0002D59BB53B0E30B8E9C6EB4FEC1D0BC1051
:1026B0007F6796F66EFB5C8C5A611974A28C7F6BF7
:1026C00076A57212A4CB9572B50248C38A19A85593
:1026D000FC75F1DF005EB49E7D0F67ADFDC7C803DA
:1026E00019F22617DD403238BD7D45360824D57EE7
:1026F000D2084AD31B7E5C896F2518EFBDE73C5793
:10270000098314FFC4EC15EC3D3ED020CD0C2B11F9
:1027100080116E3019BC81A026AD363D12250B7795
:10272000F2542CD150524CCFB7F09D0AEB6489AED5
:102730007BB183C16152F952121FF08772373D9607
:10274000A95B02721F2712730992437223F2EB797D
:102750002576CFA50B3CFC7067FA81745508C093B1
:10276000909634A6E98067594A5B24EA78EBCA97C9
:102770001D182BB5BFCCD5A809D982A79C28EF5C22
:1027800004592AB1D985A6DFAD38FC157C74F38ACB
:102790003C0B4C0BE7FCEAA71FCFC6AEE0541B6412
:1027A000B47AF8FB77D454D90B817E8F4192AE9CDA
:1027B000BC4EE683A5BC6FFD500D6D016F136DB56A
:1027C00061EE86488D715C7A642BB9C133C17EC2DB
:1027D000DA64AA370DC504A654D48464235D893114
:1027E0009B64C0A08F52A3E396A676A5A632059758
:1027F0006BF2586F9601CBD418122C325B0E48FA4C
:102800005E668D9AE832C53F27A6AD4665F8C70FCC
:10281000ABA6F0CAEADFE57C1CCC7A4932473A0D18
:102820005CBA87BF11A00587554517A2EFFAF77E5E
:10283000867DCF6FDD874988FBC3B7AA280D9C73BF
:1028400012617FC722096338E523A6AE2BBD3F7A0C
:1028500011D35A0F4B6FCF18E0B3D9AE6CF1FDC155
:10286000B52A0A5587812A7C87ECE4483B16F0BEDE
:1028700022158E278037DF0B0CF2794A240A0B3F92
:1028800036EFB676C1CDDE4959CD4F7A56DB735C53
:10289000187CFC6AFD8D20D30AA0755CFA39A00C67
:1028A000906B18E4177FF45EEFFEA4D16078955228
:1028B000CB26776E899D84F5F8FD1E6EBAC5570C40
:1028C0007681C0B63BB6523BDF8E4ECF932A1B1F9C
:1028D000931E4453AA5F54E1F1F6FD3AEEB06B64E7
:1028E00052CE4E40A5D40AA70037E2736C24F85D9F
:1028F0008F418F17A793AE17175A46E6AA012A9D54
:10290000275B694F9C5DF57651C4CDB21A732434B0
:1029100070B80FC68D57C46937BB70214AC49C4A32
:10292000AD73F3669DD1B57104E28EB9DFE14FDA84
:10293000732A293B5FBD286AF7314F7B7294DF25EC
:10294000B5FD8C0FD988CAF6C081671B59C572C9FD
:10295000BF878FA4F2D5E56D883C88214C1FB63B1C
:10296000CEF364F8B9030DED7B6E37CA053D24251F
:102970003EBCB9620FC12D5F86145835681FA60C86
:10298000050A89AC493843959F9711EDAA0325B8EC
:10299000F3A50EA58B7859603EEB2037ED7296FBC0
:1029A000B1C4C2CE6412006B4561574BA1FFD3077F
:1029B00092D5A1FD886B6A28246DBAB94D64DB13EA
:1029C0006EB8D7FFF04E2700463A294E1255B7F998
:1029D000738B8C6D6B7491427A78109850DA8C8B73
:1029E00048748666C8701B19D3F9200383DC43B58D
:1029F000B1598EDE19C6E2310580BEE547B70F1624
:102A00008A246CC2F41F1DC93152C61E90998D3A9A
:102A1000AB123D5F166B2A25795E35B47BD5DAE1C2
:102A20007F8FD7248AD84967D0FC349B593FF2AEB8
:102A3000CA74588EDF9D06C437E4E38906C09793B5
:102A4000762A2C1ADB1281B6DCC2E8836E4CD6E201
:102A5000F9C85E48F18399FA36AE04BD1AED1D112E
:102A6000AD921B071101A42241E18746D4121895AB
:102A70005C227BA22394C1AAD9D8034F2054DADF69
:102A800029511C6EA3B7B554F09E46C45E7F30FF3B
:102A900077AE0E123E0592678E2C00FC600D362C30
:102AA000447E2D4ED43816F526210A4B846E71C211
:102AB000223807248CBB81C2AF241F06F33406984A
:102AC000ECF40A0FE07D37E2D651D87193B27D194C
:102AD000753EF1938DDEBBED51774FABB03015589D
:102AE000E12870564650C132D0747ED6EC752A1A51
:102AF000ECD47139D3597B4DDAA6238A45E492246C
:102B0000722BCB0D162F2519B6124A3166DCAE6634
:102B1000533670896588E5688C89BBCEAB46DD3657
:102B2000AFBCC0D3796FD020B2A55DF955ED7880E8
:102B30006DA91483038BFDD8A48969DE71C1EF2EC2
:102B400094CE6197DD0FCF3DC8A5315627C691F0D1
:102B50003249833CCD5E47605424D1EBA471DAB78F
:102B6000FA6B0C3F9CBFA13EFCD71C654D02FC6F6D
:102B700047042E9B55641BEA9B97864CBC39AEA933
:102B80009FFE8DD4AE939E7E2D060238929957916A
:102B900056A49133EB355CC21C861383357CB4623A
:102BA00019651929A6338BE71FB5E16470F3199AEB
:102BB0009A20A21A41AA5640121AED8E5051EEE701
:102BC000D7663F81B8E6A1494853EF2DF2E6F12AD6
:102BD00059FCB8F756EF2FAAF7E4427AD368CBE254
:102BE000F46A34AF874F41CEA7D4BA474214511389
:102BF0008210437E543096F4A6A1396F911068B4C8
:102C00006A403ECA412FD13EF26973AC81CA1A6252
:102C1000B348EB43D2BBA7B59C699DF4164E6D3803
:102C200023BAA3660C7272D1EA958FEC3AA34136AF
:102C300029B2A1126A1B3AFE8772A59FEBC1370029
:102C4000C30399E8B9333E5EBF5CC33D8C914E54DB
:102C5000AEEF7B44CFA218606CA757137586E7E2EE
:102C6000062E0BD5C52F6421762F071DBA8D06C8F9
:102C70000E6C566AF35D0752E23239276A6AA29DEA
:102C80007D5B9363AB11245C65BDABCBDC27ECC2F1
:102C90001589145DE11BAE144572E1011D9CB91646
:102CA000F066BC9AF8E60311A9E2FBEE964D3EF100
:102CB00038A1504D0563F455A4903AAA497BFEAB68
:102CC00004CAE87CA5D1F31EA5EE7783D564AD4C8C
:102CD0002372758AA73FC362D680DA2F5067161F0A
:102CE000ED682CAF81FF335699B799DF81F24653D7
:102CF000FCF6BD9C2DFACCCD4F0F0F722807CACB26
:102D00007C322A4B7099C67B7543E556F39D6D74F2
:102D100084CDD1825617389F94502F65E5AEC19B64
:102D20003F7624952F3A1126232D539CC2908C4F29
:102D3000646CDE646563B426A4FB86B76F61674983
:102D4000102063F8F860D20495669BD831E523DD46
:102D500026444B685C0DBE64C4F46F9E5675D36701
:102D60006C88AFEF422ACAE30E51ECA0A304FB54D7
:102D700078A65BA25A77172D0CC11B99EA79A6C1D8
:102D80002A686AFBD365725AB9C89658518D0DF0FE
:102D9000862EE9AC95AF6F873096C2DBF345EEE542
:102DA0003CC25D476C85D1DD4B277C36BECEA84C3E
:102DB00045905EF8EDAD6B320D2A77FF9E3410D34F
:102DC00058E71404AB07FEA1223870278D54A1CC1C
:102DD0009C1CE46EFCD866671341A2D3636D05F5B5
:102DE00041AEDA7F8EE2DF97A01EFD9BB2298BAB4E
:102DF0002C7B90BC82F4D31C132F0287630357EC07
:102E000081CAB392713D156F55980D15A0E1F3037A
:102E1000CC70EBEA287DAAC335E078D45896B60387
:102E2000D89999385DDD59B43D525176F84035D680
:102E30008B681E0238A98DB93A59DAC37B67CE5127
:102E4000D521967BAE29255A08D2FBF35A8AE05B3E
:102E50008BC09067E42FA88FA0F43685B6F00D42A2
:102E600065C4ADEF74FC878D0ECECF7948356CBE4E
:102E7000961379C056392F5F663FAA0D33870B83AF
:102E80003B57807A27FCBFF52D28F1AECC80C4DCFF
:102E900078C095A732DCEB364B3314883015C3AEBF
:102EA000A8C02FB31DB293EE7E66969B095EBF74D9
:102EB0003E445FE778CA21B609C710074F49D139A8
:102EC000D8D972EBFE4033F3C43268462B4BD64957
:102ED000CE17C57ECE57C2A7BD236C4B5E7F978CA5
:102EE0007325AB61CAF7D60445353799AC048E1DFE
:102EF000E602EB2742B5F7F8EECDAC7BDF61C4DE2E
:102F00003A214C07AC059C8F62780A26453D041F88
:102F100005CCD880C8A2E64934E2CEE2559311D957
:102F20003B6A84DF18D81F5C0D39B53B19F1901945
:102F3000382D035761544C8553184445EAEEE54D4E
:102F4000D88F0C7EDE83E52D6415785F5EB618EEB3
:102F500064B3A9D78395CDDD2BC7D203D5FCB92E99
:102F600005F5310207BEA34FE0E59AC1282C82D1B6
:102F700086BE26B4C9599E4F31AA465F46F98EBD1A
:102F8000ACEBDD27308C07E60144E07AC3B6BB43E7
:102F90002CE77532A4DBE08D1E797F810826E215CF
:102FA000C85A4D3EF0AEECD699D3C12ED0C5485389
:102FB000350922A950C7D054B5DCE302E60F3548E5
:102FC000F9E77CB0553F245F887EA225B8473F9C37
:102FD000058D2A91C23A3A701A7825354E076F76D8
:102FE000CEFA7A79197BFA21519431A992C085FAE7
:102FF000C5FBF1CF862F1CF70A4BD39B560FFF9FC3
:10300000B35E313D5367C5489E8CD8C68662D39D5A
:10301000940E099AAE62A563501A23FCA86A9470B4
:10302000E53D636A94E9E44482A2469C64567D14BB
:10303000864BCA298732BE7F135A4B6C0A724C9951
:10304000D745ED4ADD65307C7003613B8E0D51E361
:10305000ED1E995543DBC0288CAAAF4A9465B2ACEB
:103060001CC270BC68782ED0697B5A908CF675199A
:1030700087DBD35ED141E053C90A9B509008B83E2C
:10308000E32BA8A978F970982DC00EF6936E98904E
:1030900011241FBECFEFCDBFDFE3DEBF0E94541867
:1030A0000C946E180C94000080E880930104E0E911
:1030B000F0E080E09491890F319620E3E039F20747
:1030C000C9F78CBB80E8809307043AE09BE822E0D4
:1030D000315090402040E1F700C0F5CFF894FFCF89
:02000004008179
:100000005A5B58595E5F5C5D525350515657545578
:100010004A4B48494E4F4C4D424340414647444568
:100020007A7B78797E7F7C7D727370717677747558
:100030006A6B68696E6F6C6D626360616667646548
:100040001A1B18191E1F1C1D121310111617141538
:100050000A0B08090E0F0C0D020300010607040528
:100060003A3B38393E3F3C3D323330313637343518
:100070002A2B28292E2F2C2D222320212627242508
:10008000DADBD8D9DEDFDCDDD2D3D0D1D6D7D4D5F8
:10009000CACBC8C9CECFCCCDC2C3C0C1C6C7C4C5E8
:1000A000FAFBF8F9FEFFFCFDF2F3F0F1F6F7F4F5D8
:1000B000EAEBE8E9EEEFECEDE2E3E0E1E6E7E4E5C8
:1000C0009A9B98999E9F9C9D9293909196979495B8
:1000D0008A8B88898E8F8C8D8283808186878485A8
:1000E000BABBB8B9BEBFBCBDB2B3B0B1B6B7B4B598
:1000F000AAABA8A9AEAFACADA2A3A0A1A6A7A4A588
:02000004008575
:100000005049434F322055504449205445535400E1
:10001000000102030405060708090A0B0C0D0E0F68
:00000001FF
