:020000040000FA
:10000000A5A4A7A6A1A0A3A2ADACAFAEA9A8ABAA78
:10001000B5B4B7B6B1B0B3B2BDBCBFBEB9B8BBBA68
:1000200085848786818083828D8C8F8E89888B8A58
:1000300095949796919093929D9C9F9E99989B9A48
:10004000E5E4E7E6E1E0E3E2EDECEFEEE9E8EBEA38
:10005000F5F4F7F6F1F0F3F2FDFCFEFEF9F8FBFA29
:10006000C5C4C7C6C1C0C3C2CDCCCFCEC9C8CBCA18
:10007000D5D4D7D6D1D0D3D2DDDCDFDED9D8DBDA08
:1000800025242726212023222D2C2F2E29282B2AF8
:1000900035343736313033323D3C3F3E39383B3AE8
:1000A00005040706010003020D0C0F0E09080B0AD8
:1000B00015141716111013121D1C1F1E19181B1AC8
:1000C00065646766616063626D6C6F6E69686B6AB8
:1000D00075747776717073727D7C7F7E79787B7AA8
:1000E00045444746414043424D4C4F4E49484B4A98
:1000F00055545756515053525D5C5F5E59585B5A88
:10010000A5A4A7A6A1A0A3A2ADACAFAEA9A8ABAA77
:10011000B5B4B7B6B1B0B3B2BDBCBFBEB9B8BBBA67
:1001200085848786818083828D8C8F8E89888B8A57
:1001300095949796919093929D9C9F9E99989B9A47
:10014000E5E4E7E6E1E0E3E2EDECEFEEE9E8EBEA37
:10015000F5F4F7F6F1F0F3F2FDFCFEFEF9F8FBFA28
:10016000C5C4C7C6C1C0C3C2CDCCCFCEC9C8CBCA17
:10017000D5D4D7D6D1D0D3D2DDDCDFDED9D8DBDA07
:1001800025242726212023222D2C2F2E29282B2AF7
:1001900035343736313033323D3C3F3E39383B3AE7
:1001A00005040706010003020D0C0F0E09080B0AD7
:1001B00015141716111013121D1C1F1E19181B1AC7
:1001C00065646766616063626D6C6F6E69686B6AB7
:1001D00075747776717073727D7C7F7E79787B7AA7
:1001E00045444746414043424D4C4F4E49484B4A97
:1001F00055545756515053525D5C5F5E59585B5A87
:10020000A5A4A7A6A1A0A3A2ADACAFAEA9A8ABAA76
:10021000B5B4B7B6B1B0B3B2BDBCBFBEB9B8BBBA66
:1002200085848786818083828D8C8F8E89888B8A56
:1002300095949796919093929D9C9F9E99989B9A46
:10024000E5E4E7E6E1E0E3E2EDECEFEEE9E8EBEA36
:10025000F5F4F7F6F1F0F3F2FDFCFEFEF9F8FBFA27
:10026000C5C4C7C6C1C0C3C2CDCCCFCEC9C8CBCA16
:10027000D5D4D7D6D1D0D3D2DDDCDFDED9D8DBDA06
:1002800025242726212023222D2C2F2E29282B2AF6
:1002900035343736313033323D3C3F3E39383B3AE6
:1002A00005040706010003020D0C0F0E09080B0AD6
:1002B00015141716111013121D1C1F1E19181B1AC6
:1002C00065646766616063626D6C6F6E69686B6AB6
:1002D00075747776717073727D7C7F7E79787B7AA6
:1002E00045444746414043424D4C4F4E49484B4A96
:1002F00055545756515053525D5C5F5E59585B5A86
:10030000A5A4A7A6A1A0A3A2ADACAFAEA9A8ABAA75
:10031000B5B4B7B6B1B0B3B2BDBCBFBEB9B8BBBA65
:1003200085848786818083828D8C8F8E89888B8A55
:1003300095949796919093929D9C9F9E99989B9A45
:10034000E5E4E7E6E1E0E3E2EDECEFEEE9E8EBEA35
:10035000F5F4F7F6F1F0F3F2FDFCFEFEF9F8FBFA26
:10036000C5C4C7C6C1C0C3C2CDCCCFCEC9C8CBCA15
:10037000D5D4D7D6D1D0D3D2DDDCDFDED9D8DBDA05
:1003800025242726212023222D2C2F2E29282B2AF5
:1003900035343736313033323D3C3F3E39383B3AE5
:1003A00005040706010003020D0C0F0E09080B0AD5
:1003B00015141716111013121D1C1F1E19181B1AC5
:1003C00065646766616063626D6C6F6E69686B6AB5
:1003D00075747776717073727D7C7F7E79787B7AA5
:1003E00045444746414043424D4C4F4E49484B4A95
:1003F00055545756515053525D5C5F5E59585B5A85
:10040000A5A4A7A6A1A0A3A2ADACAFAEA9A8ABAA74
:10041000B5B4B7B6B1B0B3B2BDBCBFBEB9B8BBBA64
:1004200085848786818083828D8C8F8E89888B8A54
:1004300095949796919093929D9C9F9E99989B9A44
:10044000E5E4E7E6E1E0E3E2EDECEFEEE9E8EBEA34
:10045000F5F4F7F6F1F0F3F2FDFCFEFEF9F8FBFA25
:10046000C5C4C7C6C1C0C3C2CDCCCFCEC9C8CBCA14
:10047000D5D4D7D6D1D0D3D2DDDCDFDED9D8DBDA04
:1004800025242726212023222D2C2F2E29282B2AF4
:1004900035343736313033323D3C3F3E39383B3AE4
:1004A00005040706010003020D0C0F0E09080B0AD4
:1004B00015141716111013121D1C1F1E19181B1AC4
:1004C00065646766616063626D6C6F6E69686B6AB4
:1004D00075747776717073727D7C7F7E79787B7AA4
:1004E00045444746414043424D4C4F4E49484B4A94
:1004F00055545756515053525D5C5F5E59585B5A84
:10050000A5A4A7A6A1A0A3A2ADACAFAEA9A8ABAA73
:10051000B5B4B7B6B1B0B3B2BDBCBFBEB9B8BBBA63
:1005200085848786818083828D8C8F8E89888B8A53
:1005300095949796919093929D9C9F9E99989B9A43
:10054000E5E4E7E6E1E0E3E2EDECEFEEE9E8EBEA33
:10055000F5F4F7F6F1F0F3F2FDFCFEFEF9F8FBFA24
:10056000C5C4C7C6C1C0C3C2CDCCCFCEC9C8CBCA13
:10057000D5D4D7D6D1D0D3D2DDDCDFDED9D8DBDA03
:1005800025242726212023222D2C2F2E29282B2AF3
:1005900035343736313033323D3C3F3E39383B3AE3
:1005A00005040706010003020D0C0F0E09080B0AD3
:1005B00015141716111013121D1C1F1E19181B1AC3
:1005C00065646766616063626D6C6F6E69686B6AB3
:1005D00075747776717073727D7C7F7E79787B7AA3
:1005E00045444746414043424D4C4F4E49484B4A93
:1005F00055545756515053525D5C5F5E59585B5A83
:10060000A5A4A7A6A1A0A3A2ADACAFAEA9A8ABAA72
:10061000B5B4B7B6B1B0B3B2BDBCBFBEB9B8BBBA62
:1006200085848786818083828D8C8F8E89888B8A52
:1006300095949796919093929D9C9F9E99989B9A42
:10064000E5E4E7E6E1E0E3E2EDECEFEEE9E8EBEA32
:10065000F5F4F7F6F1F0F3F2FDFCFEFEF9F8FBFA23
:10066000C5C4C7C6C1C0C3C2CDCCCFCEC9C8CBCA12
:10067000D5D4D7D6D1D0D3D2DDDCDFDED9D8DBDA02
:1006800025242726212023222D2C2F2E29282B2AF2
:1006900035343736313033323D3C3F3E39383B3AE2
:1006A00005040706010003020D0C0F0E09080B0AD2
:1006B00015141716111013121D1C1F1E19181B1AC2
:1006C00065646766616063626D6C6F6E69686B6AB2
:1006D00075747776717073727D7C7F7E79787B7AA2
:1006E00045444746414043424D4C4F4E49484B4A92
:1006F00055545756515053525D5C5F5E59585B5A82
:10070000A5A4A7A6A1A0A3A2ADACAFAEA9A8ABAA71
:10071000B5B4B7B6B1B0B3B2BDBCBFBEB9B8BBBA61
:1007200085848786818083828D8C8F8E89888B8A51
:1007300095949796919093929D9C9F9E99989B9A41
:10074000E5E4E7E6E1E0E3E2EDECEFEEE9E8EBEA31
:10075000F5F4F7F6F1F0F3F2FDFCFEFEF9F8FBFA22
:10076000C5C4C7C6C1C0C3C2CDCCCFCEC9C8CBCA11
:10077000D5D4D7D6D1D0D3D2DDDCDFDED9D8DBDA01
:1007800025242726212023222D2C2F2E29282B2AF1
:1007900035343736313033323D3C3F3E39383B3AE1
:1007A00005040706010003020D0C0F0E09080B0AD1
:1007B00015141716111013121D1C1F1E19181B1AC1
:1007C00065646766616063626D6C6F6E69686B6AB1
:1007D00075747776717073727D7C7F7E79787B7AA1
:1007E00045444746414043424D4C4F4E49484B4A91
:1007F00055545756515053525D5C5F5E59585B5A81
:10080000A5A4A7A6A1A0A3A2ADACAFAEA9A8ABAA70
:10081000B5B4B7B6B1B0B3B2BDBCBFBEB9B8BBBA60
:1008200085848786818083828D8C8F8E89888B8A50
:1008300095949796919093929D9C9F9E99989B9A40
:10084000E5E4E7E6E1E0E3E2EDECEFEEE9E8EBEA30
:10085000F5F4F7F6F1F0F3F2FDFCFEFEF9F8FBFA21
:10086000C5C4C7C6C1C0C3C2CDCCCFCEC9C8CBCA10
:10087000D5D4D7D6D1D0D3D2DDDCDFDED9D8DBDA00
:1008800025242726212023222D2C2F2E29282B2AF0
:1008900035343736313033323D3C3F3E39383B3AE0
:1008A00005040706010003020D0C0F0E09080B0AD0
:1008B00015141716111013121D1C1F1E19181B1AC0
:1008C00065646766616063626D6C6F6E69686B6AB0
:1008D00075747776717073727D7C7F7E79787B7AA0
:1008E00045444746414043424D4C4F4E49484B4A90
:1008F00055545756515053525D5C5F5E59585B5A80
:10090000A5A4A7A6A1A0A3A2ADACAFAEA9A8ABAA6F
:10091000B5B4B7B6B1B0B3B2BDBCBFBEB9B8BBBA5F
:1009200085848786818083828D8C8F8E89888B8A4F
:1009300095949796919093929D9C9F9E99989B9A3F
:10094000E5E4E7E6E1E0E3E2EDECEFEEE9E8EBEA2F
:10095000F5F4F7F6F1F0F3F2FDFCFEFEF9F8FBFA20
:10096000C5C4C7C6C1C0C3C2CDCCCFCEC9C8CBCA0F
:10097000D5D4D7D6D1D0D3D2DDDCDFDED9D8DBDAFF
:1009800025242726212023222D2C2F2E29282B2AEF
:1009900035343736313033323D3C3F3E39383B3ADF
:1009A00005040706010003020D0C0F0E09080B0ACF
:1009B00015141716111013121D1C1F1E19181B1ABF
:1009C00065646766616063626D6C6F6E69686B6AAF
:1009D00075747776717073727D7C7F7E79787B7A9F
:1009E00045444746414043424D4C4F4E49484B4A8F
:1009F00055545756515053525D5C5F5E59585B5A7F
:100A0000A5A4A7A6A1A0A3A2ADACAFAEA9A8ABAA6E
:100A1000B5B4B7B6B1B0B3B2BDBCBFBEB9B8BBBA5E
:100A200085848786818083828D8C8F8E89888B8A4E
:100A300095949796919093929D9C9F9E99989B9A3E
:100A4000E5E4E7E6E1E0E3E2EDECEFEEE9E8EBEA2E
:100A5000F5F4F7F6F1F0F3F2FDFCFEFEF9F8FBFA1F
:100A6000C5C4C7C6C1C0C3C2CDCCCFCEC9C8CBCA0E
:100A7000D5D4D7D6D1D0D3D2DDDCDFDED9D8DBDAFE
:100A800025242726212023222D2C2F2E29282B2AEE
:100A900035343736313033323D3C3F3E39383B3ADE
:100AA00005040706010003020D0C0F0E09080B0ACE
:100AB00015141716111013121D1C1F1E19181B1ABE
:100AC00065646766616063626D6C6F6E69686B6AAE
:100AD00075747776717073727D7C7F7E79787B7A9E
:100AE00045444746414043424D4C4F4E49484B4A8E
:100AF00055545756515053525D5C5F5E59585B5A7E
:100B0000A5A4A7A6A1A0A3A2ADACAFAEA9A8ABAA6D
:100B1000B5B4B7B6B1B0B3B2BDBCBFBEB9B8BBBA5D
:100B200085848786818083828D8C8F8E89888B8A4D
:100B300095949796919093929D9C9F9E99989B9A3D
:100B4000E5E4E7E6E1E0E3E2EDECEFEEE9E8EBEA2D
:100B5000F5F4F7F6F1F0F3F2FDFCFEFEF9F8FBFA1E
:100B6000C5C4C7C6C1C0C3C2CDCCCFCEC9C8CBCA0D
:100B7000D5D4D7D6D1D0D3D2DDDCDFDED9D8DBDAFD
:100B800025242726212023222D2C2F2E29282B2AED
:100B900035343736313033323D3C3F3E39383B3ADD
:100BA00005040706010003020D0C0F0E09080B0ACD
:100BB00015141716111013121D1C1F1E19181B1ABD
:100BC00065646766616063626D6C6F6E69686B6AAD
:100BD00075747776717073727D7C7F7E79787B7A9D
:100BE00045444746414043424D4C4F4E49484B4A8D
:100BF00055545756515053525D5C5F5E59585B5A7D
:100C0000A5A4A7A6A1A0A3A2ADACAFAEA9A8ABAA6C
:100C1000B5B4B7B6B1B0B3B2BDBCBFBEB9B8BBBA5C
:100C200085848786818083828D8C8F8E89888B8A4C
:100C300095949796919093929D9C9F9E99989B9A3C
:100C4000E5E4E7E6E1E0E3E2EDECEFEEE9E8EBEA2C
:100C5000F5F4F7F6F1F0F3F2FDFCFEFEF9F8FBFA1D
:100C6000C5C4C7C6C1C0C3C2CDCCCFCEC9C8CBCA0C
:100C7000D5D4D7D6D1D0D3D2DDDCDFDED9D8DBDAFC
:100C800025242726212023222D2C2F2E29282B2AEC
:100C900035343736313033323D3C3F3E39383B3ADC
:100CA00005040706010003020D0C0F0E09080B0ACC
:100CB00015141716111013121D1C1F1E19181B1ABC
:100CC00065646766616063626D6C6F6E69686B6AAC
:100CD00075747776717073727D7C7F7E79787B7A9C
:100CE00045444746414043424D4C4F4E49484B4A8C
:100CF00055545756515053525D5C5F5E59585B5A7C
:100D0000A5A4A7A6A1A0A3A2ADACAFAEA9A8ABAA6B
:100D1000B5B4B7B6B1B0B3B2BDBCBFBEB9B8BBBA5B
:100D200085848786818083828D8C8F8E89888B8A4B
:100D300095949796919093929D9C9F9E99989B9A3B
:100D4000E5E4E7E6E1E0E3E2EDECEFEEE9E8EBEA2B
:100D5000F5F4F7F6F1F0F3F2FDFCFEFEF9F8FBFA1C
:100D6000C5C4C7C6C1C0C3C2CDCCCFCEC9C8CBCA0B
:100D7000D5D4D7D6D1D0D3D2DDDCDFDED9D8DBDAFB
:100D800025242726212023222D2C2F2E29282B2AEB
:100D900035343736313033323D3C3F3E39383B3ADB
:100DA00005040706010003020D0C0F0E09080B0ACB
:100DB00015141716111013121D1C1F1E19181B1ABB
:100DC00065646766616063626D6C6F6E69686B6AAB
:100DD00075747776717073727D7C7F7E79787B7A9B
:100DE00045444746414043424D4C4F4E49484B4A8B
:100DF00055545756515053525D5C5F5E59585B5A7B
:100E0000A5A4A7A6A1A0A3A2ADACAFAEA9A8ABAA6A
:100E1000B5B4B7B6B1B0B3B2BDBCBFBEB9B8BBBA5A
:100E200085848786818083828D8C8F8E89888B8A4A
:100E300095949796919093929D9C9F9E99989B9A3A
:100E4000E5E4E7E6E1E0E3E2EDECEFEEE9E8EBEA2A
:100E5000F5F4F7F6F1F0F3F2FDFCFEFEF9F8FBFA1B
:100E6000C5C4C7C6C1C0C3C2CDCCCFCEC9C8CBCA0A
:100E7000D5D4D7D6D1D0D3D2DDDCDFDED9D8DBDAFA
:100E800025242726212023222D2C2F2E29282B2AEA
:100E900035343736313033323D3C3F3E39383B3ADA
:100EA00005040706010003020D0C0F0E09080B0ACA
:100EB00015141716111013121D1C1F1E19181B1ABA
:100EC00065646766616063626D6C6F6E69686B6AAA
:100ED00075747776717073727D7C7F7E79787B7A9A
:100EE00045444746414043424D4C4F4E49484B4A8A
:100EF00055545756515053525D5C5F5E59585B5A7A
:100F0000A5A4A7A6A1A0A3A2ADACAFAEA9A8ABAA69
:100F1000B5B4B7B6B1B0B3B2BDBCBFBEB9B8BBBA59
:100F200085848786818083828D8C8F8E89888B8A49
:100F300095949796919093929D9C9F9E99989B9A39
:100F4000E5E4E7E6E1E0E3E2EDECEFEEE9E8EBEA29
:100F5000F5F4F7F6F1F0F3F2FDFCFEFEF9F8FBFA1A
:100F6000C5C4C7C6C1C0C3C2CDCCCFCEC9C8CBCA09
:100F7000D5D4D7D6D1D0D3D2DDDCDFDED9D8DBDAF9
:100F800025242726212023222D2C2F2E29282B2AE9
:100F900035343736313033323D3C3F3E39383B3AD9
:100FA00005040706010003020D0C0F0E09080B0AC9
:100FB00015141716111013121D1C1F1E19181B1AB9
:100FC00065646766616063626D6C6F6E69686B6AA9
:100FD00075747776717073727D7C7F7E79787B7A99
:100FE00045444746414043424D4C4F4E49484B4A89
:100FF00055545756515053525D5C5F5E59585B5A79
:10100000A5A4A7A6A1A0A3A2ADACAFAEA9A8ABAA68
:10101000B5B4B7B6B1B0B3B2BDBCBFBEB9B8BBBA58
:1010200085848786818083828D8C8F8E89888B8A48
:1010300095949796919093929D9C9F9E99989B9A38
:10104000E5E4E7E6E1E0E3E2EDECEFEEE9E8EBEA28
:10105000F5F4F7F6F1F0F3F2FDFCFEFEF9F8FBFA19
:10106000C5C4C7C6C1C0C3C2CDCCCFCEC9C8CBCA08
:10107000D5D4D7D6D1D0D3D2DDDCDFDED9D8DBDAF8
:1010800025242726212023222D2C2F2E29282B2AE8
:1010900035343736313033323D3C3F3E39383B3AD8
:1010A00005040706010003020D0C0F0E09080B0AC8
:1010B00015141716111013121D1C1F1E19181B1AB8
:1010C00065646766616063626D6C6F6E69686B6AA8
:1010D00075747776717073727D7C7F7E79787B7A98
:1010E00045444746414043424D4C4F4E49484B4A88
:1010F00055545756515053525D5C5F5E59585B5A78
:10110000A5A4A7A6A1A0A3A2ADACAFAEA9A8ABAA67
:10111000B5B4B7B6B1B0B3B2BDBCBFBEB9B8BBBA57
:1011200085848786818083828D8C8F8E89888B8A47
:1011300095949796919093929D9C9F9E99989B9A37
:10114000E5E4E7E6E1E0E3E2EDECEFEEE9E8EBEA27
:10115000F5F4F7F6F1F0F3F2FDFCFEFEF9F8FBFA18
:10116000C5C4C7C6C1C0C3C2CDCCCFCEC9C8CBCA07
:10117000D5D4D7D6D1D0D3D2DDDCDFDED9D8DBDAF7
:1011800025242726212023222D2C2F2E29282B2AE7
:1011900035343736313033323D3C3F3E39383B3AD7
:1011A00005040706010003020D0C0F0E09080B0AC7
:1011B00015141716111013121D1C1F1E19181B1AB7
:1011C00065646766616063626D6C6F6E69686B6AA7
:1011D00075747776717073727D7C7F7E79787B7A97
:1011E00045444746414043424D4C4F4E49484B4A87
:1011F00055545756515053525D5C5F5E59585B5A77
:10120000A5A4A7A6A1A0A3A2ADACAFAEA9A8ABAA66
:10121000B5B4B7B6B1B0B3B2BDBCBFBEB9B8BBBA56
:1012200085848786818083828D8C8F8E89888B8A46
:1012300095949796919093929D9C9F9E99989B9A36
:10124000E5E4E7E6E1E0E3E2EDECEFEEE9E8EBEA26
:10125000F5F4F7F6F1F0F3F2FDFCFEFEF9F8FBFA17
:10126000C5C4C7C6C1C0C3C2CDCCCFCEC9C8CBCA06
:10127000D5D4D7D6D1D0D3D2DDDCDFDED9D8DBDAF6
:1012800025242726212023222D2C2F2E29282B2AE6
:1012900035343736313033323D3C3F3E39383B3AD6
:1012A00005040706010003020D0C0F0E09080B0AC6
:1012B00015141716111013121D1C1F1E19181B1AB6
:1012C00065646766616063626D6C6F6E69686B6AA6
:1012D00075747776717073727D7C7F7E79787B7A96
:1012E00045444746414043424D4C4F4E49484B4A86
:1012F00055545756515053525D5C5F5E59585B5A76
:10130000A5A4A7A6A1A0A3A2ADACAFAEA9A8ABAA65
:10131000B5B4B7B6B1B0B3B2BDBCBFBEB9B8BBBA55
:1013200085848786818083828D8C8F8E89888B8A45
:1013300095949796919093929D9C9F9E99989B9A35
:10134000E5E4E7E6E1E0E3E2EDECEFEEE9E8EBEA25
:10135000F5F4F7F6F1F0F3F2FDFCFEFEF9F8FBFA16
:10136000C5C4C7C6C1C0C3C2CDCCCFCEC9C8CBCA05
:10137000D5D4D7D6D1D0D3D2DDDCDFDED9D8DBDAF5
:1013800025242726212023222D2C2F2E29282B2AE5
:1013900035343736313033323D3C3F3E39383B3AD5
:1013A00005040706010003020D0C0F0E09080B0AC5
:1013B00015141716111013121D1C1F1E19181B1AB5
:1013C00065646766616063626D6C6F6E69686B6AA5
:1013D00075747776717073727D7C7F7E79787B7A95
:1013E00045444746414043424D4C4F4E49484B4A85
:1013F00055545756515053525D5C5F5E59585B5A75
:10140000A5A4A7A6A1A0A3A2ADACAFAEA9A8ABAA64
:10141000B5B4B7B6B1B0B3B2BDBCBFBEB9B8BBBA54
:1014200085848786818083828D8C8F8E89888B8A44
:1014300095949796919093929D9C9F9E99989B9A34
:10144000E5E4E7E6E1E0E3E2EDECEFEEE9E8EBEA24
:10145000F5F4F7F6F1F0F3F2FDFCFEFEF9F8FBFA15
:10146000C5C4C7C6C1C0C3C2CDCCCFCEC9C8CBCA04
:10147000D5D4D7D6D1D0D3D2DDDCDFDED9D8DBDAF4
:1014800025242726212023222D2C2F2E29282B2AE4
:1014900035343736313033323D3C3F3E39383B3AD4
:1014A00005040706010003020D0C0F0E09080B0AC4
:1014B00015141716111013121D1C1F1E19181B1AB4
:1014C00065646766616063626D6C6F6E69686B6AA4
:1014D00075747776717073727D7C7F7E79787B7A94
:1014E00045444746414043424D4C4F4E49484B4A84
:1014F00055545756515053525D5C5F5E59585B5A74
:10150000A5A4A7A6A1A0A3A2ADACAFAEA9A8ABAA63
:10151000B5B4B7B6B1B0B3B2BDBCBFBEB9B8BBBA53
:1015200085848786818083828D8C8F8E89888B8A43
:1015300095949796919093929D9C9F9E99989B9A33
:10154000E5E4E7E6E1E0E3E2EDECEFEEE9E8EBEA23
:10155000F5F4F7F6F1F0F3F2FDFCFEFEF9F8FBFA14
:10156000C5C4C7C6C1C0C3C2CDCCCFCEC9C8CBCA03
:10157000D5D4D7D6D1D0D3D2DDDCDFDED9D8DBDAF3
:1015800025242726212023222D2C2F2E29282B2AE3
:1015900035343736313033323D3C3F3E39383B3AD3
:1015A00005040706010003020D0C0F0E09080B0AC3
:1015B00015141716111013121D1C1F1E19181B1AB3
:1015C00065646766616063626D6C6F6E69686B6AA3
:1015D00075747776717073727D7C7F7E79787B7A93
:1015E00045444746414043424D4C4F4E49484B4A83
:1015F00055545756515053525D5C5F5E59585B5A73
:10160000A5A4A7A6A1A0A3A2ADACAFAEA9A8ABAA62
:10161000B5B4B7B6B1B0B3B2BDBCBFBEB9B8BBBA52
:1016200085848786818083828D8C8F8E89888B8A42
:1016300095949796919093929D9C9F9E99989B9A32
:10164000E5E4E7E6E1E0E3E2EDECEFEEE9E8EBEA22
:10165000F5F4F7F6F1F0F3F2FDFCFEFEF9F8FBFA13
:10166000C5C4C7C6C1C0C3C2CDCCCFCEC9C8CBCA02
:10167000D5D4D7D6D1D0D3D2DDDCDFDED9D8DBDAF2
:1016800025242726212023222D2C2F2E29282B2AE2
:1016900035343736313033323D3C3F3E39383B3AD2
:1016A00005040706010003020D0C0F0E09080B0AC2
:1016B00015141716111013121D1C1F1E19181B1AB2
:1016C00065646766616063626D6C6F6E69686B6AA2
:1016D00075747776717073727D7C7F7E79787B7A92
:1016E00045444746414043424D4C4F4E49484B4A82
:1016F00055545756515053525D5C5F5E59585B5A72
:10170000A5A4A7A6A1A0A3A2ADACAFAEA9A8ABAA61
:10171000B5B4B7B6B1B0B3B2BDBCBFBEB9B8BBBA51
:1017200085848786818083828D8C8F8E89888B8A41
:1017300095949796919093929D9C9F9E99989B9A31
:10174000E5E4E7E6E1E0E3E2EDECEFEEE9E8EBEA21
:10175000F5F4F7F6F1F0F3F2FDFCFEFEF9F8FBFA12
:10176000C5C4C7C6C1C0C3C2CDCCCFCEC9C8CBCA01
:10177000D5D4D7D6D1D0D3D2DDDCDFDED9D8DBDAF1
:1017800025242726212023222D2C2F2E29282B2AE1
:1017900035343736313033323D3C3F3E39383B3AD1
:1017A00005040706010003020D0C0F0E09080B0AC1
:1017B00015141716111013121D1C1F1E19181B1AB1
:1017C00065646766616063626D6C6F6E69686B6AA1
:1017D00075747776717073727D7C7F7E79787B7A91
:1017E00045444746414043424D4C4F4E49484B4A81
:1017F00055545756515053525D5C5F5E59585B5A71
:10180000A5A4A7A6A1A0A3A2ADACAFAEA9A8ABAA60
:10181000B5B4B7B6B1B0B3B2BDBCBFBEB9B8BBBA50
:1018200085848786818083828D8C8F8E89888B8A40
:1018300095949796919093929D9C9F9E99989B9A30
:10184000E5E4E7E6E1E0E3E2EDECEFEEE9E8EBEA20
:10185000F5F4F7F6F1F0F3F2FDFCFEFEF9F8FBFA11
:10186000C5C4C7C6C1C0C3C2CDCCCFCEC9C8CBCA00
:10187000D5D4D7D6D1D0D3D2DDDCDFDED9D8DBDAF0
:1018800025242726212023222D2C2F2E29282B2AE0
:1018900035343736313033323D3C3F3E39383B3AD0
:1018A00005040706010003020D0C0F0E09080B0AC0
:1018B00015141716111013121D1C1F1E19181B1AB0
:1018C00065646766616063626D6C6F6E69686B6AA0
:1018D00075747776717073727D7C7F7E79787B7A90
:1018E00045444746414043424D4C4F4E49484B4A80
:1018F00055545756515053525D5C5F5E59585B5A70
:10190000A5A4A7A6A1A0A3A2ADACAFAEA9A8ABAA5F
:10191000B5B4B7B6B1B0B3B2BDBCBFBEB9B8BBBA4F
:1019200085848786818083828D8C8F8E89888B8A3F
:1019300095949796919093929D9C9F9E99989B9A2F
:10194000E5E4E7E6E1E0E3E2EDECEFEEE9E8EBEA1F
:10195000F5F4F7F6F1F0F3F2FDFCFEFEF9F8FBFA10
:10196000C5C4C7C6C1C0C3C2CDCCCFCEC9C8CBCAFF
:10197000D5D4D7D6D1D0D3D2DDDCDFDED9D8DBDAEF
:1019800025242726212023222D2C2F2E29282B2ADF
:1019900035343736313033323D3C3F3E39383B3ACF
:1019A00005040706010003020D0C0F0E09080B0ABF
:1019B00015141716111013121D1C1F1E19181B1AAF
:1019C00065646766616063626D6C6F6E69686B6A9F
:1019D00075747776717073727D7C7F7E79787B7A8F
:1019E00045444746414043424D4C4F4E49484B4A7F
:1019F00055545756515053525D5C5F5E59585B5A6F
:101A0000A5A4A7A6A1A0A3A2ADACAFAEA9A8ABAA5E
:101A1000B5B4B7B6B1B0B3B2BDBCBFBEB9B8BBBA4E
:101A200085848786818083828D8C8F8E89888B8A3E
:101A300095949796919093929D9C9F9E99989B9A2E
:101A4000E5E4E7E6E1E0E3E2EDECEFEEE9E8EBEA1E
:101A5000F5F4F7F6F1F0F3F2FDFCFEFEF9F8FBFA0F
:101A6000C5C4C7C6C1C0C3C2CDCCCFCEC9C8CBCAFE
:101A7000D5D4D7D6D1D0D3D2DDDCDFDED9D8DBDAEE
:101A800025242726212023222D2C2F2E29282B2ADE
:101A900035343736313033323D3C3F3E39383B3ACE
:101AA00005040706010003020D0C0F0E09080B0ABE
:101AB00015141716111013121D1C1F1E19181B1AAE
:101AC00065646766616063626D6C6F6E69686B6A9E
:101AD00075747776717073727D7C7F7E79787B7A8E
:101AE00045444746414043424D4C4F4E49484B4A7E
:101AF00055545756515053525D5C5F5E59585B5A6E
:101B0000A5A4A7A6A1A0A3A2ADACAFAEA9A8ABAA5D
:101B1000B5B4B7B6B1B0B3B2BDBCBFBEB9B8BBBA4D
:101B200085848786818083828D8C8F8E89888B8A3D
:101B300095949796919093929D9C9F9E99989B9A2D
:101B4000E5E4E7E6E1E0E3E2EDECEFEEE9E8EBEA1D
:101B5000F5F4F7F6F1F0F3F2FDFCFEFEF9F8FBFA0E
:101B6000C5C4C7C6C1C0C3C2CDCCCFCEC9C8CBCAFD
:101B7000D5D4D7D6D1D0D3D2DDDCDFDED9D8DBDAED
:101B800025242726212023222D2C2F2E29282B2ADD
:101B900035343736313033323D3C3F3E39383B3ACD
:101BA00005040706010003020D0C0F0E09080B0ABD
:101BB00015141716111013121D1C1F1E19181B1AAD
:101BC00065646766616063626D6C6F6E69686B6A9D
:101BD00075747776717073727D7C7F7E79787B7A8D
:101BE00045444746414043424D4C4F4E49484B4A7D
:101BF00055545756515053525D5C5F5E59585B5A6D
:101C0000A5A4A7A6A1A0A3A2ADACAFAEA9A8ABAA5C
:101C1000B5B4B7B6B1B0B3B2BDBCBFBEB9B8BBBA4C
:101C200085848786818083828D8C8F8E89888B8A3C
:101C300095949796919093929D9C9F9E99989B9A2C
:101C4000E5E4E7E6E1E0E3E2EDECEFEEE9E8EBEA1C
:101C5000F5F4F7F6F1F0F3F2FDFCFEFEF9F8FBFA0D
:101C6000C5C4C7C6C1C0C3C2CDCCCFCEC9C8CBCAFC
:101C7000D5D4D7D6D1D0D3D2DDDCDFDED9D8DBDAEC
:101C800025242726212023222D2C2F2E29282B2ADC
:101C900035343736313033323D3C3F3E39383B3ACC
:101CA00005040706010003020D0C0F0E09080B0ABC
:101CB00015141716111013121D1C1F1E19181B1AAC
:101CC00065646766616063626D6C6F6E69686B6A9C
:101CD00075747776717073727D7C7F7E79787B7A8C
:101CE00045444746414043424D4C4F4E49484B4A7C
:101CF00055545756515053525D5C5F5E59585B5A6C
:101D0000A5A4A7A6A1A0A3A2ADACAFAEA9A8ABAA5B
:101D1000B5B4B7B6B1B0B3B2BDBCBFBEB9B8BBBA4B
:101D200085848786818083828D8C8F8E89888B8A3B
:101D300095949796919093929D9C9F9E99989B9A2B
:101D4000E5E4E7E6E1E0E3E2EDECEFEEE9E8EBEA1B
:101D5000F5F4F7F6F1F0F3F2FDFCFEFEF9F8FBFA0C
:101D6000C5C4C7C6C1C0C3C2CDCCCFCEC9C8CBCAFB
:101D7000D5D4D7D6D1D0D3D2DDDCDFDED9D8DBDAEB
:101D800025242726212023222D2C2F2E29282B2ADB
:101D900035343736313033323D3C3F3E39383B3ACB
:101DA00005040706010003020D0C0F0E09080B0ABB
:101DB00015141716111013121D1C1F1E19181B1AAB
:101DC00065646766616063626D6C6F6E69686B6A9B
:101DD00075747776717073727D7C7F7E79787B7A8B
:101DE00045444746414043424D4C4F4E49484B4A7B
:101DF00055545756515053525D5C5F5E59585B5A6B
:101E0000A5A4A7A6A1A0A3A2ADACAFAEA9A8ABAA5A
:101E1000B5B4B7B6B1B0B3B2BDBCBFBEB9B8BBBA4A
:101E200085848786818083828D8C8F8E89888B8A3A
:101E300095949796919093929D9C9F9E99989B9A2A
:101E4000E5E4E7E6E1E0E3E2EDECEFEEE9E8EBEA1A
:101E5000F5F4F7F6F1F0F3F2FDFCFEFEF9F8FBFA0B
:101E6000C5C4C7C6C1C0C3C2CDCCCFCEC9C8CBCAFA
:101E7000D5D4D7D6D1D0D3D2DDDCDFDED9D8DBDAEA
:101E800025242726212023222D2C2F2E29282B2ADA
:101E900035343736313033323D3C3F3E39383B3ACA
:101EA00005040706010003020D0C0F0E09080B0ABA
:101EB00015141716111013121D1C1F1E19181B1AAA
:101EC00065646766616063626D6C6F6E69686B6A9A
:101ED00075747776717073727D7C7F7E79787B7A8A
:101EE00045444746414043424D4C4F4E49484B4A7A
:101EF00055545756515053525D5C5F5E59585B5A6A
:101F0000A5A4A7A6A1A0A3A2ADACAFAEA9A8ABAA59
:101F1000B5B4B7B6B1B0B3B2BDBCBFBEB9B8BBBA49
:101F200085848786818083828D8C8F8E89888B8A39
:101F300095949796919093929D9C9F9E99989B9A29
:101F4000E5E4E7E6E1E0E3E2EDECEFEEE9E8EBEA19
:101F5000F5F4F7F6F1F0F3F2FDFCFEFEF9F8FBFA0A
:101F6000C5C4C7C6C1C0C3C2CDCCCFCEC9C8CBCAF9
:101F7000D5D4D7D6D1D0D3D2DDDCDFDED9D8DBDAE9
:101F800025242726212023222D2C2F2E29282B2AD9
:101F900035343736313033323D3C3F3E39383B3AC9
:101FA00005040706010003020D0C0F0E09080B0AB9
:101FB00015141716111013121D1C1F1E19181B1AA9
:101FC00065646766616063626D6C6F6E69686B6A99
:101FD00075747776717073727D7C7F7E79787B7A89
:101FE00045444746414043424D4C4F4E49484B4A79
:101FF00055545756515053525D5C5F5E59585B5A69
:10200000A5A4A7A6A1A0A3A2ADACAFAEA9A8ABAA58
:10201000B5B4B7B6B1B0B3B2BDBCBFBEB9B8BBBA48
:1020200085848786818083828D8C8F8E89888B8A38
:1020300095949796919093929D9C9F9E99989B9A28
:10204000E5E4E7E6E1E0E3E2EDECEFEEE9E8EBEA18
:10205000F5F4F7F6F1F0F3F2FDFCFEFEF9F8FBFA09
:10206000C5C4C7C6C1C0C3C2CDCCCFCEC9C8CBCAF8
:10207000D5D4D7D6D1D0D3D2DDDCDFDED9D8DBDAE8
:1020800025242726212023222D2C2F2E29282B2AD8
:1020900035343736313033323D3C3F3E39383B3AC8
:1020A00005040706010003020D0C0F0E09080B0AB8
:1020B00015141716111013121D1C1F1E19181B1AA8
:1020C00065646766616063626D6C6F6E69686B6A98
:1020D00075747776717073727D7C7F7E79787B7A88
:1020E00045444746414043424D4C4F4E49484B4A78
:1020F00055545756515053525D5C5F5E59585B5A68
:10210000A5A4A7A6A1A0A3A2ADACAFAEA9A8ABAA57
:10211000B5B4B7B6B1B0B3B2BDBCBFBEB9B8BBBA47
:1021200085848786818083828D8C8F8E89888B8A37
:1021300095949796919093929D9C9F9E99989B9A27
:10214000E5E4E7E6E1E0E3E2EDECEFEEE9E8EBEA17
:10215000F5F4F7F6F1F0F3F2FDFCFEFEF9F8FBFA08
:10216000C5C4C7C6C1C0C3C2CDCCCFCEC9C8CBCAF7
:10217000D5D4D7D6D1D0D3D2DDDCDFDED9D8DBDAE7
:1021800025242726212023222D2C2F2E29282B2AD7
:1021900035343736313033323D3C3F3E39383B3AC7
:1021A00005040706010003020D0C0F0E09080B0AB7
:1021B00015141716111013121D1C1F1E19181B1AA7
:1021C00065646766616063626D6C6F6E69686B6A97
:1021D00075747776717073727D7C7F7E79787B7A87
:1021E00045444746414043424D4C4F4E49484B4A77
:1021F00055545756515053525D5C5F5E59585B5A67
:10220000A5A4A7A6A1A0A3A2ADACAFAEA9A8ABAA56
:10221000B5B4B7B6B1B0B3B2BDBCBFBEB9B8BBBA46
:1022200085848786818083828D8C8F8E89888B8A36
:1022300095949796919093929D9C9F9E99989B9A26
:10224000E5E4E7E6E1E0E3E2EDECEFEEE9E8EBEA16
:10225000F5F4F7F6F1F0F3F2FDFCFEFEF9F8FBFA07
:10226000C5C4C7C6C1C0C3C2CDCCCFCEC9C8CBCAF6
:10227000D5D4D7D6D1D0D3D2DDDCDFDED9D8DBDAE6
:1022800025242726212023222D2C2F2E29282B2AD6
:1022900035343736313033323D3C3F3E39383B3AC6
:1022A00005040706010003020D0C0F0E09080B0AB6
:1022B00015141716111013121D1C1F1E19181B1AA6
:1022C00065646766616063626D6C6F6E69686B6A96
:1022D00075747776717073727D7C7F7E79787B7A86
:1022E00045444746414043424D4C4F4E49484B4A76
:1022F00055545756515053525D5C5F5E59585B5A66
:10230000A5A4A7A6A1A0A3A2ADACAFAEA9A8ABAA55
:10231000B5B4B7B6B1B0B3B2BDBCBFBEB9B8BBBA45
:1023200085848786818083828D8C8F8E89888B8A35
:1023300095949796919093929D9C9F9E99989B9A25
:10234000E5E4E7E6E1E0E3E2EDECEFEEE9E8EBEA15
:10235000F5F4F7F6F1F0F3F2FDFCFEFEF9F8FBFA06
:10236000C5C4C7C6C1C0C3C2CDCCCFCEC9C8CBCAF5
:10237000D5D4D7D6D1D0D3D2DDDCDFDED9D8DBDAE5
:1023800025242726212023222D2C2F2E29282B2AD5
:1023900035343736313033323D3C3F3E39383B3AC5
:1023A00005040706010003020D0C0F0E09080B0AB5
:1023B00015141716111013121D1C1F1E19181B1AA5
:1023C00065646766616063626D6C6F6E69686B6A95
:1023D00075747776717073727D7C7F7E79787B7A85
:1023E00045444746414043424D4C4F4E49484B4A75
:1023F00055545756515053525D5C5F5E59585B5A65
:10240000A5A4A7A6A1A0A3A2ADACAFAEA9A8ABAA54
:10241000B5B4B7B6B1B0B3B2BDBCBFBEB9B8BBBA44
:1024200085848786818083828D8C8F8E89888B8A34
:1024300095949796919093929D9C9F9E99989B9A24
:10244000E5E4E7E6E1E0E3E2EDECEFEEE9E8EBEA14
:10245000F5F4F7F6F1F0F3F2FDFCFEFEF9F8FBFA05
:10246000C5C4C7C6C1C0C3C2CDCCCFCEC9C8CBCAF4
:10247000D5D4D7D6D1D0D3D2DDDCDFDED9D8DBDAE4
:1024800025242726212023222D2C2F2E29282B2AD4
:1024900035343736313033323D3C3F3E39383B3AC4
:1024A00005040706010003020D0C0F0E09080B0AB4
:1024B00015141716111013121D1C1F1E19181B1AA4
:1024C00065646766616063626D6C6F6E69686B6A94
:1024D00075747776717073727D7C7F7E79787B7A84
:1024E00045444746414043424D4C4F4E49484B4A74
:1024F00055545756515053525D5C5F5E59585B5A64
:10250000A5A4A7A6A1A0A3A2ADACAFAEA9A8ABAA53
:10251000B5B4B7B6B1B0B3B2BDBCBFBEB9B8BBBA43
:1025200085848786818083828D8C8F8E89888B8A33
:1025300095949796919093929D9C9F9E99989B9A23
:10254000E5E4E7E6E1E0E3E2EDECEFEEE9E8EBEA13
:10255000F5F4F7F6F1F0F3F2FDFCFEFEF9F8FBFA04
:10256000C5C4C7C6C1C0C3C2CDCCCFCEC9C8CBCAF3
:10257000D5D4D7D6D1D0D3D2DDDCDFDED9D8DBDAE3
:1025800025242726212023222D2C2F2E29282B2AD3
:1025900035343736313033323D3C3F3E39383B3AC3
:1025A00005040706010003020D0C0F0E09080B0AB3
:1025B00015141716111013121D1C1F1E19181B1AA3
:1025C00065646766616063626D6C6F6E69686B6A93
:1025D00075747776717073727D7C7F7E79787B7A83
:1025E00045444746414043424D4C4F4E49484B4A73
:1025F00055545756515053525D5C5F5E59585B5A63
:10260000A5A4A7A6A1A0A3A2ADACAFAEA9A8ABAA52
:10261000B5B4B7B6B1B0B3B2BDBCBFBEB9B8BBBA42
:1026200085848786818083828D8C8F8E89888B8A32
:1026300095949796919093929D9C9F9E99989B9A22
:10264000E5E4E7E6E1E0E3E2EDECEFEEE9E8EBEA12
:10265000F5F4F7F6F1F0F3F2FDFCFEFEF9F8FBFA03
:10266000C5C4C7C6C1C0C3C2CDCCCFCEC9C8CBCAF2
:10267000D5D4D7D6D1D0D3D2DDDCDFDED9D8DBDAE2
:1026800025242726212023222D2C2F2E29282B2AD2
:1026900035343736313033323D3C3F3E39383B3AC2
:1026A00005040706010003020D0C0F0E09080B0AB2
:1026B00015141716111013121D1C1F1E19181B1AA2
:1026C00065646766616063626D6C6F6E69686B6A92
:1026D00075747776717073727D7C7F7E79787B7A82
:1026E00045444746414043424D4C4F4E49484B4A72
:1026F00055545756515053525D5C5F5E59585B5A62
:10270000A5A4A7A6A1A0A3A2ADACAFAEA9A8ABAA51
:10271000B5B4B7B6B1B0B3B2BDBCBFBEB9B8BBBA41
:1027200085848786818083828D8C8F8E89888B8A31
:1027300095949796919093929D9C9F9E99989B9A21
:10274000E5E4E7E6E1E0E3E2EDECEFEEE9E8EBEA11
:10275000F5F4F7F6F1F0F3F2FDFCFEFEF9F8FBFA02
:10276000C5C4C7C6C1C0C3C2CDCCCFCEC9C8CBCAF1
:10277000D5D4D7D6D1D0D3D2DDDCDFDED9D8DBDAE1
:1027800025242726212023222D2C2F2E29282B2AD1
:1027900035343736313033323D3C3F3E39383B3AC1
:1027A00005040706010003020D0C0F0E09080B0AB1
:1027B00015141716111013121D1C1F1E19181B1AA1
:1027C00065646766616063626D6C6F6E69686B6A91
:1027D00075747776717073727D7C7F7E79787B7A81
:1027E00045444746414043424D4C4F4E49484B4A71
:1027F00055545756515053525D5C5F5E59585B5A61
:10280000A5A4A7A6A1A0A3A2ADACAFAEA9A8ABAA50
:10281000B5B4B7B6B1B0B3B2BDBCBFBEB9B8BBBA40
:1028200085848786818083828D8C8F8E89888B8A30
:1028300095949796919093929D9C9F9E99989B9A20
:10284000E5E4E7E6E1E0E3E2EDECEFEEE9E8EBEA10
:10285000F5F4F7F6F1F0F3F2FDFCFEFEF9F8FBFA01
:10286000C5C4C7C6C1C0C3C2CDCCCFCEC9C8CBCAF0
:10287000D5D4D7D6D1D0D3D2DDDCDFDED9D8DBDAE0
:1028800025242726212023222D2C2F2E29282B2AD0
:1028900035343736313033323D3C3F3E39383B3AC0
:1028A00005040706010003020D0C0F0E09080B0AB0
:1028B00015141716111013121D1C1F1E19181B1AA0
:1028C00065646766616063626D6C6F6E69686B6A90
:1028D00075747776717073727D7C7F7E79787B7A80
:1028E00045444746414043424D4C4F4E49484B4A70
:1028F00055545756515053525D5C5F5E59585B5A60
:10290000A5A4A7A6A1A0A3A2ADACAFAEA9A8ABAA4F
:10291000B5B4B7B6B1B0B3B2BDBCBFBEB9B8BBBA3F
:1029200085848786818083828D8C8F8E89888B8A2F
:1029300095949796919093929D9C9F9E99989B9A1F
:10294000E5E4E7E6E1E0E3E2EDECEFEEE9E8EBEA0F
:10295000F5F4F7F6F1F0F3F2FDFCFEFEF9F8FBFA00
:10296000C5C4C7C6C1C0C3C2CDCCCFCEC9C8CBCAEF
:10297000D5D4D7D6D1D0D3D2DDDCDFDED9D8DBDADF
:1029800025242726212023222D2C2F2E29282B2ACF
:1029900035343736313033323D3C3F3E39383B3ABF
:1029A00005040706010003020D0C0F0E09080B0AAF
:1029B00015141716111013121D1C1F1E19181B1A9F
:1029C00065646766616063626D6C6F6E69686B6A8F
:1029D00075747776717073727D7C7F7E79787B7A7F
:1029E00045444746414043424D4C4F4E49484B4A6F
:1029F00055545756515053525D5C5F5E59585B5A5F
:102A0000A5A4A7A6A1A0A3A2ADACAFAEA9A8ABAA4E
:102A1000B5B4B7B6B1B0B3B2BDBCBFBEB9B8BBBA3E
:102A200085848786818083828D8C8F8E89888B8A2E
:102A300095949796919093929D9C9F9E99989B9A1E
:102A4000E5E4E7E6E1E0E3E2EDECEFEEE9E8EBEA0E
:102A5000F5F4F7F6F1F0F3F2FDFCFEFEF9F8FBFAFF
:102A6000C5C4C7C6C1C0C3C2CDCCCFCEC9C8CBCAEE
:102A7000D5D4D7D6D1D0D3D2DDDCDFDED9D8DBDADE
:102A800025242726212023222D2C2F2E29282B2ACE
:102A900035343736313033323D3C3F3E39383B3ABE
:102AA00005040706010003020D0C0F0E09080B0AAE
:102AB00015141716111013121D1C1F1E19181B1A9E
:102AC00065646766616063626D6C6F6E69686B6A8E
:102AD00075747776717073727D7C7F7E79787B7A7E
:102AE00045444746414043424D4C4F4E49484B4A6E
:102AF00055545756515053525D5C5F5E59585B5A5E
:102B0000A5A4A7A6A1A0A3A2ADACAFAEA9A8ABAA4D
:102B1000B5B4B7B6B1B0B3B2BDBCBFBEB9B8BBBA3D
:102B200085848786818083828D8C8F8E89888B8A2D
:102B300095949796919093929D9C9F9E99989B9A1D
:102B4000E5E4E7E6E1E0E3E2EDECEFEEE9E8EBEA0D
:102B5000F5F4F7F6F1F0F3F2FDFCFEFEF9F8FBFAFE
:102B6000C5C4C7C6C1C0C3C2CDCCCFCEC9C8CBCAED
:102B7000D5D4D7D6D1D0D3D2DDDCDFDED9D8DBDADD
:102B800025242726212023222D2C2F2E29282B2ACD
:102B900035343736313033323D3C3F3E39383B3ABD
:102BA00005040706010003020D0C0F0E09080B0AAD
:102BB00015141716111013121D1C1F1E19181B1A9D
:102BC00065646766616063626D6C6F6E69686B6A8D
:102BD00075747776717073727D7C7F7E79787B7A7D
:102BE00045444746414043424D4C4F4E49484B4A6D
:102BF00055545756515053525D5C5F5E59585B5A5D
:102C0000A5A4A7A6A1A0A3A2ADACAFAEA9A8ABAA4C
:102C1000B5B4B7B6B1B0B3B2BDBCBFBEB9B8BBBA3C
:102C200085848786818083828D8C8F8E89888B8A2C
:102C300095949796919093929D9C9F9E99989B9A1C
:102C4000E5E4E7E6E1E0E3E2EDECEFEEE9E8EBEA0C
:102C5000F5F4F7F6F1F0F3F2FDFCFEFEF9F8FBFAFD
:102C6000C5C4C7C6C1C0C3C2CDCCCFCEC9C8CBCAEC
:102C7000D5D4D7D6D1D0D3D2DDDCDFDED9D8DBDADC
:102C800025242726212023222D2C2F2E29282B2ACC
:102C900035343736313033323D3C3F3E39383B3ABC
:102CA00005040706010003020D0C0F0E09080B0AAC
:102CB00015141716111013121D1C1F1E19181B1A9C
:102CC00065646766616063626D6C6F6E69686B6A8C
:102CD00075747776717073727D7C7F7E79787B7A7C
:102CE00045444746414043424D4C4F4E49484B4A6C
:102CF00055545756515053525D5C5F5E59585B5A5C
:102D0000A5A4A7A6A1A0A3A2ADACAFAEA9A8ABAA4B
:102D1000B5B4B7B6B1B0B3B2BDBCBFBEB9B8BBBA3B
:102D200085848786818083828D8C8F8E89888B8A2B
:102D300095949796919093929D9C9F9E99989B9A1B
:102D4000E5E4E7E6E1E0E3E2EDECEFEEE9E8EBEA0B
:102D5000F5F4F7F6F1F0F3F2FDFCFEFEF9F8FBFAFC
:102D6000C5C4C7C6C1C0C3C2CDCCCFCEC9C8CBCAEB
:102D7000D5D4D7D6D1D0D3D2DDDCDFDED9D8DBDADB
:102D800025242726212023222D2C2F2E29282B2ACB
:102D900035343736313033323D3C3F3E39383B3ABB
:102DA00005040706010003020D0C0F0E09080B0AAB
:102DB00015141716111013121D1C1F1E19181B1A9B
:102DC00065646766616063626D6C6F6E69686B6A8B
:102DD00075747776717073727D7C7F7E79787B7A7B
:102DE00045444746414043424D4C4F4E49484B4A6B
:102DF00055545756515053525D5C5F5E59585B5A5B
:102E0000A5A4A7A6A1A0A3A2ADACAFAEA9A8ABAA4A
:102E1000B5B4B7B6B1B0B3B2BDBCBFBEB9B8BBBA3A
:102E200085848786818083828D8C8F8E89888B8A2A
:102E300095949796919093929D9C9F9E99989B9A1A
:102E4000E5E4E7E6E1E0E3E2EDECEFEEE9E8EBEA0A
:102E5000F5F4F7F6F1F0F3F2FDFCFEFEF9F8FBFAFB
:102E6000C5C4C7C6C1C0C3C2CDCCCFCEC9C8CBCAEA
:102E7000D5D4D7D6D1D0D3D2DDDCDFDED9D8DBDADA
:102E800025242726212023222D2C2F2E29282B2ACA
:102E900035343736313033323D3C3F3E39383B3ABA
:102EA00005040706010003020D0C0F0E09080B0AAA
:102EB00015141716111013121D1C1F1E19181B1A9A
:102EC00065646766616063626D6C6F6E69686B6A8A
:102ED00075747776717073727D7C7F7E79787B7A7A
:102EE00045444746414043424D4C4F4E49484B4A6A
:102EF00055545756515053525D5C5F5E59585B5A5A
:102F0000A5A4A7A6A1A0A3A2ADACAFAEA9A8ABAA49
:102F1000B5B4B7B6B1B0B3B2BDBCBFBEB9B8BBBA39
:102F200085848786818083828D8C8F8E89888B8A29
:102F300095949796919093929D9C9F9E99989B9A19
:102F4000E5E4E7E6E1E0E3E2EDECEFEEE9E8EBEA09
:102F5000F5F4F7F6F1F0F3F2FDFCFEFEF9F8FBFAFA
:102F6000C5C4C7C6C1C0C3C2CDCCCFCEC9C8CBCAE9
:102F7000D5D4D7D6D1D0D3D2DDDCDFDED9D8DBDAD9
:102F800025242726212023222D2C2F2E29282B2AC9
:102F900035343736313033323D3C3F3E39383B3AB9
:102FA00005040706010003020D0C0F0E09080B0AA9
:102FB00015141716111013121D1C1F1E19181B1A99
:102FC00065646766616063626D6C6F6E69686B6A89
:102FD00075747776717073727D7C7F7E79787B7A79
:102FE00045444746414043424D4C4F4E49484B4A69
:102FF00055545756515053525D5C5F5E59585B5A59
:10300000A5A4A7A6A1A0A3A2ADACAFAEA9A8ABAA48
:10301000B5B4B7B6B1B0B3B2BDBCBFBEB9B8BBBA38
:1030200085848786818083828D8C8F8E89888B8A28
:1030300095949796919093929D9C9F9E99989B9A18
:10304000E5E4E7E6E1E0E3E2EDECEFEEE9E8EBEA08
:10305000F5F4F7F6F1F0F3F2FDFCFEFEF9F8FBFAF9
:10306000C5C4C7C6C1C0C3C2CDCCCFCEC9C8CBCAE8
:10307000D5D4D7D6D1D0D3D2DDDCDFDED9D8DBDAD8
:1030800025242726212023222D2C2F2E29282B2AC8
:1030900035343736313033323D3C3F3E39383B3AB8
:1030A00005040706010003020D0C0F0E09080B0AA8
:1030B00015141716111013121D1C1F1E19181B1A98
:1030C00065646766616063626D6C6F6E69686B6A88
:1030D00075747776717073727D7C7F7E79787B7A78
:1030E00045444746414043424D4C4F4E49484B4A68
:1030F00055545756515053525D5C5F5E59585B5A58
:10310000A5A4A7A6A1A0A3A2ADACAFAEA9A8ABAA47
:10311000B5B4B7B6B1B0B3B2BDBCBFBEB9B8BBBA37
:1031200085848786818083828D8C8F8E89888B8A27
:1031300095949796919093929D9C9F9E99989B9A17
:10314000E5E4E7E6E1E0E3E2EDECEFEEE9E8EBEA07
:10315000F5F4F7F6F1F0F3F2FDFCFEFEF9F8FBFAF8
:10316000C5C4C7C6C1C0C3C2CDCCCFCEC9C8CBCAE7
:10317000D5D4D7D6D1D0D3D2DDDCDFDED9D8DBDAD7
:1031800025242726212023222D2C2F2E29282B2AC7
:1031900035343736313033323D3C3F3E39383B3AB7
:1031A00005040706010003020D0C0F0E09080B0AA7
:1031B00015141716111013121D1C1F1E19181B1A97
:1031C00065646766616063626D6C6F6E69686B6A87
:1031D00075747776717073727D7C7F7E79787B7A77
:1031E00045444746414043424D4C4F4E49484B4A67
:1031F00055545756515053525D5C5F5E59585B5A57
:10320000A5A4A7A6A1A0A3A2ADACAFAEA9A8ABAA46
:10321000B5B4B7B6B1B0B3B2BDBCBFBEB9B8BBBA36
:1032200085848786818083828D8C8F8E89888B8A26
:1032300095949796919093929D9C9F9E99989B9A16
:10324000E5E4E7E6E1E0E3E2EDECEFEEE9E8EBEA06
:10325000F5F4F7F6F1F0F3F2FDFCFEFEF9F8FBFAF7
:10326000C5C4C7C6C1C0C3C2CDCCCFCEC9C8CBCAE6
:10327000D5D4D7D6D1D0D3D2DDDCDFDED9D8DBDAD6
:1032800025242726212023222D2C2F2E29282B2AC6
:1032900035343736313033323D3C3F3E39383B3AB6
:1032A00005040706010003020D0C0F0E09080B0AA6
:1032B00015141716111013121D1C1F1E19181B1A96
:1032C00065646766616063626D6C6F6E69686B6A86
:1032D00075747776717073727D7C7F7E79787B7A76
:1032E00045444746414043424D4C4F4E49484B4A66
:1032F00055545756515053525D5C5F5E59585B5A56
:10330000A5A4A7A6A1A0A3A2ADACAFAEA9A8ABAA45
:10331000B5B4B7B6B1B0B3B2BDBCBFBEB9B8BBBA35
:1033200085848786818083828D8C8F8E89888B8A25
:1033300095949796919093929D9C9F9E99989B9A15
:10334000E5E4E7E6E1E0E3E2EDECEFEEE9E8EBEA05
:10335000F5F4F7F6F1F0F3F2FDFCFEFEF9F8FBFAF6
:10336000C5C4C7C6C1C0C3C2CDCCCFCEC9C8CBCAE5
:10337000D5D4D7D6D1D0D3D2DDDCDFDED9D8DBDAD5
:1033800025242726212023222D2C2F2E29282B2AC5
:1033900035343736313033323D3C3F3E39383B3AB5
:1033A00005040706010003020D0C0F0E09080B0AA5
:1033B00015141716111013121D1C1F1E19181B1A95
:1033C00065646766616063626D6C6F6E69686B6A85
:1033D00075747776717073727D7C7F7E79787B7A75
:1033E00045444746414043424D4C4F4E49484B4A65
:1033F00055545756515053525D5C5F5E59585B5A55
:10340000A5A4A7A6A1A0A3A2ADACAFAEA9A8ABAA44
:10341000B5B4B7B6B1B0B3B2BDBCBFBEB9B8BBBA34
:1034200085848786818083828D8C8F8E89888B8A24
:1034300095949796919093929D9C9F9E99989B9A14
:10344000E5E4E7E6E1E0E3E2EDECEFEEE9E8EBEA04
:10345000F5F4F7F6F1F0F3F2FDFCFEFEF9F8FBFAF5
:10346000C5C4C7C6C1C0C3C2CDCCCFCEC9C8CBCAE4
:10347000D5D4D7D6D1D0D3D2DDDCDFDED9D8DBDAD4
:1034800025242726212023222D2C2F2E29282B2AC4
:1034900035343736313033323D3C3F3E39383B3AB4
:1034A00005040706010003020D0C0F0E09080B0AA4
:1034B00015141716111013121D1C1F1E19181B1A94
:1034C00065646766616063626D6C6F6E69686B6A84
:1034D00075747776717073727D7C7F7E79787B7A74
:1034E00045444746414043424D4C4F4E49484B4A64
:1034F00055545756515053525D5C5F5E59585B5A54
:10350000A5A4A7A6A1A0A3A2ADACAFAEA9A8ABAA43
:10351000B5B4B7B6B1B0B3B2BDBCBFBEB9B8BBBA33
:1035200085848786818083828D8C8F8E89888B8A23
:1035300095949796919093929D9C9F9E99989B9A13
:10354000E5E4E7E6E1E0E3E2EDECEFEEE9E8EBEA03
:10355000F5F4F7F6F1F0F3F2FDFCFEFEF9F8FBFAF4
:10356000C5C4C7C6C1C0C3C2CDCCCFCEC9C8CBCAE3
:10357000D5D4D7D6D1D0D3D2DDDCDFDED9D8DBDAD3
:1035800025242726212023222D2C2F2E29282B2AC3
:1035900035343736313033323D3C3F3E39383B3AB3
:1035A00005040706010003020D0C0F0E09080B0AA3
:1035B00015141716111013121D1C1F1E19181B1A93
:1035C00065646766616063626D6C6F6E69686B6A83
:1035D00075747776717073727D7C7F7E79787B7A73
:1035E00045444746414043424D4C4F4E49484B4A63
:1035F00055545756515053525D5C5F5E59585B5A53
:10360000A5A4A7A6A1A0A3A2ADACAFAEA9A8ABAA42
:10361000B5B4B7B6B1B0B3B2BDBCBFBEB9B8BBBA32
:1036200085848786818083828D8C8F8E89888B8A22
:1036300095949796919093929D9C9F9E99989B9A12
:10364000E5E4E7E6E1E0E3E2EDECEFEEE9E8EBEA02
:10365000F5F4F7F6F1F0F3F2FDFCFEFEF9F8FBFAF3
:10366000C5C4C7C6C1C0C3C2CDCCCFCEC9C8CBCAE2
:10367000D5D4D7D6D1D0D3D2DDDCDFDED9D8DBDAD2
:1036800025242726212023222D2C2F2E29282B2AC2
:1036900035343736313033323D3C3F3E39383B3AB2
:1036A00005040706010003020D0C0F0E09080B0AA2
:1036B00015141716111013121D1C1F1E19181B1A92
:1036C00065646766616063626D6C6F6E69686B6A82
:1036D00075747776717073727D7C7F7E79787B7A72
:1036E00045444746414043424D4C4F4E49484B4A62
:1036F00055545756515053525D5C5F5E59585B5A52
:10370000A5A4A7A6A1A0A3A2ADACAFAEA9A8ABAA41
:10371000B5B4B7B6B1B0B3B2BDBCBFBEB9B8BBBA31
:1037200085848786818083828D8C8F8E89888B8A21
:1037300095949796919093929D9C9F9E99989B9A11
:10374000E5E4E7E6E1E0E3E2EDECEFEEE9E8EBEA01
:10375000F5F4F7F6F1F0F3F2FDFCFEFEF9F8FBFAF2
:10376000C5C4C7C6C1C0C3C2CDCCCFCEC9C8CBCAE1
:10377000D5D4D7D6D1D0D3D2DDDCDFDED9D8DBDAD1
:1037800025242726212023222D2C2F2E29282B2AC1
:1037900035343736313033323D3C3F3E39383B3AB1
:1037A00005040706010003020D0C0F0E09080B0AA1
:1037B00015141716111013121D1C1F1E19181B1A91
:1037C00065646766616063626D6C6F6E69686B6A81
:1037D00075747776717073727D7C7F7E79787B7A71
:1037E00045444746414043424D4C4F4E49484B4A61
:1037F00055545756515053525D5C5F5E59585B5A51
:10380000A5A4A7A6A1A0A3A2ADACAFAEA9A8ABAA40
:10381000B5B4B7B6B1B0B3B2BDBCBFBEB9B8BBBA30
:1038200085848786818083828D8C8F8E89888B8A20
:1038300095949796919093929D9C9F9E99989B9A10
:10384000E5E4E7E6E1E0E3E2EDECEFEEE9E8EBEA00
:10385000F5F4F7F6F1F0F3F2FDFCFEFEF9F8FBFAF1
:10386000C5C4C7C6C1C0C3C2CDCCCFCEC9C8CBCAE0
:10387000D5D4D7D6D1D0D3D2DDDCDFDED9D8DBDAD0
:1038800025242726212023222D2C2F2E29282B2AC0
:1038900035343736313033323D3C3F3E39383B3AB0
:1038A00005040706010003020D0C0F0E09080B0AA0
:1038B00015141716111013121D1C1F1E19181B1A90
:1038C00065646766616063626D6C6F6E69686B6A80
:1038D00075747776717073727D7C7F7E79787B7A70
:1038E00045444746414043424D4C4F4E49484B4A60
:1038F00055545756515053525D5C5F5E59585B5A50
:10390000A5A4A7A6A1A0A3A2ADACAFAEA9A8ABAA3F
:10391000B5B4B7B6B1B0B3B2BDBCBFBEB9B8BBBA2F
:1039200085848786818083828D8C8F8E89888B8A1F
:1039300095949796919093929D9C9F9E99989B9A0F
:10394000E5E4E7E6E1E0E3E2EDECEFEEE9E8EBEAFF
:10395000F5F4F7F6F1F0F3F2FDFCFEFEF9F8FBFAF0
:10396000C5C4C7C6C1C0C3C2CDCCCFCEC9C8CBCADF
:10397000D5D4D7D6D1D0D3D2DDDCDFDED9D8DBDACF
:1039800025242726212023222D2C2F2E29282B2ABF
:1039900035343736313033323D3C3F3E39383B3AAF
:1039A00005040706010003020D0C0F0E09080B0A9F
:1039B00015141716111013121D1C1F1E19181B1A8F
:1039C00065646766616063626D6C6F6E69686B6A7F
:1039D00075747776717073727D7C7F7E79787B7A6F
:1039E00045444746414043424D4C4F4E49484B4A5F
:1039F00055545756515053525D5C5F5E59585B5A4F
:103A0000A5A4A7A6A1A0A3A2ADACAFAEA9A8ABAA3E
:103A1000B5B4B7B6B1B0B3B2BDBCBFBEB9B8BBBA2E
:103A200085848786818083828D8C8F8E89888B8A1E
:103A300095949796919093929D9C9F9E99989B9A0E
:103A4000E5E4E7E6E1E0E3E2EDECEFEEE9E8EBEAFE
:103A5000F5F4F7F6F1F0F3F2FDFCFEFEF9F8FBFAEF
:103A6000C5C4C7C6C1C0C3C2CDCCCFCEC9C8CBCADE
:103A7000D5D4D7D6D1D0D3D2DDDCDFDED9D8DBDACE
:103A800025242726212023222D2C2F2E29282B2ABE
:103A900035343736313033323D3C3F3E39383B3AAE
:103AA00005040706010003020D0C0F0E09080B0A9E
:103AB00015141716111013121D1C1F1E19181B1A8E
:103AC00065646766616063626D6C6F6E69686B6A7E
:103AD00075747776717073727D7C7F7E79787B7A6E
:103AE00045444746414043424D4C4F4E49484B4A5E
:103AF00055545756515053525D5C5F5E59585B5A4E
:103B0000A5A4A7A6A1A0A3A2ADACAFAEA9A8ABAA3D
:103B1000B5B4B7B6B1B0B3B2BDBCBFBEB9B8BBBA2D
:103B200085848786818083828D8C8F8E89888B8A1D
:103B300095949796919093929D9C9F9E99989B9A0D
:103B4000E5E4E7E6E1E0E3E2EDECEFEEE9E8EBEAFD
:103B5000F5F4F7F6F1F0F3F2FDFCFEFEF9F8FBFAEE
:103B6000C5C4C7C6C1C0C3C2CDCCCFCEC9C8CBCADD
:103B7000D5D4D7D6D1D0D3D2DDDCDFDED9D8DBDACD
:103B800025242726212023222D2C2F2E29282B2ABD
:103B900035343736313033323D3C3F3E39383B3AAD
:103BA00005040706010003020D0C0F0E09080B0A9D
:103BB00015141716111013121D1C1F1E19181B1A8D
:103BC00065646766616063626D6C6F6E69686B6A7D
:103BD00075747776717073727D7C7F7E79787B7A6D
:103BE00045444746414043424D4C4F4E49484B4A5D
:103BF00055545756515053525D5C5F5E59585B5A4D
:103C0000A5A4A7A6A1A0A3A2ADACAFAEA9A8ABAA3C
:103C1000B5B4B7B6B1B0B3B2BDBCBFBEB9B8BBBA2C
:103C200085848786818083828D8C8F8E89888B8A1C
:103C300095949796919093929D9C9F9E99989B9A0C
:103C4000E5E4E7E6E1E0E3E2EDECEFEEE9E8EBEAFC
:103C5000F5F4F7F6F1F0F3F2FDFCFEFEF9F8FBFAED
:103C6000C5C4C7C6C1C0C3C2CDCCCFCEC9C8CBCADC
:103C7000D5D4D7D6D1D0D3D2DDDCDFDED9D8DBDACC
:103C800025242726212023222D2C2F2E29282B2ABC
:103C900035343736313033323D3C3F3E39383B3AAC
:103CA00005040706010003020D0C0F0E09080B0A9C
:103CB00015141716111013121D1C1F1E19181B1A8C
:103CC00065646766616063626D6C6F6E69686B6A7C
:103CD00075747776717073727D7C7F7E79787B7A6C
:103CE00045444746414043424D4C4F4E49484B4A5C
:103CF00055545756515053525D5C5F5E59585B5A4C
:103D0000A5A4A7A6A1A0A3A2ADACAFAEA9A8ABAA3B
:103D1000B5B4B7B6B1B0B3B2BDBCBFBEB9B8BBBA2B
:103D200085848786818083828D8C8F8E89888B8A1B
:103D300095949796919093929D9C9F9E99989B9A0B
:103D4000E5E4E7E6E1E0E3E2EDECEFEEE9E8EBEAFB
:103D5000F5F4F7F6F1F0F3F2FDFCFEFEF9F8FBFAEC
:103D6000C5C4C7C6C1C0C3C2CDCCCFCEC9C8CBCADB
:103D7000D5D4D7D6D1D0D3D2DDDCDFDED9D8DBDACB
:103D800025242726212023222D2C2F2E29282B2ABB
:103D900035343736313033323D3C3F3E39383B3AAB
:103DA00005040706010003020D0C0F0E09080B0A9B
:103DB00015141716111013121D1C1F1E19181B1A8B
:103DC00065646766616063626D6C6F6E69686B6A7B
:103DD00075747776717073727D7C7F7E79787B7A6B
:103DE00045444746414043424D4C4F4E49484B4A5B
:103DF00055545756515053525D5C5F5E59585B5A4B
:103E0000A5A4A7A6A1A0A3A2ADACAFAEA9A8ABAA3A
:103E1000B5B4B7B6B1B0B3B2BDBCBFBEB9B8BBBA2A
:103E200085848786818083828D8C8F8E89888B8A1A
:103E300095949796919093929D9C9F9E99989B9A0A
:103E4000E5E4E7E6E1E0E3E2EDECEFEEE9E8EBEAFA
:103E5000F5F4F7F6F1F0F3F2FDFCFEFEF9F8FBFAEB
:103E6000C5C4C7C6C1C0C3C2CDCCCFCEC9C8CBCADA
:103E7000D5D4D7D6D1D0D3D2DDDCDFDED9D8DBDACA
:103E800025242726212023222D2C2F2E29282B2ABA
:103E900035343736313033323D3C3F3E39383B3AAA
:103EA00005040706010003020D0C0F0E09080B0A9A
:103EB00015141716111013121D1C1F1E19181B1A8A
:103EC00065646766616063626D6C6F6E69686B6A7A
:103ED00075747776717073727D7C7F7E79787B7A6A
:103EE00045444746414043424D4C4F4E49484B4A5A
:103EF00055545756515053525D5C5F5E59585B5A4A
:103F0000A5A4A7A6A1A0A3A2ADACAFAEA9A8ABAA39
:103F1000B5B4B7B6B1B0B3B2BDBCBFBEB9B8BBBA29
:103F200085848786818083828D8C8F8E89888B8A19
:103F300095949796919093929D9C9F9E99989B9A09
:103F4000E5E4E7E6E1E0E3E2EDECEFEEE9E8EBEAF9
:103F5000F5F4F7F6F1F0F3F2FDFCFEFEF9F8FBFAEA
:103F6000C5C4C7C6C1C0C3C2CDCCCFCEC9C8CBCAD9
:103F7000D5D4D7D6D1D0D3D2DDDCDFDED9D8DBDAC9
:103F800025242726212023222D2C2F2E29282B2AB9
:103F900035343736313033323D3C3F3E39383B3AA9
:103FA00005040706010003020D0C0F0E09080B0A99
:103FB00015141716111013121D1C1F1E19181B1A89
:103FC00065646766616063626D6C6F6E69686B6A79
:103FD00075747776717073727D7C7F7E79787B7A69
:103FE00045444746414043424D4C4F4E49484B4A59
:103FF00055545756515053525D5C5F5E59585B5A49
:10400000A5A4A7A6A1A0A3A2ADACAFAEA9A8ABAA38
:10401000B5B4B7B6B1B0B3B2BDBCBFBEB9B8BBBA28
:1040200085848786818083828D8C8F8E89888B8A18
:1040300095949796919093929D9C9F9E99989B9A08
:10404000E5E4E7E6E1E0E3E2EDECEFEEE9E8EBEAF8
:10405000F5F4F7F6F1F0F3F2FDFCFEFEF9F8FBFAE9
:10406000C5C4C7C6C1C0C3C2CDCCCFCEC9C8CBCAD8
:10407000D5D4D7D6D1D0D3D2DDDCDFDED9D8DBDAC8
:1040800025242726212023222D2C2F2E29282B2AB8
:1040900035343736313033323D3C3F3E39383B3AA8
:1040A00005040706010003020D0C0F0E09080B0A98
:1040B00015141716111013121D1C1F1E19181B1A88
:1040C00065646766616063626D6C6F6E69686B6A78
:1040D00075747776717073727D7C7F7E79787B7A68
:1040E00045444746414043424D4C4F4E49484B4A58
:1040F00055545756515053525D5C5F5E59585B5A48
:10410000A5A4A7A6A1A0A3A2ADACAFAEA9A8ABAA37
:10411000B5B4B7B6B1B0B3B2BDBCBFBEB9B8BBBA27
:1041200085848786818083828D8C8F8E89888B8A17
:1041300095949796919093929D9C9F9E99989B9A07
:10414000E5E4E7E6E1E0E3E2EDECEFEEE9E8EBEAF7
:10415000F5F4F7F6F1F0F3F2FDFCFEFEF9F8FBFAE8
:10416000C5C4C7C6C1C0C3C2CDCCCFCEC9C8CBCAD7
:10417000D5D4D7D6D1D0D3D2DDDCDFDED9D8DBDAC7
:1041800025242726212023222D2C2F2E29282B2AB7
:1041900035343736313033323D3C3F3E39383B3AA7
:1041A00005040706010003020D0C0F0E09080B0A97
:1041B00015141716111013121D1C1F1E19181B1A87
:1041C00065646766616063626D6C6F6E69686B6A77
:1041D00075747776717073727D7C7F7E79787B7A67
:1041E00045444746414043424D4C4F4E49484B4A57
:1041F00055545756515053525D5C5F5E59585B5A47
:10420000A5A4A7A6A1A0A3A2ADACAFAEA9A8ABAA36
:10421000B5B4B7B6B1B0B3B2BDBCBFBEB9B8BBBA26
:1042200085848786818083828D8C8F8E89888B8A16
:1042300095949796919093929D9C9F9E99989B9A06
:10424000E5E4E7E6E1E0E3E2EDECEFEEE9E8EBEAF6
:10425000F5F4F7F6F1F0F3F2FDFCFEFEF9F8FBFAE7
:10426000C5C4C7C6C1C0C3C2CDCCCFCEC9C8CBCAD6
:10427000D5D4D7D6D1D0D3D2DDDCDFDED9D8DBDAC6
:1042800025242726212023222D2C2F2E29282B2AB6
:1042900035343736313033323D3C3F3E39383B3AA6
:1042A00005040706010003020D0C0F0E09080B0A96
:1042B00015141716111013121D1C1F1E19181B1A86
:1042C00065646766616063626D6C6F6E69686B6A76
:1042D00075747776717073727D7C7F7E79787B7A66
:1042E00045444746414043424D4C4F4E49484B4A56
:1042F00055545756515053525D5C5F5E59585B5A46
:10430000A5A4A7A6A1A0A3A2ADACAFAEA9A8ABAA35
:10431000B5B4B7B6B1B0B3B2BDBCBFBEB9B8BBBA25
:1043200085848786818083828D8C8F8E89888B8A15
:1043300095949796919093929D9C9F9E99989B9A05
:10434000E5E4E7E6E1E0E3E2EDECEFEEE9E8EBEAF5
:10435000F5F4F7F6F1F0F3F2FDFCFEFEF9F8FBFAE6
:10436000C5C4C7C6C1C0C3C2CDCCCFCEC9C8CBCAD5
:10437000D5D4D7D6D1D0D3D2DDDCDFDED9D8DBDAC5
:1043800025242726212023222D2C2F2E29282B2AB5
:1043900035343736313033323D3C3F3E39383B3AA5
:1043A00005040706010003020D0C0F0E09080B0A95
:1043B00015141716111013121D1C1F1E19181B1A85
:1043C00065646766616063626D6C6F6E69686B6A75
:1043D00075747776717073727D7C7F7E79787B7A65
:1043E00045444746414043424D4C4F4E49484B4A55
:1043F00055545756515053525D5C5F5E59585B5A45
:10440000A5A4A7A6A1A0A3A2ADACAFAEA9A8ABAA34
:10441000B5B4B7B6B1B0B3B2BDBCBFBEB9B8BBBA24
:1044200085848786818083828D8C8F8E89888B8A14
:1044300095949796919093929D9C9F9E99989B9A04
:10444000E5E4E7E6E1E0E3E2EDECEFEEE9E8EBEAF4
:10445000F5F4F7F6F1F0F3F2FDFCFEFEF9F8FBFAE5
:10446000C5C4C7C6C1C0C3C2CDCCCFCEC9C8CBCAD4
:10447000D5D4D7D6D1D0D3D2DDDCDFDED9D8DBDAC4
:1044800025242726212023222D2C2F2E29282B2AB4
:1044900035343736313033323D3C3F3E39383B3AA4
:1044A00005040706010003020D0C0F0E09080B0A94
:1044B00015141716111013121D1C1F1E19181B1A84
:1044C00065646766616063626D6C6F6E69686B6A74
:1044D00075747776717073727D7C7F7E79787B7A64
:1044E00045444746414043424D4C4F4E49484B4A54
:1044F00055545756515053525D5C5F5E59585B5A44
:10450000A5A4A7A6A1A0A3A2ADACAFAEA9A8ABAA33
:10451000B5B4B7B6B1B0B3B2BDBCBFBEB9B8BBBA23
:1045200085848786818083828D8C8F8E89888B8A13
:1045300095949796919093929D9C9F9E99989B9A03
:10454000E5E4E7E6E1E0E3E2EDECEFEEE9E8EBEAF3
:10455000F5F4F7F6F1F0F3F2FDFCFEFEF9F8FBFAE4
:10456000C5C4C7C6C1C0C3C2CDCCCFCEC9C8CBCAD3
:10457000D5D4D7D6D1D0D3D2DDDCDFDED9D8DBDAC3
:1045800025242726212023222D2C2F2E29282B2AB3
:1045900035343736313033323D3C3F3E39383B3AA3
:1045A00005040706010003020D0C0F0E09080B0A93
:1045B00015141716111013121D1C1F1E19181B1A83
:1045C00065646766616063626D6C6F6E69686B6A73
:1045D00075747776717073727D7C7F7E79787B7A63
:1045E00045444746414043424D4C4F4E49484B4A53
:1045F00055545756515053525D5C5F5E59585B5A43
:10460000A5A4A7A6A1A0A3A2ADACAFAEA9A8ABAA32
:10461000B5B4B7B6B1B0B3B2BDBCBFBEB9B8BBBA22
:1046200085848786818083828D8C8F8E89888B8A12
:1046300095949796919093929D9C9F9E99989B9A02
:10464000E5E4E7E6E1E0E3E2EDECEFEEE9E8EBEAF2
:10465000F5F4F7F6F1F0F3F2FDFCFEFEF9F8FBFAE3
:10466000C5C4C7C6C1C0C3C2CDCCCFCEC9C8CBCAD2
:10467000D5D4D7D6D1D0D3D2DDDCDFDED9D8DBDAC2
:1046800025242726212023222D2C2F2E29282B2AB2
:1046900035343736313033323D3C3F3E39383B3AA2
:1046A00005040706010003020D0C0F0E09080B0A92
:1046B00015141716111013121D1C1F1E19181B1A82
:1046C00065646766616063626D6C6F6E69686B6A72
:1046D00075747776717073727D7C7F7E79787B7A62
:1046E00045444746414043424D4C4F4E49484B4A52
:1046F00055545756515053525D5C5F5E59585B5A42
:10470000A5A4A7A6A1A0A3A2ADACAFAEA9A8ABAA31
:10471000B5B4B7B6B1B0B3B2BDBCBFBEB9B8BBBA21
:1047200085848786818083828D8C8F8E89888B8A11
:1047300095949796919093929D9C9F9E99989B9A01
:10474000E5E4E7E6E1E0E3E2EDECEFEEE9E8EBEAF1
:10475000F5F4F7F6F1F0F3F2FDFCFEFEF9F8FBFAE2
:10476000C5C4C7C6C1C0C3C2CDCCCFCEC9C8CBCAD1
:10477000D5D4D7D6D1D0D3D2DDDCDFDED9D8DBDAC1
:1047800025242726212023222D2C2F2E29282B2AB1
:1047900035343736313033323D3C3F3E39383B3AA1
:1047A00005040706010003020D0C0F0E09080B0A91
:1047B00015141716111013121D1C1F1E19181B1A81
:1047C00065646766616063626D6C6F6E69686B6A71
:1047D00075747776717073727D7C7F7E79787B7A61
:1047E00045444746414043424D4C4F4E49484B4A51
:1047F00055545756515053525D5C5F5E59585B5A41
:10480000A5A4A7A6A1A0A3A2ADACAFAEA9A8ABAA30
:10481000B5B4B7B6B1B0B3B2BDBCBFBEB9B8BBBA20
:1048200085848786818083828D8C8F8E89888B8A10
:1048300095949796919093929D9C9F9E99989B9A00
:10484000E5E4E7E6E1E0E3E2EDECEFEEE9E8EBEAF0
:10485000F5F4F7F6F1F0F3F2FDFCFEFEF9F8FBFAE1
:10486000C5C4C7C6C1C0C3C2CDCCCFCEC9C8CBCAD0
:10487000D5D4D7D6D1D0D3D2DDDCDFDED9D8DBDAC0
:1048800025242726212023222D2C2F2E29282B2AB0
:1048900035343736313033323D3C3F3E39383B3AA0
:1048A00005040706010003020D0C0F0E09080B0A90
:1048B00015141716111013121D1C1F1E19181B1A80
:1048C00065646766616063626D6C6F6E69686B6A70
:1048D00075747776717073727D7C7F7E79787B7A60
:1048E00045444746414043424D4C4F4E49484B4A50
:1048F00055545756515053525D5C5F5E59585B5A40
:10490000A5A4A7A6A1A0A3A2ADACAFAEA9A8ABAA2F
:10491000B5B4B7B6B1B0B3B2BDBCBFBEB9B8BBBA1F
:1049200085848786818083828D8C8F8E89888B8A0F
:1049300095949796919093929D9C9F9E99989B9AFF
:10494000E5E4E7E6E1E0E3E2EDECEFEEE9E8EBEAEF
:10495000F5F4F7F6F1F0F3F2FDFCFEFEF9F8FBFAE0
:10496000C5C4C7C6C1C0C3C2CDCCCFCEC9C8CBCACF
:10497000D5D4D7D6D1D0D3D2DDDCDFDED9D8DBDABF
:1049800025242726212023222D2C2F2E29282B2AAF
:1049900035343736313033323D3C3F3E39383B3A9F
:1049A00005040706010003020D0C0F0E09080B0A8F
:1049B00015141716111013121D1C1F1E19181B1A7F
:1049C00065646766616063626D6C6F6E69686B6A6F
:1049D00075747776717073727D7C7F7E79787B7A5F
:1049E00045444746414043424D4C4F4E49484B4A4F
:1049F00055545756515053525D5C5F5E59585B5A3F
:104A0000A5A4A7A6A1A0A3A2ADACAFAEA9A8ABAA2E
:104A1000B5B4B7B6B1B0B3B2BDBCBFBEB9B8BBBA1E
:104A200085848786818083828D8C8F8E89888B8A0E
:104A300095949796919093929D9C9F9E99989B9AFE
:104A4000E5E4E7E6E1E0E3E2EDECEFEEE9E8EBEAEE
:104A5000F5F4F7F6F1F0F3F2FDFCFEFEF9F8FBFADF
:104A6000C5C4C7C6C1C0C3C2CDCCCFCEC9C8CBCACE
:104A7000D5D4D7D6D1D0D3D2DDDCDFDED9D8DBDABE
:104A800025242726212023222D2C2F2E29282B2AAE
:104A900035343736313033323D3C3F3E39383B3A9E
:104AA00005040706010003020D0C0F0E09080B0A8E
:104AB00015141716111013121D1C1F1E19181B1A7E
:104AC00065646766616063626D6C6F6E69686B6A6E
:104AD00075747776717073727D7C7F7E79787B7A5E
:104AE00045444746414043424D4C4F4E49484B4A4E
:104AF00055545756515053525D5C5F5E59585B5A3E
:104B0000A5A4A7A6A1A0A3A2ADACAFAEA9A8ABAA2D
:104B1000B5B4B7B6B1B0B3B2BDBCBFBEB9B8BBBA1D
:104B200085848786818083828D8C8F8E89888B8A0D
:104B300095949796919093929D9C9F9E99989B9AFD
:104B4000E5E4E7E6E1E0E3E2EDECEFEEE9E8EBEAED
:104B5000F5F4F7F6F1F0F3F2FDFCFEFEF9F8FBFADE
:104B6000C5C4C7C6C1C0C3C2CDCCCFCEC9C8CBCACD
:104B7000D5D4D7D6D1D0D3D2DDDCDFDED9D8DBDABD
:104B800025242726212023222D2C2F2E29282B2AAD
:104B900035343736313033323D3C3F3E39383B3A9D
:104BA00005040706010003020D0C0F0E09080B0A8D
:104BB00015141716111013121D1C1F1E19181B1A7D
:104BC00065646766616063626D6C6F6E69686B6A6D
:104BD00075747776717073727D7C7F7E79787B7A5D
:104BE00045444746414043424D4C4F4E49484B4A4D
:104BF00055545756515053525D5C5F5E59585B5A3D
:104C0000A5A4A7A6A1A0A3A2ADACAFAEA9A8ABAA2C
:104C1000B5B4B7B6B1B0B3B2BDBCBFBEB9B8BBBA1C
:104C200085848786818083828D8C8F8E89888B8A0C
:104C300095949796919093929D9C9F9E99989B9AFC
:104C4000E5E4E7E6E1E0E3E2EDECEFEEE9E8EBEAEC
:104C5000F5F4F7F6F1F0F3F2FDFCFEFEF9F8FBFADD
:104C6000C5C4C7C6C1C0C3C2CDCCCFCEC9C8CBCACC
:104C7000D5D4D7D6D1D0D3D2DDDCDFDED9D8DBDABC
:104C800025242726212023222D2C2F2E29282B2AAC
:104C900035343736313033323D3C3F3E39383B3A9C
:104CA00005040706010003020D0C0F0E09080B0A8C
:104CB00015141716111013121D1C1F1E19181B1A7C
:104CC00065646766616063626D6C6F6E69686B6A6C
:104CD00075747776717073727D7C7F7E79787B7A5C
:104CE00045444746414043424D4C4F4E49484B4A4C
:104CF00055545756515053525D5C5F5E59585B5A3C
:104D0000A5A4A7A6A1A0A3A2ADACAFAEA9A8ABAA2B
:104D1000B5B4B7B6B1B0B3B2BDBCBFBEB9B8BBBA1B
:104D200085848786818083828D8C8F8E89888B8A0B
:104D300095949796919093929D9C9F9E99989B9AFB
:104D4000E5E4E7E6E1E0E3E2EDECEFEEE9E8EBEAEB
:104D5000F5F4F7F6F1F0F3F2FDFCFEFEF9F8FBFADC
:104D6000C5C4C7C6C1C0C3C2CDCCCFCEC9C8CBCACB
:104D7000D5D4D7D6D1D0D3D2DDDCDFDED9D8DBDABB
:104D800025242726212023222D2C2F2E29282B2AAB
:104D900035343736313033323D3C3F3E39383B3A9B
:104DA00005040706010003020D0C0F0E09080B0A8B
:104DB00015141716111013121D1C1F1E19181B1A7B
:104DC00065646766616063626D6C6F6E69686B6A6B
:104DD00075747776717073727D7C7F7E79787B7A5B
:104DE00045444746414043424D4C4F4E49484B4A4B
:104DF00055545756515053525D5C5F5E59585B5A3B
:104E0000A5A4A7A6A1A0A3A2ADACAFAEA9A8ABAA2A
:104E1000B5B4B7B6B1B0B3B2BDBCBFBEB9B8BBBA1A
:104E200085848786818083828D8C8F8E89888B8A0A
:104E300095949796919093929D9C9F9E99989B9AFA
:104E4000E5E4E7E6E1E0E3E2EDECEFEEE9E8EBEAEA
:104E5000F5F4F7F6F1F0F3F2FDFCFEFEF9F8FBFADB
:104E6000C5C4C7C6C1C0C3C2CDCCCFCEC9C8CBCACA
:104E7000D5D4D7D6D1D0D3D2DDDCDFDED9D8DBDABA
:104E800025242726212023222D2C2F2E29282B2AAA
:104E900035343736313033323D3C3F3E39383B3A9A
:104EA00005040706010003020D0C0F0E09080B0A8A
:104EB00015141716111013121D1C1F1E19181B1A7A
:104EC00065646766616063626D6C6F6E69686B6A6A
:104ED00075747776717073727D7C7F7E79787B7A5A
:104EE00045444746414043424D4C4F4E49484B4A4A
:104EF00055545756515053525D5C5F5E59585B5A3A
:104F0000A5A4A7A6A1A0A3A2ADACAFAEA9A8ABAA29
:104F1000B5B4B7B6B1B0B3B2BDBCBFBEB9B8BBBA19
:104F200085848786818083828D8C8F8E89888B8A09
:104F300095949796919093929D9C9F9E99989B9AF9
:104F4000E5E4E7E6E1E0E3E2EDECEFEEE9E8EBEAE9
:104F5000F5F4F7F6F1F0F3F2FDFCFEFEF9F8FBFADA
:104F6000C5C4C7C6C1C0C3C2CDCCCFCEC9C8CBCAC9
:104F7000D5D4D7D6D1D0D3D2DDDCDFDED9D8DBDAB9
:104F800025242726212023222D2C2F2E29282B2AA9
:104F900035343736313033323D3C3F3E39383B3A99
:104FA00005040706010003020D0C0F0E09080B0A89
:104FB00015141716111013121D1C1F1E19181B1A79
:104FC00065646766616063626D6C6F6E69686B6A69
:104FD00075747776717073727D7C7F7E79787B7A59
:104FE00045444746414043424D4C4F4E49484B4A49
:104FF00055545756515053525D5C5F5E59585B5A39
:10500000A5A4A7A6A1A0A3A2ADACAFAEA9A8ABAA28
:10501000B5B4B7B6B1B0B3B2BDBCBFBEB9B8BBBA18
:1050200085848786818083828D8C8F8E89888B8A08
:1050300095949796919093929D9C9F9E99989B9AF8
:10504000E5E4E7E6E1E0E3E2EDECEFEEE9E8EBEAE8
:10505000F5F4F7F6F1F0F3F2FDFCFEFEF9F8FBFAD9
:10506000C5C4C7C6C1C0C3C2CDCCCFCEC9C8CBCAC8
:10507000D5D4D7D6D1D0D3D2DDDCDFDED9D8DBDAB8
:1050800025242726212023222D2C2F2E29282B2AA8
:1050900035343736313033323D3C3F3E39383B3A98
:1050A00005040706010003020D0C0F0E09080B0A88
:1050B00015141716111013121D1C1F1E19181B1A78
:1050C00065646766616063626D6C6F6E69686B6A68
:1050D00075747776717073727D7C7F7E79787B7A58
:1050E00045444746414043424D4C4F4E49484B4A48
:1050F00055545756515053525D5C5F5E59585B5A38
:10510000A5A4A7A6A1A0A3A2ADACAFAEA9A8ABAA27
:10511000B5B4B7B6B1B0B3B2BDBCBFBEB9B8BBBA17
:1051200085848786818083828D8C8F8E89888B8A07
:1051300095949796919093929D9C9F9E99989B9AF7
:10514000E5E4E7E6E1E0E3E2EDECEFEEE9E8EBEAE7
:10515000F5F4F7F6F1F0F3F2FDFCFEFEF9F8FBFAD8
:10516000C5C4C7C6C1C0C3C2CDCCCFCEC9C8CBCAC7
:10517000D5D4D7D6D1D0D3D2DDDCDFDED9D8DBDAB7
:1051800025242726212023222D2C2F2E29282B2AA7
:1051900035343736313033323D3C3F3E39383B3A97
:1051A00005040706010003020D0C0F0E09080B0A87
:1051B00015141716111013121D1C1F1E19181B1A77
:1051C00065646766616063626D6C6F6E69686B6A67
:1051D00075747776717073727D7C7F7E79787B7A57
:1051E00045444746414043424D4C4F4E49484B4A47
:1051F00055545756515053525D5C5F5E59585B5A37
:10520000A5A4A7A6A1A0A3A2ADACAFAEA9A8ABAA26
:10521000B5B4B7B6B1B0B3B2BDBCBFBEB9B8BBBA16
:1052200085848786818083828D8C8F8E89888B8A06
:1052300095949796919093929D9C9F9E99989B9AF6
:10524000E5E4E7E6E1E0E3E2EDECEFEEE9E8EBEAE6
:10525000F5F4F7F6F1F0F3F2FDFCFEFEF9F8FBFAD7
:10526000C5C4C7C6C1C0C3C2CDCCCFCEC9C8CBCAC6
:10527000D5D4D7D6D1D0D3D2DDDCDFDED9D8DBDAB6
:1052800025242726212023222D2C2F2E29282B2AA6
:1052900035343736313033323D3C3F3E39383B3A96
:1052A00005040706010003020D0C0F0E09080B0A86
:1052B00015141716111013121D1C1F1E19181B1A76
:1052C00065646766616063626D6C6F6E69686B6A66
:1052D00075747776717073727D7C7F7E79787B7A56
:1052E00045444746414043424D4C4F4E49484B4A46
:1052F00055545756515053525D5C5F5E59585B5A36
:10530000A5A4A7A6A1A0A3A2ADACAFAEA9A8ABAA25
:10531000B5B4B7B6B1B0B3B2BDBCBFBEB9B8BBBA15
:1053200085848786818083828D8C8F8E89888B8A05
:1053300095949796919093929D9C9F9E99989B9AF5
:10534000E5E4E7E6E1E0E3E2EDECEFEEE9E8EBEAE5
:10535000F5F4F7F6F1F0F3F2FDFCFEFEF9F8FBFAD6
:10536000C5C4C7C6C1C0C3C2CDCCCFCEC9C8CBCAC5
:10537000D5D4D7D6D1D0D3D2DDDCDFDED9D8DBDAB5
:1053800025242726212023222D2C2F2E29282B2AA5
:1053900035343736313033323D3C3F3E39383B3A95
:1053A00005040706010003020D0C0F0E09080B0A85
:1053B00015141716111013121D1C1F1E19181B1A75
:1053C00065646766616063626D6C6F6E69686B6A65
:1053D00075747776717073727D7C7F7E79787B7A55
:1053E00045444746414043424D4C4F4E49484B4A45
:1053F00055545756515053525D5C5F5E59585B5A35
:10540000A5A4A7A6A1A0A3A2ADACAFAEA9A8ABAA24
:10541000B5B4B7B6B1B0B3B2BDBCBFBEB9B8BBBA14
:1054200085848786818083828D8C8F8E89888B8A04
:1054300095949796919093929D9C9F9E99989B9AF4
:10544000E5E4E7E6E1E0E3E2EDECEFEEE9E8EBEAE4
:10545000F5F4F7F6F1F0F3F2FDFCFEFEF9F8FBFAD5
:10546000C5C4C7C6C1C0C3C2CDCCCFCEC9C8CBCAC4
:10547000D5D4D7D6D1D0D3D2DDDCDFDED9D8DBDAB4
:1054800025242726212023222D2C2F2E29282B2AA4
:1054900035343736313033323D3C3F3E39383B3A94
:1054A00005040706010003020D0C0F0E09080B0A84
:1054B00015141716111013121D1C1F1E19181B1A74
:1054C00065646766616063626D6C6F6E69686B6A64
:1054D00075747776717073727D7C7F7E79787B7A54
:1054E00045444746414043424D4C4F4E49484B4A44
:1054F00055545756515053525D5C5F5E59585B5A34
:10550000A5A4A7A6A1A0A3A2ADACAFAEA9A8ABAA23
:10551000B5B4B7B6B1B0B3B2BDBCBFBEB9B8BBBA13
:1055200085848786818083828D8C8F8E89888B8A03
:1055300095949796919093929D9C9F9E99989B9AF3
:10554000E5E4E7E6E1E0E3E2EDECEFEEE9E8EBEAE3
:10555000F5F4F7F6F1F0F3F2FDFCFEFEF9F8FBFAD4
:10556000C5C4C7C6C1C0C3C2CDCCCFCEC9C8CBCAC3
:10557000D5D4D7D6D1D0D3D2DDDCDFDED9D8DBDAB3
:1055800025242726212023222D2C2F2E29282B2AA3
:1055900035343736313033323D3C3F3E39383B3A93
:1055A00005040706010003020D0C0F0E09080B0A83
:1055B00015141716111013121D1C1F1E19181B1A73
:1055C00065646766616063626D6C6F6E69686B6A63
:1055D00075747776717073727D7C7F7E79787B7A53
:1055E00045444746414043424D4C4F4E49484B4A43
:1055F00055545756515053525D5C5F5E59585B5A33
:10560000A5A4A7A6A1A0A3A2ADACAFAEA9A8ABAA22
:10561000B5B4B7B6B1B0B3B2BDBCBFBEB9B8BBBA12
:1056200085848786818083828D8C8F8E89888B8A02
:1056300095949796919093929D9C9F9E99989B9AF2
:10564000E5E4E7E6E1E0E3E2EDECEFEEE9E8EBEAE2
:10565000F5F4F7F6F1F0F3F2FDFCFEFEF9F8FBFAD3
:10566000C5C4C7C6C1C0C3C2CDCCCFCEC9C8CBCAC2
:10567000D5D4D7D6D1D0D3D2DDDCDFDED9D8DBDAB2
:1056800025242726212023222D2C2F2E29282B2AA2
:1056900035343736313033323D3C3F3E39383B3A92
:1056A00005040706010003020D0C0F0E09080B0A82
:1056B00015141716111013121D1C1F1E19181B1A72
:1056C00065646766616063626D6C6F6E69686B6A62
:1056D00075747776717073727D7C7F7E79787B7A52
:1056E00045444746414043424D4C4F4E49484B4A42
:1056F00055545756515053525D5C5F5E59585B5A32
:10570000A5A4A7A6A1A0A3A2ADACAFAEA9A8ABAA21
:10571000B5B4B7B6B1B0B3B2BDBCBFBEB9B8BBBA11
:1057200085848786818083828D8C8F8E89888B8A01
:1057300095949796919093929D9C9F9E99989B9AF1
:10574000E5E4E7E6E1E0E3E2EDECEFEEE9E8EBEAE1
:10575000F5F4F7F6F1F0F3F2FDFCFEFEF9F8FBFAD2
:10576000C5C4C7C6C1C0C3C2CDCCCFCEC9C8CBCAC1
:10577000D5D4D7D6D1D0D3D2DDDCDFDED9D8DBDAB1
:1057800025242726212023222D2C2F2E29282B2AA1
:1057900035343736313033323D3C3F3E39383B3A91
:1057A00005040706010003020D0C0F0E09080B0A81
:1057B00015141716111013121D1C1F1E19181B1A71
:1057C00065646766616063626D6C6F6E69686B6A61
:1057D00075747776717073727D7C7F7E79787B7A51
:1057E00045444746414043424D4C4F4E49484B4A41
:1057F00055545756515053525D5C5F5E59585B5A31
:10580000A5A4A7A6A1A0A3A2ADACAFAEA9A8ABAA20
:10581000B5B4B7B6B1B0B3B2BDBCBFBEB9B8BBBA10
:1058200085848786818083828D8C8F8E89888B8A00
:1058300095949796919093929D9C9F9E99989B9AF0
:10584000E5E4E7E6E1E0E3E2EDECEFEEE9E8EBEAE0
:10585000F5F4F7F6F1F0F3F2FDFCFEFEF9F8FBFAD1
:10586000C5C4C7C6C1C0C3C2CDCCCFCEC9C8CBCAC0
:10587000D5D4D7D6D1D0D3D2DDDCDFDED9D8DBDAB0
:1058800025242726212023222D2C2F2E29282B2AA0
:1058900035343736313033323D3C3F3E39383B3A90
:1058A00005040706010003020D0C0F0E09080B0A80
:1058B00015141716111013121D1C1F1E19181B1A70
:1058C00065646766616063626D6C6F6E69686B6A60
:1058D00075747776717073727D7C7F7E79787B7A50
:1058E00045444746414043424D4C4F4E49484B4A40
:1058F00055545756515053525D5C5F5E59585B5A30
:10590000A5A4A7A6A1A0A3A2ADACAFAEA9A8ABAA1F
:10591000B5B4B7B6B1B0B3B2BDBCBFBEB9B8BBBA0F
:1059200085848786818083828D8C8F8E89888B8AFF
:1059300095949796919093929D9C9F9E99989B9AEF
:10594000E5E4E7E6E1E0E3E2EDECEFEEE9E8EBEADF
:10595000F5F4F7F6F1F0F3F2FDFCFEFEF9F8FBFAD0
:10596000C5C4C7C6C1C0C3C2CDCCCFCEC9C8CBCABF
:10597000D5D4D7D6D1D0D3D2DDDCDFDED9D8DBDAAF
:1059800025242726212023222D2C2F2E29282B2A9F
:1059900035343736313033323D3C3F3E39383B3A8F
:1059A00005040706010003020D0C0F0E09080B0A7F
:1059B00015141716111013121D1C1F1E19181B1A6F
:1059C00065646766616063626D6C6F6E69686B6A5F
:1059D00075747776717073727D7C7F7E79787B7A4F
:1059E00045444746414043424D4C4F4E49484B4A3F
:1059F00055545756515053525D5C5F5E59585B5A2F
:105A0000A5A4A7A6A1A0A3A2ADACAFAEA9A8ABAA1E
:105A1000B5B4B7B6B1B0B3B2BDBCBFBEB9B8BBBA0E
:105A200085848786818083828D8C8F8E89888B8AFE
:105A300095949796919093929D9C9F9E99989B9AEE
:105A4000E5E4E7E6E1E0E3E2EDECEFEEE9E8EBEADE
:105A5000F5F4F7F6F1F0F3F2FDFCFEFEF9F8FBFACF
:105A6000C5C4C7C6C1C0C3C2CDCCCFCEC9C8CBCABE
:105A7000D5D4D7D6D1D0D3D2DDDCDFDED9D8DBDAAE
:105A800025242726212023222D2C2F2E29282B2A9E
:105A900035343736313033323D3C3F3E39383B3A8E
:105AA00005040706010003020D0C0F0E09080B0A7E
:105AB00015141716111013121D1C1F1E19181B1A6E
:105AC00065646766616063626D6C6F6E69686B6A5E
:105AD00075747776717073727D7C7F7E79787B7A4E
