:020000040000FA
:10000000A524A726A120A322AD2CAF2EA928AB2A78
:10001000B534B736B130B332BD3CBF3EB938BB3A68
:1000200085048706810083028D0C8F0E89088B0A58
:1000300095149716911093129D1C9F1E99189B1A48
:10004000E524E726E120E322ED2CEF2EE928EB2A38
:10005000F534F736F130F332FD3CFE3EF938FB3A29
:10006000C504C706C100C302CD0CCF0EC908CB0A18
:10007000D514D716D110D312DD1CDF1ED918DB1A08
:1000800025242726212023222D2C2F2E29282B2AF8
:1000900035343736313033323D3C3F3E39383B3AE8
:1000A00005040706010003020D0C0F0E09080B0AD8
:1000B00015141716111013121D1C1F1E19181B1AC8
:1000C00065246726612063226D2C6F2E69286B2AB8
:1000D00075347736713073327D3C7F3E79387B3AA8
:1000E00045044706410043024D0C4F0E49084B0A98
:1000F00055145716511053125D1C5F1E59185B1A88
:10010000A524A726A120A322AD2CAF2EA928AB2A77
:10011000B534B736B130B332BD3CBF3EB938BB3A67
:1001200085048706810083028D0C8F0E89088B0A57
:1001300095149716911093129D1C9F1E99189B1A47
:10014000E524E726E120E322ED2CEF2EE928EB2A37
:10015000F534F736F130F332FD3CFE3EF938FB3A28
:10016000C504C706C100C302CD0CCF0EC908CB0A17
:10017000D514D716D110D312DD1CDF1ED918DB1A07
:1001800025242726212023222D2C2F2E29282B2AF7
:1001900035343736313033323D3C3F3E39383B3AE7
:1001A00005040706010003020D0C0F0E09080B0AD7
:1001B00015141716111013121D1C1F1E19181B1AC7
:1001C00065246726612063226D2C6F2E69286B2AB7
:1001D00075347736713073327D3C7F3E79387B3AA7
:1001E00045044706410043024D0C4F0E49084B0A97
:1001F00055145716511053125D1C5F1E59185B1A87
:10020000A524A726A120A322AD2CAF2EA928AB2A76
:10021000B534B736B130B332BD3CBF3EB938BB3A66
:1002200085048706810083028D0C8F0E89088B0A56
:1002300095149716911093129D1C9F1E99189B1A46
:10024000E524E726E120E322ED2CEF2EE928EB2A36
:10025000F534F736F130F332FD3CFE3EF938FB3A27
:10026000C504C706C100C302CD0CCF0EC908CB0A16
:10027000D514D716D110D312DD1CDF1ED918DB1A06
:1002800025242726212023222D2C2F2E29282B2AF6
:1002900035343736313033323D3C3F3E39383B3AE6
:1002A00005040706010003020D0C0F0E09080B0AD6
:1002B00015141716111013121D1C1F1E19181B1AC6
:1002C00065246726612063226D2C6F2E69286B2AB6
:1002D00075347736713073327D3C7F3E79387B3AA6
:1002E00045044706410043024D0C4F0E49084B0A96
:1002F00055145716511053125D1C5F1E59185B1A86
:10030000A524A726A120A322AD2CAF2EA928AB2A75
:10031000B534B736B130B332BD3CBF3EB938BB3A65
:1003200085048706810083028D0C8F0E89088B0A55
:1003300095149716911093129D1C9F1E99189B1A45
:10034000E524E726E120E322ED2CEF2EE928EB2A35
:10035000F534F736F130F332FD3CFE3EF938FB3A26
:10036000C504C706C100C302CD0CCF0EC908CB0A15
:10037000D514D716D110D312DD1CDF1ED918DB1A05
:1003800025242726212023222D2C2F2E29282B2AF5
:1003900035343736313033323D3C3F3E39383B3AE5
:1003A00005040706010003020D0C0F0E09080B0AD5
:1003B00015141716111013121D1C1F1E19181B1AC5
:1003C00065246726612063226D2C6F2E69286B2AB5
:1003D00075347736713073327D3C7F3E79387B3AA5
:1003E00045044706410043024D0C4F0E49084B0A95
:1003F00055145716511053125D1C5F1E59185B1A85
:10040000A524A726A120A322AD2CAF2EA928AB2A74
:10041000B534B736B130B332BD3CBF3EB938BB3A64
:1004200085048706810083028D0C8F0E89088B0A54
:1004300095149716911093129D1C9F1E99189B1A44
:10044000E524E726E120E322ED2CEF2EE928EB2A34
:10045000F534F736F130F332FD3CFE3EF938FB3A25
:10046000C504C706C100C302CD0CCF0EC908CB0A14
:10047000D514D716D110D312DD1CDF1ED918DB1A04
:1004800025242726212023222D2C2F2E29282B2AF4
:1004900035343736313033323D3C3F3E39383B3AE4
:1004A00005040706010003020D0C0F0E09080B0AD4
:1004B00015141716111013121D1C1F1E19181B1AC4
:1004C00065246726612063226D2C6F2E69286B2AB4
:1004D00075347736713073327D3C7F3E79387B3AA4
:1004E00045044706410043024D0C4F0E49084B0A94
:1004F00055145716511053125D1C5F1E59185B1A84
:10050000A524A726A120A322AD2CAF2EA928AB2A73
:10051000B534B736B130B332BD3CBF3EB938BB3A63
:1005200085048706810083028D0C8F0E89088B0A53
:1005300095149716911093129D1C9F1E99189B1A43
:10054000E524E726E120E322ED2CEF2EE928EB2A33
:10055000F534F736F130F332FD3CFE3EF938FB3A24
:10056000C504C706C100C302CD0CCF0EC908CB0A13
:10057000D514D716D110D312DD1CDF1ED918DB1A03
:1005800025242726212023222D2C2F2E29282B2AF3
:1005900035343736313033323D3C3F3E39383B3AE3
:1005A00005040706010003020D0C0F0E09080B0AD3
:1005B00015141716111013121D1C1F1E19181B1AC3
:1005C00065246726612063226D2C6F2E69286B2AB3
:1005D00075347736713073327D3C7F3E79387B3AA3
:1005E00045044706410043024D0C4F0E49084B0A93
:1005F00055145716511053125D1C5F1E59185B1A83
:10060000A524A726A120A322AD2CAF2EA928AB2A72
:10061000B534B736B130B332BD3CBF3EB938BB3A62
:1006200085048706810083028D0C8F0E89088B0A52
:1006300095149716911093129D1C9F1E99189B1A42
:10064000E524E726E120E322ED2CEF2EE928EB2A32
:10065000F534F736F130F332FD3CFE3EF938FB3A23
:10066000C504C706C100C302CD0CCF0EC908CB0A12
:10067000D514D716D110D312DD1CDF1ED918DB1A02
:1006800025242726212023222D2C2F2E29282B2AF2
:1006900035343736313033323D3C3F3E39383B3AE2
:1006A00005040706010003020D0C0F0E09080B0AD2
:1006B00015141716111013121D1C1F1E19181B1AC2
:1006C00065246726612063226D2C6F2E69286B2AB2
:1006D00075347736713073327D3C7F3E79387B3AA2
:1006E00045044706410043024D0C4F0E49084B0A92
:1006F00055145716511053125D1C5F1E59185B1A82
:10070000A524A726A120A322AD2CAF2EA928AB2A71
:10071000B534B736B130B332BD3CBF3EB938BB3A61
:1007200085048706810083028D0C8F0E89088B0A51
:1007300095149716911093129D1C9F1E99189B1A41
:10074000E524E726E120E322ED2CEF2EE928EB2A31
:10075000F534F736F130F332FD3CFE3EF938FB3A22
:10076000C504C706C100C302CD0CCF0EC908CB0A11
:10077000D514D716D110D312DD1CDF1ED918DB1A01
:1007800025242726212023222D2C2F2E29282B2AF1
:1007900035343736313033323D3C3F3E39383B3AE1
:1007A00005040706010003020D0C0F0E09080B0AD1
:1007B00015141716111013121D1C1F1E19181B1AC1
:1007C00065246726612063226D2C6F2E69286B2AB1
:1007D00075347736713073327D3C7F3E79387B3AA1
:1007E00045044706410043024D0C4F0E49084B0A91
:1007F00055145716511053125D1C5F1E59185B1A81
:020000040001F9
:20000000A524A726A120A322AD2CAF2EA928AB2AB534B736B130B332BD3CBF3EB938BB3AF0
:00000001FF
